{
  "contractName": "ControlTower",
  "abi": [
    {
      "inputs": [],
      "stateMutability": "nonpayable",
      "type": "constructor"
    },
    {
      "anonymous": false,
      "inputs": [
        {
          "indexed": true,
          "internalType": "address",
          "name": "account",
          "type": "address"
        }
      ],
      "name": "AddToBlacklist",
      "type": "event"
    },
    {
      "anonymous": false,
      "inputs": [
        {
          "indexed": true,
          "internalType": "address",
          "name": "account",
          "type": "address"
        }
      ],
      "name": "AddToWhitelist",
      "type": "event"
    },
    {
      "anonymous": false,
      "inputs": [
        {
          "indexed": true,
          "internalType": "address",
          "name": "account",
          "type": "address"
        }
      ],
      "name": "RemoveFromBlacklist",
      "type": "event"
    },
    {
      "anonymous": false,
      "inputs": [
        {
          "indexed": true,
          "internalType": "address",
          "name": "account",
          "type": "address"
        }
      ],
      "name": "RemoveFromWhitelist",
      "type": "event"
    },
    {
      "anonymous": false,
      "inputs": [
        {
          "indexed": true,
          "internalType": "bytes32",
          "name": "role",
          "type": "bytes32"
        },
        {
          "indexed": true,
          "internalType": "bytes32",
          "name": "previousAdminRole",
          "type": "bytes32"
        },
        {
          "indexed": true,
          "internalType": "bytes32",
          "name": "newAdminRole",
          "type": "bytes32"
        }
      ],
      "name": "RoleAdminChanged",
      "type": "event"
    },
    {
      "anonymous": false,
      "inputs": [
        {
          "indexed": true,
          "internalType": "bytes32",
          "name": "role",
          "type": "bytes32"
        },
        {
          "indexed": true,
          "internalType": "address",
          "name": "account",
          "type": "address"
        },
        {
          "indexed": true,
          "internalType": "address",
          "name": "sender",
          "type": "address"
        }
      ],
      "name": "RoleGranted",
      "type": "event"
    },
    {
      "anonymous": false,
      "inputs": [
        {
          "indexed": true,
          "internalType": "bytes32",
          "name": "role",
          "type": "bytes32"
        },
        {
          "indexed": true,
          "internalType": "address",
          "name": "account",
          "type": "address"
        },
        {
          "indexed": true,
          "internalType": "address",
          "name": "sender",
          "type": "address"
        }
      ],
      "name": "RoleRevoked",
      "type": "event"
    },
    {
      "inputs": [],
      "name": "DEFAULT_ADMIN_ROLE",
      "outputs": [
        {
          "internalType": "bytes32",
          "name": "",
          "type": "bytes32"
        }
      ],
      "stateMutability": "view",
      "type": "function",
      "constant": true
    },
    {
      "inputs": [],
      "name": "MODERATOR_ROLE",
      "outputs": [
        {
          "internalType": "bytes32",
          "name": "",
          "type": "bytes32"
        }
      ],
      "stateMutability": "view",
      "type": "function",
      "constant": true
    },
    {
      "inputs": [],
      "name": "OPERATOR_ROLE",
      "outputs": [
        {
          "internalType": "bytes32",
          "name": "",
          "type": "bytes32"
        }
      ],
      "stateMutability": "view",
      "type": "function",
      "constant": true
    },
    {
      "inputs": [],
      "name": "TREASURER_ROLE",
      "outputs": [
        {
          "internalType": "bytes32",
          "name": "",
          "type": "bytes32"
        }
      ],
      "stateMutability": "view",
      "type": "function",
      "constant": true
    },
    {
      "inputs": [
        {
          "internalType": "bytes32",
          "name": "role",
          "type": "bytes32"
        }
      ],
      "name": "getRoleAdmin",
      "outputs": [
        {
          "internalType": "bytes32",
          "name": "",
          "type": "bytes32"
        }
      ],
      "stateMutability": "view",
      "type": "function",
      "constant": true
    },
    {
      "inputs": [
        {
          "internalType": "bytes32",
          "name": "role",
          "type": "bytes32"
        },
        {
          "internalType": "address",
          "name": "account",
          "type": "address"
        }
      ],
      "name": "grantRole",
      "outputs": [],
      "stateMutability": "nonpayable",
      "type": "function"
    },
    {
      "inputs": [
        {
          "internalType": "bytes32",
          "name": "role",
          "type": "bytes32"
        },
        {
          "internalType": "address",
          "name": "account",
          "type": "address"
        }
      ],
      "name": "hasRole",
      "outputs": [
        {
          "internalType": "bool",
          "name": "",
          "type": "bool"
        }
      ],
      "stateMutability": "view",
      "type": "function",
      "constant": true
    },
    {
      "inputs": [
        {
          "internalType": "address",
          "name": "account",
          "type": "address"
        }
      ],
      "name": "isInBlacklist",
      "outputs": [
        {
          "internalType": "bool",
          "name": "",
          "type": "bool"
        }
      ],
      "stateMutability": "view",
      "type": "function",
      "constant": true
    },
    {
      "inputs": [
        {
          "internalType": "address",
          "name": "account",
          "type": "address"
        }
      ],
      "name": "isInWhitelist",
      "outputs": [
        {
          "internalType": "bool",
          "name": "",
          "type": "bool"
        }
      ],
      "stateMutability": "view",
      "type": "function",
      "constant": true
    },
    {
      "inputs": [
        {
          "internalType": "bytes32",
          "name": "role",
          "type": "bytes32"
        },
        {
          "internalType": "address",
          "name": "account",
          "type": "address"
        }
      ],
      "name": "renounceRole",
      "outputs": [],
      "stateMutability": "nonpayable",
      "type": "function"
    },
    {
      "inputs": [
        {
          "internalType": "bytes32",
          "name": "role",
          "type": "bytes32"
        },
        {
          "internalType": "address",
          "name": "account",
          "type": "address"
        }
      ],
      "name": "revokeRole",
      "outputs": [],
      "stateMutability": "nonpayable",
      "type": "function"
    },
    {
      "inputs": [
        {
          "internalType": "bytes4",
          "name": "interfaceId",
          "type": "bytes4"
        }
      ],
      "name": "supportsInterface",
      "outputs": [
        {
          "internalType": "bool",
          "name": "",
          "type": "bool"
        }
      ],
      "stateMutability": "view",
      "type": "function",
      "constant": true
    },
    {
      "inputs": [
        {
          "internalType": "address",
          "name": "",
          "type": "address"
        }
      ],
      "name": "whitelisting",
      "outputs": [
        {
          "internalType": "bool",
          "name": "",
          "type": "bool"
        }
      ],
      "stateMutability": "view",
      "type": "function",
      "constant": true
    },
    {
      "inputs": [
        {
          "internalType": "bytes32",
          "name": "role",
          "type": "bytes32"
        },
        {
          "internalType": "bytes32",
          "name": "adminRole",
          "type": "bytes32"
        }
      ],
      "name": "setAdminRole",
      "outputs": [],
      "stateMutability": "nonpayable",
      "type": "function"
    },
    {
      "inputs": [
        {
          "internalType": "address",
          "name": "account",
          "type": "address"
        }
      ],
      "name": "onlyOperator",
      "outputs": [],
      "stateMutability": "view",
      "type": "function",
      "constant": true
    },
    {
      "inputs": [
        {
          "internalType": "address",
          "name": "account",
          "type": "address"
        }
      ],
      "name": "onlyTreasurer",
      "outputs": [],
      "stateMutability": "view",
      "type": "function",
      "constant": true
    },
    {
      "inputs": [
        {
          "internalType": "address",
          "name": "account",
          "type": "address"
        }
      ],
      "name": "onlyModerator",
      "outputs": [],
      "stateMutability": "view",
      "type": "function",
      "constant": true
    },
    {
      "inputs": [
        {
          "internalType": "address",
          "name": "account",
          "type": "address"
        }
      ],
      "name": "onlyWhitelist",
      "outputs": [],
      "stateMutability": "view",
      "type": "function",
      "constant": true
    },
    {
      "inputs": [
        {
          "internalType": "address",
          "name": "account",
          "type": "address"
        }
      ],
      "name": "notInBlacklist",
      "outputs": [],
      "stateMutability": "view",
      "type": "function",
      "constant": true
    },
    {
      "inputs": [
        {
          "internalType": "address",
          "name": "account",
          "type": "address"
        }
      ],
      "name": "addToWhitelist",
      "outputs": [],
      "stateMutability": "nonpayable",
      "type": "function"
    },
    {
      "inputs": [
        {
          "internalType": "address",
          "name": "account",
          "type": "address"
        }
      ],
      "name": "removeFromWhitelist",
      "outputs": [],
      "stateMutability": "nonpayable",
      "type": "function"
    },
    {
      "inputs": [
        {
          "internalType": "address",
          "name": "account",
          "type": "address"
        }
      ],
      "name": "addToBlacklist",
      "outputs": [],
      "stateMutability": "nonpayable",
      "type": "function"
    },
    {
      "inputs": [
        {
          "internalType": "address",
          "name": "account",
          "type": "address"
        }
      ],
      "name": "removeFromBlacklist",
      "outputs": [],
      "stateMutability": "nonpayable",
      "type": "function"
    }
  ],
  "bytecode": "0x60806040523480156200001157600080fd5b50620000366000801b6200002a6200012860201b60201c565b6200013060201b60201c565b6200007a7f4f50455241544f525f524f4c450000000000000000000000000000000000000060001b6200006e6200012860201b60201c565b6200013060201b60201c565b620000be7f5452454153555245525f524f4c4500000000000000000000000000000000000060001b620000b26200012860201b60201c565b6200013060201b60201c565b620001027f4d4f44455241544f525f524f4c4500000000000000000000000000000000000060001b620000f66200012860201b60201c565b6200013060201b60201c565b62000122620001166200012860201b60201c565b6200022160201b60201c565b62000329565b600033905090565b620001428282620002bf60201b60201c565b6200021d57600160008084815260200190815260200160002060000160008373ffffffffffffffffffffffffffffffffffffffff1673ffffffffffffffffffffffffffffffffffffffff16815260200190815260200160002060006101000a81548160ff021916908315150217905550620001c26200012860201b60201c565b73ffffffffffffffffffffffffffffffffffffffff168173ffffffffffffffffffffffffffffffffffffffff16837f2f8788117e7eff1d82e926ec794901d17c78024a50270940304540a733656f0d60405160405180910390a45b5050565b6001600260008373ffffffffffffffffffffffffffffffffffffffff1673ffffffffffffffffffffffffffffffffffffffff16815260200190815260200160002060006101000a81548160ff0219169083151502179055508073ffffffffffffffffffffffffffffffffffffffff167f75b2135d1c8c3519f3c09c43fe6527089ef09f40c7981ebf0ed46e79e79032c760405160405180910390a250565b600080600084815260200190815260200160002060000160008373ffffffffffffffffffffffffffffffffffffffff1673ffffffffffffffffffffffffffffffffffffffff16815260200190815260200160002060009054906101000a900460ff16905092915050565b611b0580620003396000396000f3fe608060405234801561001057600080fd5b506004361061014d5760003560e01c8063797669c9116100c3578063c75862971161007c578063c7586297146103aa578063d547741f146103c6578063dfde5e58146103e2578063e43252d7146103fe578063f0a3a97c1461041a578063f5b541a6146104385761014d565b8063797669c9146102c25780638ab1d681146102e057806391d14854146102fc57806394b2ae0e1461032c5780639caf9b001461035c578063a217fddf1461038c5761014d565b80632f2ff15d116101155780632f2ff15d1461021a57806336568abe1461023657806344337ea1146102525780635139caa71461026e57806352ddf3161461028a578063537df3b6146102a65761014d565b806301ffc9a71461015257806302bb35e81461018257806309fd82121461019e57806313aeefdc146101ce578063248a9ca3146101ea575b600080fd5b61016c600480360381019061016791906112c4565b610456565b604051610179919061130c565b60405180910390f35b61019c60048036038101906101979190611385565b6104d0565b005b6101b860048036038101906101b39190611385565b61051c565b6040516101c5919061130c565b60405180910390f35b6101e860048036038101906101e39190611385565b610572565b005b61020460048036038101906101ff91906113e8565b6105e1565b6040516102119190611424565b60405180910390f35b610234600480360381019061022f919061143f565b610600565b005b610250600480360381019061024b919061143f565b610621565b005b61026c60048036038101906102679190611385565b6106a4565b005b61028860048036038101906102839190611385565b6106e7565b005b6102a4600480360381019061029f9190611385565b610756565b005b6102c060048036038101906102bb9190611385565b6107a1565b005b6102ca6107db565b6040516102d79190611424565b60405180910390f35b6102fa60048036038101906102f59190611385565b610802565b005b6103166004803603810190610311919061143f565b61083c565b604051610323919061130c565b60405180910390f35b61034660048036038101906103419190611385565b6108a6565b604051610353919061130c565b60405180910390f35b61037660048036038101906103719190611385565b6108c6565b604051610383919061130c565b60405180910390f35b61039461091c565b6040516103a19190611424565b60405180910390f35b6103c460048036038101906103bf9190611385565b610923565b005b6103e060048036038101906103db919061143f565b610992565b005b6103fc60048036038101906103f7919061147f565b6109b3565b005b61041860048036038101906104139190611385565b6109cf565b005b610422610a12565b60405161042f9190611424565b60405180910390f35b610440610a39565b60405161044d9190611424565b60405180910390f35b60007f7965db0b000000000000000000000000000000000000000000000000000000007bffffffffffffffffffffffffffffffffffffffffffffffffffffffff1916827bffffffffffffffffffffffffffffffffffffffffffffffffffffffff191614806104c957506104c882610a60565b5b9050919050565b6104d9816108c6565b15610519576040517f08c379a00000000000000000000000000000000000000000000000000000000081526004016105109061151c565b60405180910390fd5b50565b6000600260008373ffffffffffffffffffffffffffffffffffffffff1673ffffffffffffffffffffffffffffffffffffffff16815260200190815260200160002060009054906101000a900460ff169050919050565b61059f7f4d4f44455241544f525f524f4c4500000000000000000000000000000000000060001b8261083c565b6105de576040517f08c379a00000000000000000000000000000000000000000000000000000000081526004016105d590611588565b60405180910390fd5b50565b6000806000838152602001908152602001600020600101549050919050565b610609826105e1565b61061281610aca565b61061c8383610ade565b505050565b610629610bbe565b73ffffffffffffffffffffffffffffffffffffffff168173ffffffffffffffffffffffffffffffffffffffff1614610696576040517f08c379a000000000000000000000000000000000000000000000000000000000815260040161068d9061161a565b60405180910390fd5b6106a08282610bc6565b5050565b7f4f50455241544f525f524f4c450000000000000000000000000000000000000060001b6106d181610aca565b6106da82610ca7565b6106e382610d45565b5050565b6107147f5452454153555245525f524f4c4500000000000000000000000000000000000060001b8261083c565b610753576040517f08c379a000000000000000000000000000000000000000000000000000000000815260040161074a90611686565b60405180910390fd5b50565b61075f8161051c565b61079e576040517f08c379a0000000000000000000000000000000000000000000000000000000008152600401610795906116f2565b60405180910390fd5b50565b7f4f50455241544f525f524f4c450000000000000000000000000000000000000060001b6107ce81610aca565b6107d782610de2565b5050565b7f4d4f44455241544f525f524f4c4500000000000000000000000000000000000060001b81565b7f4f50455241544f525f524f4c450000000000000000000000000000000000000060001b61082f81610aca565b61083882610ca7565b5050565b600080600084815260200190815260200160002060000160008373ffffffffffffffffffffffffffffffffffffffff1673ffffffffffffffffffffffffffffffffffffffff16815260200190815260200160002060009054906101000a900460ff16905092915050565b60026020528060005260406000206000915054906101000a900460ff1681565b6000600160008373ffffffffffffffffffffffffffffffffffffffff1673ffffffffffffffffffffffffffffffffffffffff16815260200190815260200160002060009054906101000a900460ff169050919050565b6000801b81565b6109507f4f50455241544f525f524f4c450000000000000000000000000000000000000060001b8261083c565b61098f576040517f08c379a00000000000000000000000000000000000000000000000000000000081526004016109869061175e565b60405180910390fd5b50565b61099b826105e1565b6109a481610aca565b6109ae8383610bc6565b505050565b6000801b6109c081610aca565b6109ca8383610e80565b505050565b7f4f50455241544f525f524f4c450000000000000000000000000000000000000060001b6109fc81610aca565b610a0582610de2565b610a0e82610edb565b5050565b7f5452454153555245525f524f4c4500000000000000000000000000000000000060001b81565b7f4f50455241544f525f524f4c450000000000000000000000000000000000000060001b81565b60007f01ffc9a7000000000000000000000000000000000000000000000000000000007bffffffffffffffffffffffffffffffffffffffffffffffffffffffff1916827bffffffffffffffffffffffffffffffffffffffffffffffffffffffff1916149050919050565b610adb81610ad6610bbe565b610f79565b50565b610ae8828261083c565b610bba57600160008084815260200190815260200160002060000160008373ffffffffffffffffffffffffffffffffffffffff1673ffffffffffffffffffffffffffffffffffffffff16815260200190815260200160002060006101000a81548160ff021916908315150217905550610b5f610bbe565b73ffffffffffffffffffffffffffffffffffffffff168173ffffffffffffffffffffffffffffffffffffffff16837f2f8788117e7eff1d82e926ec794901d17c78024a50270940304540a733656f0d60405160405180910390a45b5050565b600033905090565b610bd0828261083c565b15610ca357600080600084815260200190815260200160002060000160008373ffffffffffffffffffffffffffffffffffffffff1673ffffffffffffffffffffffffffffffffffffffff16815260200190815260200160002060006101000a81548160ff021916908315150217905550610c48610bbe565b73ffffffffffffffffffffffffffffffffffffffff168173ffffffffffffffffffffffffffffffffffffffff16837ff6391f5c32d9c69d2a47ea670b442974b53935d1edc7fd64eb21e047a839171b60405160405180910390a45b5050565b6000600260008373ffffffffffffffffffffffffffffffffffffffff1673ffffffffffffffffffffffffffffffffffffffff16815260200190815260200160002060006101000a81548160ff0219169083151502179055508073ffffffffffffffffffffffffffffffffffffffff167f1f756c8b089af6b33ee121fee8badac2553a2fa89c0575ea91ff8792617746c260405160405180910390a250565b60018060008373ffffffffffffffffffffffffffffffffffffffff1673ffffffffffffffffffffffffffffffffffffffff16815260200190815260200160002060006101000a81548160ff0219169083151502179055508073ffffffffffffffffffffffffffffffffffffffff167f6b713f4f12b0a0860e4b6b54d27ef8de95da632b1250f5c12f8254fdedbc2ebd60405160405180910390a250565b6000600160008373ffffffffffffffffffffffffffffffffffffffff1673ffffffffffffffffffffffffffffffffffffffff16815260200190815260200160002060006101000a81548160ff0219169083151502179055508073ffffffffffffffffffffffffffffffffffffffff167f3afada3900b4909463d8a846fbdc12d6b5c4e8030bd6bc1215822ecee62357ba60405160405180910390a250565b6000610e8b836105e1565b905081600080858152602001908152602001600020600101819055508181847fbd79b86ffe0ab8e8776151514217cd7cacd52c909f66475c3af44e129f0b00ff60405160405180910390a4505050565b6001600260008373ffffffffffffffffffffffffffffffffffffffff1673ffffffffffffffffffffffffffffffffffffffff16815260200190815260200160002060006101000a81548160ff0219169083151502179055508073ffffffffffffffffffffffffffffffffffffffff167f75b2135d1c8c3519f3c09c43fe6527089ef09f40c7981ebf0ed46e79e79032c760405160405180910390a250565b610f83828261083c565b610ffa57610f9081610ffe565b610f9e8360001c602061102b565b604051602001610faf929190611887565b6040516020818303038152906040526040517f08c379a0000000000000000000000000000000000000000000000000000000008152600401610ff1919061190b565b60405180910390fd5b5050565b60606110248273ffffffffffffffffffffffffffffffffffffffff16601460ff1661102b565b9050919050565b60606000600283600261103e9190611966565b61104891906119a8565b67ffffffffffffffff811115611061576110606119dc565b5b6040519080825280601f01601f1916602001820160405280156110935781602001600182028036833780820191505090505b5090507f3000000000000000000000000000000000000000000000000000000000000000816000815181106110cb576110ca611a0b565b5b60200101907effffffffffffffffffffffffffffffffffffffffffffffffffffffffffffff1916908160001a9053507f78000000000000000000000000000000000000000000000000000000000000008160018151811061112f5761112e611a0b565b5b60200101907effffffffffffffffffffffffffffffffffffffffffffffffffffffffffffff1916908160001a9053506000600184600261116f9190611966565b61117991906119a8565b90505b6001811115611219577f3031323334353637383961626364656600000000000000000000000000000000600f8616601081106111bb576111ba611a0b565b5b1a60f81b8282815181106111d2576111d1611a0b565b5b60200101907effffffffffffffffffffffffffffffffffffffffffffffffffffffffffffff1916908160001a905350600485901c94508061121290611a3a565b905061117c565b506000841461125d576040517f08c379a000000000000000000000000000000000000000000000000000000000815260040161125490611aaf565b60405180910390fd5b8091505092915050565b600080fd5b60007fffffffff0000000000000000000000000000000000000000000000000000000082169050919050565b6112a18161126c565b81146112ac57600080fd5b50565b6000813590506112be81611298565b92915050565b6000602082840312156112da576112d9611267565b5b60006112e8848285016112af565b91505092915050565b60008115159050919050565b611306816112f1565b82525050565b600060208201905061132160008301846112fd565b92915050565b600073ffffffffffffffffffffffffffffffffffffffff82169050919050565b600061135282611327565b9050919050565b61136281611347565b811461136d57600080fd5b50565b60008135905061137f81611359565b92915050565b60006020828403121561139b5761139a611267565b5b60006113a984828501611370565b91505092915050565b6000819050919050565b6113c5816113b2565b81146113d057600080fd5b50565b6000813590506113e2816113bc565b92915050565b6000602082840312156113fe576113fd611267565b5b600061140c848285016113d3565b91505092915050565b61141e816113b2565b82525050565b60006020820190506114396000830184611415565b92915050565b6000806040838503121561145657611455611267565b5b6000611464858286016113d3565b925050602061147585828601611370565b9150509250929050565b6000806040838503121561149657611495611267565b5b60006114a4858286016113d3565b92505060206114b5858286016113d3565b9150509250929050565b600082825260208201905092915050565b7f436f6e74726f6c546f7765723a20424c41434b4c495354454400000000000000600082015250565b60006115066019836114bf565b9150611511826114d0565b602082019050919050565b60006020820190508181036000830152611535816114f9565b9050919050565b7f436f6e74726f6c546f7765723a204d4f44455241544f525f4f4e4c5900000000600082015250565b6000611572601c836114bf565b915061157d8261153c565b602082019050919050565b600060208201905081810360008301526115a181611565565b9050919050565b7f416363657373436f6e74726f6c3a2063616e206f6e6c792072656e6f756e636560008201527f20726f6c657320666f722073656c660000000000000000000000000000000000602082015250565b6000611604602f836114bf565b915061160f826115a8565b604082019050919050565b60006020820190508181036000830152611633816115f7565b9050919050565b7f436f6e74726f6c546f7765723a205452454153555245525f4f4e4c5900000000600082015250565b6000611670601c836114bf565b915061167b8261163a565b602082019050919050565b6000602082019050818103600083015261169f81611663565b9050919050565b7f436f6e74726f6c546f7765723a2057484954454c4953545f4f4e4c5900000000600082015250565b60006116dc601c836114bf565b91506116e7826116a6565b602082019050919050565b6000602082019050818103600083015261170b816116cf565b9050919050565b7f436f6e74726f6c546f7765723a204f50455241544f525f4f4e4c590000000000600082015250565b6000611748601b836114bf565b915061175382611712565b602082019050919050565b600060208201905081810360008301526117778161173b565b9050919050565b600081905092915050565b7f416363657373436f6e74726f6c3a206163636f756e7420000000000000000000600082015250565b60006117bf60178361177e565b91506117ca82611789565b601782019050919050565b600081519050919050565b60005b838110156117fe5780820151818401526020810190506117e3565b60008484015250505050565b6000611815826117d5565b61181f818561177e565b935061182f8185602086016117e0565b80840191505092915050565b7f206973206d697373696e6720726f6c6520000000000000000000000000000000600082015250565b600061187160118361177e565b915061187c8261183b565b601182019050919050565b6000611892826117b2565b915061189e828561180a565b91506118a982611864565b91506118b5828461180a565b91508190509392505050565b6000601f19601f8301169050919050565b60006118dd826117d5565b6118e781856114bf565b93506118f78185602086016117e0565b611900816118c1565b840191505092915050565b6000602082019050818103600083015261192581846118d2565b905092915050565b6000819050919050565b7f4e487b7100000000000000000000000000000000000000000000000000000000600052601160045260246000fd5b60006119718261192d565b915061197c8361192d565b925082820261198a8161192d565b915082820484148315176119a1576119a0611937565b5b5092915050565b60006119b38261192d565b91506119be8361192d565b92508282019050808211156119d6576119d5611937565b5b92915050565b7f4e487b7100000000000000000000000000000000000000000000000000000000600052604160045260246000fd5b7f4e487b7100000000000000000000000000000000000000000000000000000000600052603260045260246000fd5b6000611a458261192d565b915060008203611a5857611a57611937565b5b600182039050919050565b7f537472696e67733a20686578206c656e67746820696e73756666696369656e74600082015250565b6000611a996020836114bf565b9150611aa482611a63565b602082019050919050565b60006020820190508181036000830152611ac881611a8c565b905091905056fea26469706673582212202367c99462383c2baa33273172cd3c4e97c419943f9e533f2c1b0e551122740c64736f6c63430008110033",
  "immutableReferences": {},
  "source": "// SPDX-License-Identifier: MIT\n// FxEthers Contracts (last updated v1.0)\n\npragma solidity 0.8.17;\n\nimport \"@openzeppelin/contracts/access/AccessControl.sol\";\nimport \"./Blacklist.sol\";\nimport \"./Whitelist.sol\";\n\ncontract ControlTower is AccessControl, Blacklist, Whitelist {\n    bytes32 public constant OPERATOR_ROLE = 0x4f50455241544f525f524f4c4500000000000000000000000000000000000000;\n    bytes32 public constant TREASURER_ROLE = 0x5452454153555245525f524f4c45000000000000000000000000000000000000;\n    bytes32 public constant MODERATOR_ROLE = 0x4d4f44455241544f525f524f4c45000000000000000000000000000000000000;\n\n    constructor() {\n        _grantRole(DEFAULT_ADMIN_ROLE, _msgSender());\n        _grantRole(OPERATOR_ROLE, _msgSender());\n        _grantRole(TREASURER_ROLE, _msgSender());\n        _grantRole(MODERATOR_ROLE, _msgSender());\n        _addToWhitelist(_msgSender());\n    }\n\n    function setAdminRole(\n        bytes32 role,\n        bytes32 adminRole\n    ) external onlyRole(DEFAULT_ADMIN_ROLE) {\n        _setRoleAdmin(role, adminRole);\n    }\n\n    function onlyOperator(address account) external view {\n        require(hasRole(OPERATOR_ROLE, account), \"ControlTower: OPERATOR_ONLY\");\n    }\n\n    function onlyTreasurer(address account) external view{\n        require(hasRole(TREASURER_ROLE, account), \"ControlTower: TREASURER_ONLY\");\n    }\n\n    function onlyModerator(address account) external view {\n        require(hasRole(MODERATOR_ROLE, account), \"ControlTower: MODERATOR_ONLY\");\n    }\n\n    function onlyWhitelist(address account) external view {\n        require(isInWhitelist(account), \"ControlTower: WHITELIST_ONLY\");\n    }\n\n    function notInBlacklist(address account) external view {\n        require(!isInBlacklist(account), \"ControlTower: BLACKLISTED\");\n    }\n\n    function addToWhitelist(address account) external onlyRole(OPERATOR_ROLE) {\n        _removeFromBlacklist(account);\n        _addToWhitelist(account);\n    }\n\n    function removeFromWhitelist(address account) external onlyRole(OPERATOR_ROLE) {\n        _removeFromWhitelist(account);\n    }\n\n    function addToBlacklist(address account) external onlyRole(OPERATOR_ROLE) {\n        _removeFromWhitelist(account);\n        _addToBlacklist(account);\n    }\n\n    function removeFromBlacklist(address account) external onlyRole(OPERATOR_ROLE) {\n        _removeFromBlacklist(account);\n    }\n}\n",
  "sourcePath": "/media/luc/Fdata/fxethers/truffle/contracts/access/ControlTower.sol",
  "compiler": {
    "name": "solc",
    "version": "0.8.17+commit.8df45f5f.Emscripten.clang"
  },
  "schemaVersion": "3.4.10",
  "updatedAt": "2023-02-03T17:23:18.463Z",
  "networkType": "ethereum",
  "devdoc": {
    "kind": "dev",
    "methods": {
      "getRoleAdmin(bytes32)": {
        "details": "Returns the admin role that controls `role`. See {grantRole} and {revokeRole}. To change a role's admin, use {_setRoleAdmin}."
      },
      "grantRole(bytes32,address)": {
        "details": "Grants `role` to `account`. If `account` had not been already granted `role`, emits a {RoleGranted} event. Requirements: - the caller must have ``role``'s admin role. May emit a {RoleGranted} event."
      },
      "hasRole(bytes32,address)": {
        "details": "Returns `true` if `account` has been granted `role`."
      },
      "renounceRole(bytes32,address)": {
        "details": "Revokes `role` from the calling account. Roles are often managed via {grantRole} and {revokeRole}: this function's purpose is to provide a mechanism for accounts to lose their privileges if they are compromised (such as when a trusted device is misplaced). If the calling account had been revoked `role`, emits a {RoleRevoked} event. Requirements: - the caller must be `account`. May emit a {RoleRevoked} event."
      },
      "revokeRole(bytes32,address)": {
        "details": "Revokes `role` from `account`. If `account` had been granted `role`, emits a {RoleRevoked} event. Requirements: - the caller must have ``role``'s admin role. May emit a {RoleRevoked} event."
      },
      "supportsInterface(bytes4)": {
        "details": "See {IERC165-supportsInterface}."
      }
    },
    "version": 1
  },
  "userdoc": {
    "kind": "user",
    "methods": {},
    "version": 1
  }
}