{
  "contractName": "FxMarketplace",
  "abi": [
    {
      "inputs": [
        {
          "internalType": "contract ControlTower",
          "name": "_controlTower",
          "type": "address"
        },
        {
          "internalType": "address",
          "name": "_treasury",
          "type": "address"
        }
      ],
      "stateMutability": "nonpayable",
      "type": "constructor"
    },
    {
      "anonymous": false,
      "inputs": [
        {
          "indexed": false,
          "internalType": "address",
          "name": "token",
          "type": "address"
        }
      ],
      "name": "AddPaymentToken",
      "type": "event"
    },
    {
      "anonymous": false,
      "inputs": [
        {
          "indexed": false,
          "internalType": "address",
          "name": "nft",
          "type": "address"
        },
        {
          "indexed": false,
          "internalType": "uint256",
          "name": "nftId",
          "type": "uint256"
        }
      ],
      "name": "CancelListed",
      "type": "event"
    },
    {
      "anonymous": false,
      "inputs": [
        {
          "indexed": false,
          "internalType": "address",
          "name": "nft",
          "type": "address"
        },
        {
          "indexed": false,
          "internalType": "uint256",
          "name": "nftId",
          "type": "uint256"
        },
        {
          "indexed": false,
          "internalType": "uint64",
          "name": "startTime",
          "type": "uint64"
        },
        {
          "indexed": false,
          "internalType": "uint64",
          "name": "endTime",
          "type": "uint64"
        },
        {
          "indexed": false,
          "internalType": "address",
          "name": "seller",
          "type": "address"
        },
        {
          "indexed": false,
          "internalType": "address",
          "name": "paymentToken",
          "type": "address"
        },
        {
          "indexed": false,
          "internalType": "uint256",
          "name": "startPrice",
          "type": "uint256"
        }
      ],
      "name": "ListForSale",
      "type": "event"
    },
    {
      "anonymous": false,
      "inputs": [
        {
          "indexed": false,
          "internalType": "address",
          "name": "nft",
          "type": "address"
        },
        {
          "indexed": false,
          "internalType": "uint256",
          "name": "nftId",
          "type": "uint256"
        },
        {
          "indexed": false,
          "internalType": "address",
          "name": "paymentToken",
          "type": "address"
        },
        {
          "indexed": false,
          "internalType": "uint256",
          "name": "amountOffer",
          "type": "uint256"
        },
        {
          "indexed": false,
          "internalType": "address",
          "name": "from",
          "type": "address"
        }
      ],
      "name": "MakeAnOffer",
      "type": "event"
    },
    {
      "anonymous": false,
      "inputs": [
        {
          "indexed": false,
          "internalType": "address",
          "name": "account",
          "type": "address"
        }
      ],
      "name": "Paused",
      "type": "event"
    },
    {
      "anonymous": false,
      "inputs": [
        {
          "indexed": false,
          "internalType": "uint256",
          "name": "oldFee",
          "type": "uint256"
        },
        {
          "indexed": false,
          "internalType": "uint256",
          "name": "newFee",
          "type": "uint256"
        }
      ],
      "name": "ReimbursementFeeChange",
      "type": "event"
    },
    {
      "anonymous": false,
      "inputs": [
        {
          "indexed": false,
          "internalType": "address",
          "name": "token",
          "type": "address"
        },
        {
          "indexed": false,
          "internalType": "uint256",
          "name": "amount",
          "type": "uint256"
        }
      ],
      "name": "RescuesTokenStuck",
      "type": "event"
    },
    {
      "anonymous": false,
      "inputs": [
        {
          "indexed": false,
          "internalType": "uint256",
          "name": "oldFee",
          "type": "uint256"
        },
        {
          "indexed": false,
          "internalType": "uint256",
          "name": "newFee",
          "type": "uint256"
        }
      ],
      "name": "ServiceFeePercentChange",
      "type": "event"
    },
    {
      "anonymous": false,
      "inputs": [
        {
          "indexed": false,
          "internalType": "address",
          "name": "nft",
          "type": "address"
        },
        {
          "indexed": false,
          "internalType": "uint256",
          "name": "nftId",
          "type": "uint256"
        },
        {
          "indexed": false,
          "internalType": "address",
          "name": "to",
          "type": "address"
        }
      ],
      "name": "TakeOwnItem",
      "type": "event"
    },
    {
      "anonymous": false,
      "inputs": [
        {
          "indexed": false,
          "internalType": "address",
          "name": "account",
          "type": "address"
        }
      ],
      "name": "Unpaused",
      "type": "event"
    },
    {
      "inputs": [],
      "name": "PERCENTAGE",
      "outputs": [
        {
          "internalType": "uint256",
          "name": "",
          "type": "uint256"
        }
      ],
      "stateMutability": "view",
      "type": "function",
      "constant": true
    },
    {
      "inputs": [],
      "name": "controlTower",
      "outputs": [
        {
          "internalType": "contract ControlTower",
          "name": "",
          "type": "address"
        }
      ],
      "stateMutability": "view",
      "type": "function",
      "constant": true
    },
    {
      "inputs": [
        {
          "internalType": "address",
          "name": "",
          "type": "address"
        }
      ],
      "name": "isPaymentToken",
      "outputs": [
        {
          "internalType": "bool",
          "name": "",
          "type": "bool"
        }
      ],
      "stateMutability": "view",
      "type": "function",
      "constant": true
    },
    {
      "inputs": [
        {
          "internalType": "address",
          "name": "",
          "type": "address"
        },
        {
          "internalType": "uint256",
          "name": "",
          "type": "uint256"
        }
      ],
      "name": "listed",
      "outputs": [
        {
          "internalType": "contract IERC20",
          "name": "paymentToken",
          "type": "address"
        },
        {
          "internalType": "address",
          "name": "seller",
          "type": "address"
        },
        {
          "internalType": "address",
          "name": "bidder",
          "type": "address"
        },
        {
          "internalType": "uint64",
          "name": "startTime",
          "type": "uint64"
        },
        {
          "internalType": "uint64",
          "name": "endTime",
          "type": "uint64"
        },
        {
          "internalType": "uint256",
          "name": "startPrice",
          "type": "uint256"
        },
        {
          "internalType": "uint256",
          "name": "currentPrice",
          "type": "uint256"
        }
      ],
      "stateMutability": "view",
      "type": "function",
      "constant": true
    },
    {
      "inputs": [],
      "name": "paused",
      "outputs": [
        {
          "internalType": "bool",
          "name": "",
          "type": "bool"
        }
      ],
      "stateMutability": "view",
      "type": "function",
      "constant": true
    },
    {
      "inputs": [],
      "name": "reimbursementFeePercent",
      "outputs": [
        {
          "internalType": "uint256",
          "name": "",
          "type": "uint256"
        }
      ],
      "stateMutability": "view",
      "type": "function",
      "constant": true
    },
    {
      "inputs": [],
      "name": "serviceFeePercent",
      "outputs": [
        {
          "internalType": "uint256",
          "name": "",
          "type": "uint256"
        }
      ],
      "stateMutability": "view",
      "type": "function",
      "constant": true
    },
    {
      "inputs": [],
      "name": "treasury",
      "outputs": [
        {
          "internalType": "address",
          "name": "",
          "type": "address"
        }
      ],
      "stateMutability": "view",
      "type": "function",
      "constant": true
    },
    {
      "inputs": [
        {
          "internalType": "address",
          "name": "nft",
          "type": "address"
        },
        {
          "internalType": "uint256",
          "name": "nftId",
          "type": "uint256"
        },
        {
          "internalType": "uint64",
          "name": "startTime",
          "type": "uint64"
        },
        {
          "internalType": "uint64",
          "name": "endTime",
          "type": "uint64"
        },
        {
          "internalType": "address",
          "name": "paymentToken",
          "type": "address"
        },
        {
          "internalType": "uint256",
          "name": "startPrice",
          "type": "uint256"
        }
      ],
      "name": "listForSale",
      "outputs": [],
      "stateMutability": "nonpayable",
      "type": "function"
    },
    {
      "inputs": [
        {
          "internalType": "address",
          "name": "nft",
          "type": "address"
        },
        {
          "internalType": "uint256",
          "name": "nftId",
          "type": "uint256"
        },
        {
          "internalType": "contract IERC20",
          "name": "paymentToken",
          "type": "address"
        },
        {
          "internalType": "uint256",
          "name": "amountOffer",
          "type": "uint256"
        }
      ],
      "name": "makeAnOffer",
      "outputs": [],
      "stateMutability": "nonpayable",
      "type": "function"
    },
    {
      "inputs": [
        {
          "internalType": "address",
          "name": "nft",
          "type": "address"
        },
        {
          "internalType": "uint256",
          "name": "nftId",
          "type": "uint256"
        },
        {
          "internalType": "address",
          "name": "to",
          "type": "address"
        }
      ],
      "name": "takeOwnItem",
      "outputs": [],
      "stateMutability": "nonpayable",
      "type": "function"
    },
    {
      "inputs": [
        {
          "internalType": "address",
          "name": "nft",
          "type": "address"
        },
        {
          "internalType": "uint256",
          "name": "nftId",
          "type": "uint256"
        }
      ],
      "name": "cancelListed",
      "outputs": [],
      "stateMutability": "nonpayable",
      "type": "function"
    },
    {
      "inputs": [
        {
          "internalType": "uint256",
          "name": "percent",
          "type": "uint256"
        }
      ],
      "name": "setServiceFeePercent",
      "outputs": [],
      "stateMutability": "nonpayable",
      "type": "function"
    },
    {
      "inputs": [
        {
          "internalType": "uint256",
          "name": "percent",
          "type": "uint256"
        }
      ],
      "name": "setReimbursementFeePercent",
      "outputs": [],
      "stateMutability": "nonpayable",
      "type": "function"
    },
    {
      "inputs": [
        {
          "internalType": "address",
          "name": "_token",
          "type": "address"
        }
      ],
      "name": "addPaymentToken",
      "outputs": [],
      "stateMutability": "nonpayable",
      "type": "function"
    },
    {
      "inputs": [],
      "name": "pause",
      "outputs": [],
      "stateMutability": "nonpayable",
      "type": "function"
    },
    {
      "inputs": [],
      "name": "unpause",
      "outputs": [],
      "stateMutability": "nonpayable",
      "type": "function"
    },
    {
      "inputs": [
        {
          "internalType": "address",
          "name": "_token",
          "type": "address"
        }
      ],
      "name": "inCaseTokensGetStuck",
      "outputs": [],
      "stateMutability": "nonpayable",
      "type": "function"
    },
    {
      "inputs": [
        {
          "internalType": "address",
          "name": "",
          "type": "address"
        },
        {
          "internalType": "address",
          "name": "",
          "type": "address"
        },
        {
          "internalType": "uint256",
          "name": "",
          "type": "uint256"
        },
        {
          "internalType": "bytes",
          "name": "",
          "type": "bytes"
        }
      ],
      "name": "onERC721Received",
      "outputs": [
        {
          "internalType": "bytes4",
          "name": "",
          "type": "bytes4"
        }
      ],
      "stateMutability": "pure",
      "type": "function",
      "constant": true
    }
  ],
  "bytecode": "0x60c06040523480156200001157600080fd5b506040516200394638038062003946833981810160405281019062000037919062000181565b60008060006101000a81548160ff0219169083151502179055508173ffffffffffffffffffffffffffffffffffffffff1660808173ffffffffffffffffffffffffffffffffffffffff16815250508073ffffffffffffffffffffffffffffffffffffffff1660a08173ffffffffffffffffffffffffffffffffffffffff168152505060056001819055506101f46002819055505050620001c8565b600080fd5b600073ffffffffffffffffffffffffffffffffffffffff82169050919050565b60006200010482620000d7565b9050919050565b60006200011882620000f7565b9050919050565b6200012a816200010b565b81146200013657600080fd5b50565b6000815190506200014a816200011f565b92915050565b6200015b81620000f7565b81146200016757600080fd5b50565b6000815190506200017b8162000150565b92915050565b600080604083850312156200019b576200019a620000d2565b5b6000620001ab8582860162000139565b9250506020620001be858286016200016a565b9150509250929050565b60805160a0516137276200021f600039600081816112e701528181611c14015261204901526000818161036601528181611115015281816111af015281816117320152818161183c015261211201526137276000f3fe608060405234801561001057600080fd5b50600436106101215760003560e01c806361d027b3116100ad578063995bc51e11610071578063995bc51e146102d6578063a89135c0146102f4578063bfe44ca214610310578063def68a9c1461032c578063e7f4e3f71461034857610121565b806361d027b3146102445780636e2a8838146102625780638456cb591461027e578063930eaddc14610288578063953dab94146102b857610121565b8063293315f2116100f4578063293315f2146101ac57806338901e5d146101ca5780633f4ba83a146102005780634a7dc8e01461020a5780635c975abb1461022657610121565b80630975bb7e14610126578063150b7a02146101445780631c446ba914610174578063267f73ae14610190575b600080fd5b61012e610364565b60405161013b919061275f565b60405180910390f35b61015e6004803603810190610159919061285d565b610388565b60405161016b9190612920565b60405180910390f35b61018e6004803603810190610189919061293b565b61039d565b005b6101aa60048036038101906101a591906129bb565b610a51565b005b6101b4611036565b6040516101c19190612a57565b60405180910390f35b6101e460048036038101906101df919061293b565b61103c565b6040516101f79796959493929190612ab1565b60405180910390f35b610208611113565b005b610224600480360381019061021f9190612b20565b6111ad565b005b61022e6112cf565b60405161023b9190612b68565b60405180910390f35b61024c6112e5565b6040516102599190612b83565b60405180910390f35b61027c60048036038101906102779190612bdc565b611309565b005b610286611730565b005b6102a2600480360381019061029d9190612b20565b6117ca565b6040516102af9190612b68565b60405180910390f35b6102c06117ea565b6040516102cd9190612a57565b60405180910390f35b6102de6117f0565b6040516102eb9190612a57565b60405180910390f35b61030e60048036038101906103099190612c43565b6117f6565b005b61032a60048036038101906103259190612c70565b611908565b005b61034660048036038101906103419190612b20565b611f39565b005b610362600480360381019061035d9190612c43565b6120cc565b005b7f000000000000000000000000000000000000000000000000000000000000000081565b600063150b7a0260e01b905095945050505050565b6000600460008473ffffffffffffffffffffffffffffffffffffffff1673ffffffffffffffffffffffffffffffffffffffff168152602001908152602001600020600083815260200190815260200160002090506000816040518060e00160405290816000820160009054906101000a900473ffffffffffffffffffffffffffffffffffffffff1673ffffffffffffffffffffffffffffffffffffffff1673ffffffffffffffffffffffffffffffffffffffff1681526020016001820160009054906101000a900473ffffffffffffffffffffffffffffffffffffffff1673ffffffffffffffffffffffffffffffffffffffff1673ffffffffffffffffffffffffffffffffffffffff1681526020016002820160009054906101000a900473ffffffffffffffffffffffffffffffffffffffff1673ffffffffffffffffffffffffffffffffffffffff1673ffffffffffffffffffffffffffffffffffffffff1681526020016002820160149054906101000a900467ffffffffffffffff1667ffffffffffffffff1667ffffffffffffffff1681526020016003820160009054906101000a900467ffffffffffffffff1667ffffffffffffffff1667ffffffffffffffff16815260200160048201548152602001600582015481525050905060006105856121de565b90508073ffffffffffffffffffffffffffffffffffffffff16826020015173ffffffffffffffffffffffffffffffffffffffff16146105f9576040517f08c379a00000000000000000000000000000000000000000000000000000000081526004016105f090612d20565b60405180910390fd5b42826080015167ffffffffffffffff1611806106455750600073ffffffffffffffffffffffffffffffffffffffff16826040015173ffffffffffffffffffffffffffffffffffffffff16145b610684576040517f08c379a000000000000000000000000000000000000000000000000000000000815260040161067b90612d8c565b60405180910390fd5b600073ffffffffffffffffffffffffffffffffffffffff16826040015173ffffffffffffffffffffffffffffffffffffffff16146107545760006127106002548460c001516106d39190612ddb565b6106dd9190612e4c565b9050610710823083866000015173ffffffffffffffffffffffffffffffffffffffff166121e6909392919063ffffffff16565b6107528360400151828560c001516107289190612e7d565b856000015173ffffffffffffffffffffffffffffffffffffffff1661226f9092919063ffffffff16565b505b8473ffffffffffffffffffffffffffffffffffffffff166342842e0e308560010160009054906101000a900473ffffffffffffffffffffffffffffffffffffffff16876040518463ffffffff1660e01b81526004016107b593929190612eb1565b600060405180830381600087803b1580156107cf57600080fd5b505af11580156107e3573d6000803e3d6000fd5b505050506040518060e00160405280600073ffffffffffffffffffffffffffffffffffffffff168152602001600073ffffffffffffffffffffffffffffffffffffffff168152602001600073ffffffffffffffffffffffffffffffffffffffff168152602001600067ffffffffffffffff168152602001600067ffffffffffffffff168152602001600081526020016000815250600460008773ffffffffffffffffffffffffffffffffffffffff1673ffffffffffffffffffffffffffffffffffffffff168152602001908152602001600020600086815260200190815260200160002060008201518160000160006101000a81548173ffffffffffffffffffffffffffffffffffffffff021916908373ffffffffffffffffffffffffffffffffffffffff16021790555060208201518160010160006101000a81548173ffffffffffffffffffffffffffffffffffffffff021916908373ffffffffffffffffffffffffffffffffffffffff16021790555060408201518160020160006101000a81548173ffffffffffffffffffffffffffffffffffffffff021916908373ffffffffffffffffffffffffffffffffffffffff16021790555060608201518160020160146101000a81548167ffffffffffffffff021916908367ffffffffffffffff16021790555060808201518160030160006101000a81548167ffffffffffffffff021916908367ffffffffffffffff16021790555060a0820151816004015560c082015181600501559050507f468247c66ec6048176891c72095ac3b08c7db8d9a276f707e7c5d96741421eba8585604051610a42929190612ee8565b60405180910390a15050505050565b610a596122f5565b6000610a636121de565b90506000600460008973ffffffffffffffffffffffffffffffffffffffff1673ffffffffffffffffffffffffffffffffffffffff16815260200190815260200160002060008881526020019081526020016000206040518060e00160405290816000820160009054906101000a900473ffffffffffffffffffffffffffffffffffffffff1673ffffffffffffffffffffffffffffffffffffffff1673ffffffffffffffffffffffffffffffffffffffff1681526020016001820160009054906101000a900473ffffffffffffffffffffffffffffffffffffffff1673ffffffffffffffffffffffffffffffffffffffff1673ffffffffffffffffffffffffffffffffffffffff1681526020016002820160009054906101000a900473ffffffffffffffffffffffffffffffffffffffff1673ffffffffffffffffffffffffffffffffffffffff1673ffffffffffffffffffffffffffffffffffffffff1681526020016002820160149054906101000a900467ffffffffffffffff1667ffffffffffffffff1667ffffffffffffffff1681526020016003820160009054906101000a900467ffffffffffffffff1667ffffffffffffffff1667ffffffffffffffff168152602001600482015481526020016005820154815250509050600360008573ffffffffffffffffffffffffffffffffffffffff1673ffffffffffffffffffffffffffffffffffffffff16815260200190815260200160002060009054906101000a900460ff16610cca576040517f08c379a0000000000000000000000000000000000000000000000000000000008152600401610cc190612f5d565b60405180910390fd5b42816080015167ffffffffffffffff16108015610d175750600073ffffffffffffffffffffffffffffffffffffffff16816040015173ffffffffffffffffffffffffffffffffffffffff16145b610d56576040517f08c379a0000000000000000000000000000000000000000000000000000000008152600401610d4d90612fc9565b60405180910390fd5b8773ffffffffffffffffffffffffffffffffffffffff166342842e0e83308a6040518463ffffffff1660e01b8152600401610d9393929190612eb1565b600060405180830381600087803b158015610dad57600080fd5b505af1158015610dc1573d6000803e3d6000fd5b505050506040518060e001604052808573ffffffffffffffffffffffffffffffffffffffff1681526020018373ffffffffffffffffffffffffffffffffffffffff168152602001600073ffffffffffffffffffffffffffffffffffffffff1681526020018767ffffffffffffffff1681526020018667ffffffffffffffff16815260200184815260200184815250600460008a73ffffffffffffffffffffffffffffffffffffffff1673ffffffffffffffffffffffffffffffffffffffff168152602001908152602001600020600089815260200190815260200160002060008201518160000160006101000a81548173ffffffffffffffffffffffffffffffffffffffff021916908373ffffffffffffffffffffffffffffffffffffffff16021790555060208201518160010160006101000a81548173ffffffffffffffffffffffffffffffffffffffff021916908373ffffffffffffffffffffffffffffffffffffffff16021790555060408201518160020160006101000a81548173ffffffffffffffffffffffffffffffffffffffff021916908373ffffffffffffffffffffffffffffffffffffffff16021790555060608201518160020160146101000a81548167ffffffffffffffff021916908367ffffffffffffffff16021790555060808201518160030160006101000a81548167ffffffffffffffff021916908367ffffffffffffffff16021790555060a0820151816004015560c082015181600501559050507f6d85d929dfb61edae3e0e0a2f04320febb16db231a698ccb5628fa56e7669b89888888888689896040516110249796959493929190612fe9565b60405180910390a15050505050505050565b61271081565b6004602052816000526040600020602052806000526040600020600091509150508060000160009054906101000a900473ffffffffffffffffffffffffffffffffffffffff16908060010160009054906101000a900473ffffffffffffffffffffffffffffffffffffffff16908060020160009054906101000a900473ffffffffffffffffffffffffffffffffffffffff16908060020160149054906101000a900467ffffffffffffffff16908060030160009054906101000a900467ffffffffffffffff16908060040154908060050154905087565b7f000000000000000000000000000000000000000000000000000000000000000073ffffffffffffffffffffffffffffffffffffffff166313aeefdc6111576121de565b6040518263ffffffff1660e01b81526004016111739190612b83565b60006040518083038186803b15801561118b57600080fd5b505afa15801561119f573d6000803e3d6000fd5b505050506111ab61233f565b565b7f000000000000000000000000000000000000000000000000000000000000000073ffffffffffffffffffffffffffffffffffffffff166313aeefdc6111f16121de565b6040518263ffffffff1660e01b815260040161120d9190612b83565b60006040518083038186803b15801561122557600080fd5b505afa158015611239573d6000803e3d6000fd5b505050506001600360008373ffffffffffffffffffffffffffffffffffffffff1673ffffffffffffffffffffffffffffffffffffffff16815260200190815260200160002060006101000a81548160ff0219169083151502179055507fabd921fd2bb1a43eadbd2a65eaa593eee8b55a5c43b0f663f262f329072afa80816040516112c49190612b83565b60405180910390a150565b60008060009054906101000a900460ff16905090565b7f000000000000000000000000000000000000000000000000000000000000000081565b6113116122f5565b6000600460008673ffffffffffffffffffffffffffffffffffffffff1673ffffffffffffffffffffffffffffffffffffffff168152602001908152602001600020600085815260200190815260200160002090506000816040518060e00160405290816000820160009054906101000a900473ffffffffffffffffffffffffffffffffffffffff1673ffffffffffffffffffffffffffffffffffffffff1673ffffffffffffffffffffffffffffffffffffffff1681526020016001820160009054906101000a900473ffffffffffffffffffffffffffffffffffffffff1673ffffffffffffffffffffffffffffffffffffffff1673ffffffffffffffffffffffffffffffffffffffff1681526020016002820160009054906101000a900473ffffffffffffffffffffffffffffffffffffffff1673ffffffffffffffffffffffffffffffffffffffff1673ffffffffffffffffffffffffffffffffffffffff1681526020016002820160149054906101000a900467ffffffffffffffff1667ffffffffffffffff1667ffffffffffffffff1681526020016003820160009054906101000a900467ffffffffffffffff1667ffffffffffffffff1667ffffffffffffffff16815260200160048201548152602001600582015481525050905042816080015167ffffffffffffffff161161153f576040517f08c379a000000000000000000000000000000000000000000000000000000000815260040161153690612d8c565b60405180910390fd5b828160c0015110611585576040517f08c379a000000000000000000000000000000000000000000000000000000000815260040161157c906130a4565b60405180910390fd5b8373ffffffffffffffffffffffffffffffffffffffff16816000015173ffffffffffffffffffffffffffffffffffffffff16146115f7576040517f08c379a00000000000000000000000000000000000000000000000000000000081526004016115ee90612f5d565b60405180910390fd5b60006116016121de565b90506116308130868873ffffffffffffffffffffffffffffffffffffffff166121e6909392919063ffffffff16565b600073ffffffffffffffffffffffffffffffffffffffff16826040015173ffffffffffffffffffffffffffffffffffffffff161461169c5761169b82604001518360c001518773ffffffffffffffffffffffffffffffffffffffff1661226f9092919063ffffffff16565b5b838360050181905550808360020160006101000a81548173ffffffffffffffffffffffffffffffffffffffff021916908373ffffffffffffffffffffffffffffffffffffffff1602179055507f49c76e31bade5ee3c2a3720a934258564f1fe5a09cf94effdbb1d243e9884d7a878787878560405161171f9594939291906130c4565b60405180910390a150505050505050565b7f000000000000000000000000000000000000000000000000000000000000000073ffffffffffffffffffffffffffffffffffffffff166313aeefdc6117746121de565b6040518263ffffffff1660e01b81526004016117909190612b83565b60006040518083038186803b1580156117a857600080fd5b505afa1580156117bc573d6000803e3d6000fd5b505050506117c86123a1565b565b60036020528060005260406000206000915054906101000a900460ff1681565b60025481565b60015481565b612710811061183a576040517f08c379a000000000000000000000000000000000000000000000000000000000815260040161183190613163565b60405180910390fd5b7f000000000000000000000000000000000000000000000000000000000000000073ffffffffffffffffffffffffffffffffffffffff16635139caa7336040518263ffffffff1660e01b81526004016118939190612b83565b60006040518083038186803b1580156118ab57600080fd5b505afa1580156118bf573d6000803e3d6000fd5b505050507fa46f283fd5cec677c7c8683fc8a9c2e8ab37f28865f933c69f342298e2d7d916600254826040516118f6929190613183565b60405180910390a18060028190555050565b6000600460008573ffffffffffffffffffffffffffffffffffffffff1673ffffffffffffffffffffffffffffffffffffffff16815260200190815260200160002060008481526020019081526020016000206040518060e00160405290816000820160009054906101000a900473ffffffffffffffffffffffffffffffffffffffff1673ffffffffffffffffffffffffffffffffffffffff1673ffffffffffffffffffffffffffffffffffffffff1681526020016001820160009054906101000a900473ffffffffffffffffffffffffffffffffffffffff1673ffffffffffffffffffffffffffffffffffffffff1673ffffffffffffffffffffffffffffffffffffffff1681526020016002820160009054906101000a900473ffffffffffffffffffffffffffffffffffffffff1673ffffffffffffffffffffffffffffffffffffffff1673ffffffffffffffffffffffffffffffffffffffff1681526020016002820160149054906101000a900467ffffffffffffffff1667ffffffffffffffff1667ffffffffffffffff1681526020016003820160009054906101000a900467ffffffffffffffff1667ffffffffffffffff1667ffffffffffffffff16815260200160048201548152602001600582015481525050905042816080015167ffffffffffffffff1610611b31576040517f08c379a0000000000000000000000000000000000000000000000000000000008152600401611b2890612fc9565b60405180910390fd5b611b396121de565b73ffffffffffffffffffffffffffffffffffffffff16816040015173ffffffffffffffffffffffffffffffffffffffff1614611baa576040517f08c379a0000000000000000000000000000000000000000000000000000000008152600401611ba1906131f8565b60405180910390fd5b60006127106001548360c00151611bc19190612ddb565b611bcb9190612e4c565b9050611c0f8260200151828460c00151611be59190613218565b846000015173ffffffffffffffffffffffffffffffffffffffff1661226f9092919063ffffffff16565b611c5e7f000000000000000000000000000000000000000000000000000000000000000082846000015173ffffffffffffffffffffffffffffffffffffffff1661226f9092919063ffffffff16565b8473ffffffffffffffffffffffffffffffffffffffff166342842e0e3085876040518463ffffffff1660e01b8152600401611c9b93929190612eb1565b600060405180830381600087803b158015611cb557600080fd5b505af1158015611cc9573d6000803e3d6000fd5b505050506040518060e00160405280600073ffffffffffffffffffffffffffffffffffffffff168152602001600073ffffffffffffffffffffffffffffffffffffffff168152602001600073ffffffffffffffffffffffffffffffffffffffff168152602001600067ffffffffffffffff168152602001600067ffffffffffffffff168152602001600081526020016000815250600460008773ffffffffffffffffffffffffffffffffffffffff1673ffffffffffffffffffffffffffffffffffffffff168152602001908152602001600020600086815260200190815260200160002060008201518160000160006101000a81548173ffffffffffffffffffffffffffffffffffffffff021916908373ffffffffffffffffffffffffffffffffffffffff16021790555060208201518160010160006101000a81548173ffffffffffffffffffffffffffffffffffffffff021916908373ffffffffffffffffffffffffffffffffffffffff16021790555060408201518160020160006101000a81548173ffffffffffffffffffffffffffffffffffffffff021916908373ffffffffffffffffffffffffffffffffffffffff16021790555060608201518160020160146101000a81548167ffffffffffffffff021916908367ffffffffffffffff16021790555060808201518160030160006101000a81548167ffffffffffffffff021916908367ffffffffffffffff16021790555060a0820151816004015560c082015181600501559050507fa4bacadf112706c68a086699255ccfd2406a48bb5881a60491b8083d67293b9d858585604051611f2a9392919061324c565b60405180910390a15050505050565b600360008273ffffffffffffffffffffffffffffffffffffffff1673ffffffffffffffffffffffffffffffffffffffff16815260200190815260200160002060009054906101000a900460ff1615611fc6576040517f08c379a0000000000000000000000000000000000000000000000000000000008152600401611fbd906132cf565b60405180910390fd5b60008173ffffffffffffffffffffffffffffffffffffffff166370a08231306040518263ffffffff1660e01b81526004016120019190612b83565b602060405180830381865afa15801561201e573d6000803e3d6000fd5b505050506040513d601f19601f820116820180604052508101906120429190613304565b905061208f7f0000000000000000000000000000000000000000000000000000000000000000828473ffffffffffffffffffffffffffffffffffffffff1661226f9092919063ffffffff16565b7f89452ef30538a3560e3d4a2e4b57f7c7796bb0f083e15e5632ddb872ff5b313b82826040516120c0929190612ee8565b60405180910390a15050565b6127108110612110576040517f08c379a000000000000000000000000000000000000000000000000000000000815260040161210790613163565b60405180910390fd5b7f000000000000000000000000000000000000000000000000000000000000000073ffffffffffffffffffffffffffffffffffffffff16635139caa7336040518263ffffffff1660e01b81526004016121699190612b83565b60006040518083038186803b15801561218157600080fd5b505afa158015612195573d6000803e3d6000fd5b505050507ff4ea7f1e943b7d8cdc29a72b01a525960d34f8ff2e34e823d9ca29cbd3cefba2600154826040516121cc929190613183565b60405180910390a18060018190555050565b600033905090565b612269846323b872dd60e01b85858560405160240161220793929190612eb1565b604051602081830303815290604052907bffffffffffffffffffffffffffffffffffffffffffffffffffffffff19166020820180517bffffffffffffffffffffffffffffffffffffffffffffffffffffffff8381831617835250505050612403565b50505050565b6122f08363a9059cbb60e01b848460405160240161228e929190612ee8565b604051602081830303815290604052907bffffffffffffffffffffffffffffffffffffffffffffffffffffffff19166020820180517bffffffffffffffffffffffffffffffffffffffffffffffffffffffff8381831617835250505050612403565b505050565b6122fd6112cf565b1561233d576040517f08c379a00000000000000000000000000000000000000000000000000000000081526004016123349061337d565b60405180910390fd5b565b6123476124ca565b60008060006101000a81548160ff0219169083151502179055507f5db9ee0a495bf2e6ff9c91a7834c1ba4fdd244a5e8aa4e537bd38aeae4b073aa61238a6121de565b6040516123979190612b83565b60405180910390a1565b6123a96122f5565b60016000806101000a81548160ff0219169083151502179055507f62e78cea01bee320cd4e420270b5ea74000d11b0c9f74754ebdbfc544b05a2586123ec6121de565b6040516123f99190612b83565b60405180910390a1565b6000612465826040518060400160405280602081526020017f5361666545524332303a206c6f772d6c6576656c2063616c6c206661696c65648152508573ffffffffffffffffffffffffffffffffffffffff166125139092919063ffffffff16565b90506000815111156124c5578080602001905181019061248591906133c9565b6124c4576040517f08c379a00000000000000000000000000000000000000000000000000000000081526004016124bb90613468565b60405180910390fd5b5b505050565b6124d26112cf565b612511576040517f08c379a0000000000000000000000000000000000000000000000000000000008152600401612508906134d4565b60405180910390fd5b565b6060612522848460008561252b565b90509392505050565b606082471015612570576040517f08c379a000000000000000000000000000000000000000000000000000000000815260040161256790613566565b60405180910390fd5b6000808673ffffffffffffffffffffffffffffffffffffffff16858760405161259991906135f7565b60006040518083038185875af1925050503d80600081146125d6576040519150601f19603f3d011682016040523d82523d6000602084013e6125db565b606091505b50915091506125ec878383876125f8565b92505050949350505050565b6060831561265a576000835103612652576126128561266d565b612651576040517f08c379a00000000000000000000000000000000000000000000000000000000081526004016126489061365a565b60405180910390fd5b5b829050612665565b6126648383612690565b5b949350505050565b6000808273ffffffffffffffffffffffffffffffffffffffff163b119050919050565b6000825111156126a35781518083602001fd5b806040517f08c379a00000000000000000000000000000000000000000000000000000000081526004016126d791906136cf565b60405180910390fd5b600073ffffffffffffffffffffffffffffffffffffffff82169050919050565b6000819050919050565b600061272561272061271b846126e0565b612700565b6126e0565b9050919050565b60006127378261270a565b9050919050565b60006127498261272c565b9050919050565b6127598161273e565b82525050565b60006020820190506127746000830184612750565b92915050565b600080fd5b600080fd5b600061278f826126e0565b9050919050565b61279f81612784565b81146127aa57600080fd5b50565b6000813590506127bc81612796565b92915050565b6000819050919050565b6127d5816127c2565b81146127e057600080fd5b50565b6000813590506127f2816127cc565b92915050565b600080fd5b600080fd5b600080fd5b60008083601f84011261281d5761281c6127f8565b5b8235905067ffffffffffffffff81111561283a576128396127fd565b5b60208301915083600182028301111561285657612855612802565b5b9250929050565b6000806000806000608086880312156128795761287861277a565b5b6000612887888289016127ad565b9550506020612898888289016127ad565b94505060406128a9888289016127e3565b935050606086013567ffffffffffffffff8111156128ca576128c961277f565b5b6128d688828901612807565b92509250509295509295909350565b60007fffffffff0000000000000000000000000000000000000000000000000000000082169050919050565b61291a816128e5565b82525050565b60006020820190506129356000830184612911565b92915050565b600080604083850312156129525761295161277a565b5b6000612960858286016127ad565b9250506020612971858286016127e3565b9150509250929050565b600067ffffffffffffffff82169050919050565b6129988161297b565b81146129a357600080fd5b50565b6000813590506129b58161298f565b92915050565b60008060008060008060c087890312156129d8576129d761277a565b5b60006129e689828a016127ad565b96505060206129f789828a016127e3565b9550506040612a0889828a016129a6565b9450506060612a1989828a016129a6565b9350506080612a2a89828a016127ad565b92505060a0612a3b89828a016127e3565b9150509295509295509295565b612a51816127c2565b82525050565b6000602082019050612a6c6000830184612a48565b92915050565b6000612a7d8261272c565b9050919050565b612a8d81612a72565b82525050565b612a9c81612784565b82525050565b612aab8161297b565b82525050565b600060e082019050612ac6600083018a612a84565b612ad36020830189612a93565b612ae06040830188612a93565b612aed6060830187612aa2565b612afa6080830186612aa2565b612b0760a0830185612a48565b612b1460c0830184612a48565b98975050505050505050565b600060208284031215612b3657612b3561277a565b5b6000612b44848285016127ad565b91505092915050565b60008115159050919050565b612b6281612b4d565b82525050565b6000602082019050612b7d6000830184612b59565b92915050565b6000602082019050612b986000830184612a93565b92915050565b6000612ba982612784565b9050919050565b612bb981612b9e565b8114612bc457600080fd5b50565b600081359050612bd681612bb0565b92915050565b60008060008060808587031215612bf657612bf561277a565b5b6000612c04878288016127ad565b9450506020612c15878288016127e3565b9350506040612c2687828801612bc7565b9250506060612c37878288016127e3565b91505092959194509250565b600060208284031215612c5957612c5861277a565b5b6000612c67848285016127e3565b91505092915050565b600080600060608486031215612c8957612c8861277a565b5b6000612c97868287016127ad565b9350506020612ca8868287016127e3565b9250506040612cb9868287016127ad565b9150509250925092565b600082825260208201905092915050565b7f46784d61726b6574706c6163653a20494e56414c49445f53454c4c4552000000600082015250565b6000612d0a601d83612cc3565b9150612d1582612cd4565b602082019050919050565b60006020820190508181036000830152612d3981612cfd565b9050919050565b7f46784d61726b6574706c6163653a2053414c455f454e44454400000000000000600082015250565b6000612d76601983612cc3565b9150612d8182612d40565b602082019050919050565b60006020820190508181036000830152612da581612d69565b9050919050565b7f4e487b7100000000000000000000000000000000000000000000000000000000600052601160045260246000fd5b6000612de6826127c2565b9150612df1836127c2565b9250828202612dff816127c2565b91508282048414831517612e1657612e15612dac565b5b5092915050565b7f4e487b7100000000000000000000000000000000000000000000000000000000600052601260045260246000fd5b6000612e57826127c2565b9150612e62836127c2565b925082612e7257612e71612e1d565b5b828204905092915050565b6000612e88826127c2565b9150612e93836127c2565b9250828201905080821115612eab57612eaa612dac565b5b92915050565b6000606082019050612ec66000830186612a93565b612ed36020830185612a93565b612ee06040830184612a48565b949350505050565b6000604082019050612efd6000830185612a93565b612f0a6020830184612a48565b9392505050565b7f46784d61726b6574706c6163653a20554e41434345505445445f544f4b454e00600082015250565b6000612f47601f83612cc3565b9150612f5282612f11565b602082019050919050565b60006020820190508181036000830152612f7681612f3a565b9050919050565b7f46784d61726b6574706c6163653a204954454d5f4c495354494e470000000000600082015250565b6000612fb3601b83612cc3565b9150612fbe82612f7d565b602082019050919050565b60006020820190508181036000830152612fe281612fa6565b9050919050565b600060e082019050612ffe600083018a612a93565b61300b6020830189612a48565b6130186040830188612aa2565b6130256060830187612aa2565b6130326080830186612a93565b61303f60a0830185612a93565b61304c60c0830184612a48565b98975050505050505050565b7f46784d61726b6574706c6163653a204f464645525f544f4f5f4c4f5700000000600082015250565b600061308e601c83612cc3565b915061309982613058565b602082019050919050565b600060208201905081810360008301526130bd81613081565b9050919050565b600060a0820190506130d96000830188612a93565b6130e66020830187612a48565b6130f36040830186612a93565b6131006060830185612a48565b61310d6080830184612a93565b9695505050505050565b7f46784d61726b6574706c6163653a204645455f544f4f5f484947480000000000600082015250565b600061314d601b83612cc3565b915061315882613117565b602082019050919050565b6000602082019050818103600083015261317c81613140565b9050919050565b60006040820190506131986000830185612a48565b6131a56020830184612a48565b9392505050565b7f46784d61726b6574706c6163653a20494e56414c49445f505552434841534552600082015250565b60006131e2602083612cc3565b91506131ed826131ac565b602082019050919050565b60006020820190508181036000830152613211816131d5565b9050919050565b6000613223826127c2565b915061322e836127c2565b925082820390508181111561324657613245612dac565b5b92915050565b60006060820190506132616000830186612a93565b61326e6020830185612a48565b61327b6040830184612a93565b949350505050565b7f46784d61726b6574706c6163653a20535455434b5f544f4b454e5f4f4e4c5900600082015250565b60006132b9601f83612cc3565b91506132c482613283565b602082019050919050565b600060208201905081810360008301526132e8816132ac565b9050919050565b6000815190506132fe816127cc565b92915050565b60006020828403121561331a5761331961277a565b5b6000613328848285016132ef565b91505092915050565b7f5061757361626c653a2070617573656400000000000000000000000000000000600082015250565b6000613367601083612cc3565b915061337282613331565b602082019050919050565b600060208201905081810360008301526133968161335a565b9050919050565b6133a681612b4d565b81146133b157600080fd5b50565b6000815190506133c38161339d565b92915050565b6000602082840312156133df576133de61277a565b5b60006133ed848285016133b4565b91505092915050565b7f5361666545524332303a204552433230206f7065726174696f6e20646964206e60008201527f6f74207375636365656400000000000000000000000000000000000000000000602082015250565b6000613452602a83612cc3565b915061345d826133f6565b604082019050919050565b6000602082019050818103600083015261348181613445565b9050919050565b7f5061757361626c653a206e6f7420706175736564000000000000000000000000600082015250565b60006134be601483612cc3565b91506134c982613488565b602082019050919050565b600060208201905081810360008301526134ed816134b1565b9050919050565b7f416464726573733a20696e73756666696369656e742062616c616e636520666f60008201527f722063616c6c0000000000000000000000000000000000000000000000000000602082015250565b6000613550602683612cc3565b915061355b826134f4565b604082019050919050565b6000602082019050818103600083015261357f81613543565b9050919050565b600081519050919050565b600081905092915050565b60005b838110156135ba57808201518184015260208101905061359f565b60008484015250505050565b60006135d182613586565b6135db8185613591565b93506135eb81856020860161359c565b80840191505092915050565b600061360382846135c6565b915081905092915050565b7f416464726573733a2063616c6c20746f206e6f6e2d636f6e7472616374000000600082015250565b6000613644601d83612cc3565b915061364f8261360e565b602082019050919050565b6000602082019050818103600083015261367381613637565b9050919050565b600081519050919050565b6000601f19601f8301169050919050565b60006136a18261367a565b6136ab8185612cc3565b93506136bb81856020860161359c565b6136c481613685565b840191505092915050565b600060208201905081810360008301526136e98184613696565b90509291505056fea2646970667358221220c5654fb77f09988cdce50dcc5f109d0e654e1f15bdb8db1eaebf98a3bd1d27d464736f6c63430008110033",
  "immutableReferences": {
    "5088": [
      {
        "length": 32,
        "start": 870
      },
      {
        "length": 32,
        "start": 4373
      },
      {
        "length": 32,
        "start": 4527
      },
      {
        "length": 32,
        "start": 5938
      },
      {
        "length": 32,
        "start": 6204
      },
      {
        "length": 32,
        "start": 8466
      }
    ],
    "5090": [
      {
        "length": 32,
        "start": 4839
      },
      {
        "length": 32,
        "start": 7188
      },
      {
        "length": 32,
        "start": 8265
      }
    ]
  },
  "source": "// SPDX-License-Identifier: MIT\r\n// FxEthers Contracts (last updated v1.0)\r\n\r\npragma solidity 0.8.17;\r\n\r\nimport \"@openzeppelin/contracts/token/ERC721/IERC721.sol\";\r\nimport \"@openzeppelin/contracts/token/ERC721/IERC721Receiver.sol\";\r\nimport \"@openzeppelin/contracts/token/ERC20/IERC20.sol\";\r\nimport \"@openzeppelin/contracts/token/ERC20/utils/SafeERC20.sol\";\r\nimport \"@openzeppelin/contracts/security/Pausable.sol\";\r\nimport \"../access/ControlTower.sol\";\r\n\r\ncontract FxMarketplace is Pausable {\r\n    using SafeERC20 for IERC20;\r\n\r\n    struct ListedItem {\r\n        IERC20 paymentToken;\r\n        address seller;\r\n        address bidder;\r\n        uint64 startTime;\r\n        uint64 endTime;\r\n        uint startPrice;\r\n        uint currentPrice;\r\n    }\r\n\r\n    enum ItemState {\r\n        Created,\r\n        Sold,\r\n        Delivered,\r\n        Cancelled\r\n    }\r\n\r\n    ControlTower public immutable controlTower;\r\n    address public immutable treasury;\r\n    uint public constant PERCENTAGE = 10000; // x100 percent precision\r\n    uint public serviceFeePercent;\r\n    uint public reimbursementFeePercent;\r\n\r\n    mapping(address => bool) public isPaymentToken;\r\n    mapping(address => mapping(uint => ListedItem)) public listed;\r\n\r\n    event AddPaymentToken(address token);\r\n    event CancelListed(address nft, uint nftId);\r\n    event ListForSale(\r\n        address nft,\r\n        uint nftId,\r\n        uint64 startTime,\r\n        uint64 endTime,\r\n        address seller,\r\n        address paymentToken,\r\n        uint startPrice\r\n    );\r\n    event MakeAnOffer(\r\n        address nft,\r\n        uint nftId,\r\n        address paymentToken,\r\n        uint amountOffer,\r\n        address from\r\n    );\r\n    event ReimbursementFeeChange(uint oldFee, uint newFee);\r\n    event RescuesTokenStuck(address token, uint256 amount);\r\n    event ServiceFeePercentChange(uint oldFee, uint newFee);\r\n    event TakeOwnItem(address nft, uint nftId, address to);\r\n\r\n    constructor(ControlTower _controlTower, address _treasury) {\r\n        controlTower = _controlTower;\r\n        treasury = _treasury;\r\n        serviceFeePercent = 5; // 0.05%\r\n        reimbursementFeePercent = 500; // 5.00%\r\n    }\r\n\r\n    function listForSale(\r\n        address nft,\r\n        uint nftId,\r\n        uint64 startTime,\r\n        uint64 endTime,\r\n        address paymentToken,\r\n        uint startPrice\r\n    ) external whenNotPaused {\r\n        address msgSender = _msgSender();\r\n        ListedItem memory _listedItem = listed[nft][nftId];\r\n\r\n        require(\r\n            isPaymentToken[paymentToken],\r\n            \"FxMarketplace: UNACCEPTED_TOKEN\"\r\n        );\r\n        require(\r\n            _listedItem.endTime < block.timestamp &&\r\n                _listedItem.bidder == address(0),\r\n            \"FxMarketplace: ITEM_LISTING\"\r\n        );\r\n\r\n        IERC721(nft).safeTransferFrom(msgSender, address(this), nftId);\r\n\r\n        listed[nft][nftId] = ListedItem(\r\n            IERC20(paymentToken),\r\n            msgSender,\r\n            address(0),\r\n            startTime,\r\n            endTime,\r\n            startPrice,\r\n            startPrice // currentPrice\r\n        );\r\n\r\n        emit ListForSale(\r\n            nft,\r\n            nftId,\r\n            startTime,\r\n            endTime,\r\n            msgSender,\r\n            paymentToken,\r\n            startPrice\r\n        );\r\n    }\r\n\r\n    function makeAnOffer(\r\n        address nft,\r\n        uint nftId,\r\n        IERC20 paymentToken,\r\n        uint amountOffer\r\n    ) external whenNotPaused {\r\n        ListedItem storage listedItem = listed[nft][nftId];\r\n        ListedItem memory _listedItem = listedItem;\r\n        require(\r\n            _listedItem.endTime > block.timestamp,\r\n            \"FxMarketplace: SALE_ENDED\"\r\n        );\r\n        require(\r\n            _listedItem.currentPrice < amountOffer,\r\n            \"FxMarketplace: OFFER_TOO_LOW\"\r\n        );\r\n        require(\r\n            _listedItem.paymentToken == paymentToken,\r\n            \"FxMarketplace: UNACCEPTED_TOKEN\"\r\n        );\r\n\r\n        address msgSender = _msgSender();\r\n        paymentToken.safeTransferFrom(msgSender, address(this), amountOffer);\r\n\r\n        if (_listedItem.bidder != address(0)) {\r\n            paymentToken.safeTransfer(\r\n                _listedItem.bidder,\r\n                _listedItem.currentPrice\r\n            );\r\n        }\r\n\r\n        listedItem.currentPrice = amountOffer;\r\n        listedItem.bidder = msgSender;\r\n\r\n        emit MakeAnOffer(\r\n            nft,\r\n            nftId,\r\n            address(paymentToken),\r\n            amountOffer,\r\n            msgSender\r\n        );\r\n    }\r\n\r\n    function takeOwnItem(address nft, uint nftId, address to) external {\r\n        ListedItem memory listedItem = listed[nft][nftId];\r\n        require(\r\n            listedItem.endTime < block.timestamp,\r\n            \"FxMarketplace: ITEM_LISTING\"\r\n        );\r\n        require(\r\n            listedItem.bidder == _msgSender(),\r\n            \"FxMarketplace: INVALID_PURCHASER\"\r\n        );\r\n\r\n        uint serviceFee = (listedItem.currentPrice * serviceFeePercent) /\r\n            PERCENTAGE;\r\n        listedItem.paymentToken.safeTransfer(\r\n            listedItem.seller,\r\n            listedItem.currentPrice - serviceFee\r\n        );\r\n\r\n        listedItem.paymentToken.safeTransfer(treasury, serviceFee);\r\n\r\n        IERC721(nft).safeTransferFrom(address(this), to, nftId);\r\n\r\n        listed[nft][nftId] = ListedItem(\r\n            IERC20(address(0)),\r\n            address(0),\r\n            address(0),\r\n            0,\r\n            0,\r\n            0,\r\n            0\r\n        );\r\n\r\n        emit TakeOwnItem(nft, nftId, to);\r\n    }\r\n\r\n    function cancelListed(address nft, uint nftId) external {\r\n        ListedItem storage listedItem = listed[nft][nftId];\r\n        ListedItem memory _listedItem = listedItem;\r\n        address sender = _msgSender();\r\n        require(_listedItem.seller == sender, \"FxMarketplace: INVALID_SELLER\");\r\n        require(\r\n            _listedItem.endTime > block.timestamp ||\r\n                _listedItem.bidder == address(0),\r\n            \"FxMarketplace: SALE_ENDED\"\r\n        );\r\n\r\n        if (_listedItem.bidder != address(0)) {\r\n            uint reimbursementFee = (_listedItem.currentPrice *\r\n                reimbursementFeePercent) / PERCENTAGE;\r\n            _listedItem.paymentToken.safeTransferFrom(\r\n                sender,\r\n                address(this),\r\n                reimbursementFee\r\n            );\r\n            _listedItem.paymentToken.safeTransfer(\r\n                _listedItem.bidder,\r\n                _listedItem.currentPrice + reimbursementFee\r\n            );\r\n        }\r\n\r\n        IERC721(nft).safeTransferFrom(address(this), listedItem.seller, nftId);\r\n\r\n        listed[nft][nftId] = ListedItem(\r\n            IERC20(address(0)),\r\n            address(0),\r\n            address(0),\r\n            0,\r\n            0,\r\n            0,\r\n            0\r\n        );\r\n        emit CancelListed(nft, nftId);\r\n    }\r\n\r\n    function setServiceFeePercent(uint percent) external {\r\n        require(percent < PERCENTAGE, \"FxMarketplace: FEE_TOO_HIGH\");\r\n        controlTower.onlyTreasurer(msg.sender);\r\n        emit ServiceFeePercentChange(serviceFeePercent, percent);\r\n        serviceFeePercent = percent;\r\n    }\r\n\r\n    function setReimbursementFeePercent(uint percent) external {\r\n        require(percent < PERCENTAGE, \"FxMarketplace: FEE_TOO_HIGH\");\r\n        controlTower.onlyTreasurer(msg.sender);\r\n        emit ReimbursementFeeChange(reimbursementFeePercent, percent);\r\n        reimbursementFeePercent = percent;\r\n    }\r\n\r\n    function addPaymentToken(address _token) external {\r\n        controlTower.onlyModerator(_msgSender());\r\n        isPaymentToken[_token] = true;\r\n        emit AddPaymentToken(_token);\r\n    }\r\n\r\n    function pause() public {\r\n        controlTower.onlyModerator(_msgSender());\r\n        _pause();\r\n    }\r\n\r\n    function unpause() external {\r\n        controlTower.onlyModerator(_msgSender());\r\n        _unpause();\r\n    }\r\n\r\n    /**\r\n     * @dev Rescues random funds stuck that the strat can't handle.\r\n     * @param _token address of the token to rescue.\r\n     */\r\n    function inCaseTokensGetStuck(address _token) external {\r\n        require(!isPaymentToken[_token], \"FxMarketplace: STUCK_TOKEN_ONLY\");\r\n        uint256 amount = IERC20(_token).balanceOf(address(this));\r\n        IERC20(_token).safeTransfer(treasury, amount);\r\n        emit RescuesTokenStuck(_token, amount);\r\n    }\r\n\r\n    // Confirmation required for receiving ERC721 to smart contract\r\n    function onERC721Received(\r\n        address,\r\n        address,\r\n        uint256,\r\n        bytes calldata\r\n    ) external pure returns (bytes4) {\r\n        return IERC721Receiver.onERC721Received.selector;\r\n    }\r\n}\r\n",
  "sourcePath": "/media/luc/Fdata/fxethers/truffle/contracts/marketplace/FxMarketplace.sol",
  "compiler": {
    "name": "solc",
    "version": "0.8.17+commit.8df45f5f.Emscripten.clang"
  },
  "schemaVersion": "3.4.10",
  "updatedAt": "2023-02-03T17:23:18.640Z",
  "networkType": "ethereum",
  "devdoc": {
    "kind": "dev",
    "methods": {
      "inCaseTokensGetStuck(address)": {
        "details": "Rescues random funds stuck that the strat can't handle.",
        "params": {
          "_token": "address of the token to rescue."
        }
      },
      "paused()": {
        "details": "Returns true if the contract is paused, and false otherwise."
      }
    },
    "version": 1
  },
  "userdoc": {
    "kind": "user",
    "methods": {},
    "version": 1
  }
}