{
  "contractName": "FxNFT",
  "abi": [
    {
      "inputs": [
        {
          "internalType": "contract ControlTower",
          "name": "_controlTower",
          "type": "address"
        },
        {
          "internalType": "address payable",
          "name": "_treasury",
          "type": "address"
        },
        {
          "internalType": "string",
          "name": "_tokenBaseURI",
          "type": "string"
        }
      ],
      "stateMutability": "nonpayable",
      "type": "constructor"
    },
    {
      "anonymous": false,
      "inputs": [
        {
          "indexed": true,
          "internalType": "address",
          "name": "owner",
          "type": "address"
        },
        {
          "indexed": true,
          "internalType": "address",
          "name": "approved",
          "type": "address"
        },
        {
          "indexed": true,
          "internalType": "uint256",
          "name": "tokenId",
          "type": "uint256"
        }
      ],
      "name": "Approval",
      "type": "event"
    },
    {
      "anonymous": false,
      "inputs": [
        {
          "indexed": true,
          "internalType": "address",
          "name": "owner",
          "type": "address"
        },
        {
          "indexed": true,
          "internalType": "address",
          "name": "operator",
          "type": "address"
        },
        {
          "indexed": false,
          "internalType": "bool",
          "name": "approved",
          "type": "bool"
        }
      ],
      "name": "ApprovalForAll",
      "type": "event"
    },
    {
      "anonymous": false,
      "inputs": [
        {
          "indexed": false,
          "internalType": "string",
          "name": "oldBaseURI",
          "type": "string"
        },
        {
          "indexed": false,
          "internalType": "string",
          "name": "newBaseURI",
          "type": "string"
        }
      ],
      "name": "BaseURIChange",
      "type": "event"
    },
    {
      "anonymous": false,
      "inputs": [
        {
          "indexed": false,
          "internalType": "address",
          "name": "token",
          "type": "address"
        },
        {
          "indexed": false,
          "internalType": "uint256",
          "name": "amount",
          "type": "uint256"
        }
      ],
      "name": "RescuesTokenStuck",
      "type": "event"
    },
    {
      "anonymous": false,
      "inputs": [
        {
          "indexed": false,
          "internalType": "uint256",
          "name": "oldServiceFee",
          "type": "uint256"
        },
        {
          "indexed": false,
          "internalType": "uint256",
          "name": "newServiceFee",
          "type": "uint256"
        }
      ],
      "name": "ServiceFeeChange",
      "type": "event"
    },
    {
      "anonymous": false,
      "inputs": [
        {
          "indexed": true,
          "internalType": "address",
          "name": "from",
          "type": "address"
        },
        {
          "indexed": true,
          "internalType": "address",
          "name": "to",
          "type": "address"
        },
        {
          "indexed": true,
          "internalType": "uint256",
          "name": "tokenId",
          "type": "uint256"
        }
      ],
      "name": "Transfer",
      "type": "event"
    },
    {
      "inputs": [
        {
          "internalType": "address",
          "name": "to",
          "type": "address"
        },
        {
          "internalType": "uint256",
          "name": "tokenId",
          "type": "uint256"
        }
      ],
      "name": "approve",
      "outputs": [],
      "stateMutability": "nonpayable",
      "type": "function"
    },
    {
      "inputs": [
        {
          "internalType": "address",
          "name": "owner",
          "type": "address"
        }
      ],
      "name": "balanceOf",
      "outputs": [
        {
          "internalType": "uint256",
          "name": "",
          "type": "uint256"
        }
      ],
      "stateMutability": "view",
      "type": "function",
      "constant": true
    },
    {
      "inputs": [],
      "name": "controlTower",
      "outputs": [
        {
          "internalType": "contract ControlTower",
          "name": "",
          "type": "address"
        }
      ],
      "stateMutability": "view",
      "type": "function",
      "constant": true
    },
    {
      "inputs": [
        {
          "internalType": "uint256",
          "name": "tokenId",
          "type": "uint256"
        }
      ],
      "name": "getApproved",
      "outputs": [
        {
          "internalType": "address",
          "name": "",
          "type": "address"
        }
      ],
      "stateMutability": "view",
      "type": "function",
      "constant": true
    },
    {
      "inputs": [
        {
          "internalType": "uint256",
          "name": "",
          "type": "uint256"
        }
      ],
      "name": "hashedMetadata",
      "outputs": [
        {
          "internalType": "bytes",
          "name": "",
          "type": "bytes"
        }
      ],
      "stateMutability": "view",
      "type": "function",
      "constant": true
    },
    {
      "inputs": [
        {
          "internalType": "address",
          "name": "owner",
          "type": "address"
        },
        {
          "internalType": "address",
          "name": "operator",
          "type": "address"
        }
      ],
      "name": "isApprovedForAll",
      "outputs": [
        {
          "internalType": "bool",
          "name": "",
          "type": "bool"
        }
      ],
      "stateMutability": "view",
      "type": "function",
      "constant": true
    },
    {
      "inputs": [],
      "name": "name",
      "outputs": [
        {
          "internalType": "string",
          "name": "",
          "type": "string"
        }
      ],
      "stateMutability": "view",
      "type": "function",
      "constant": true
    },
    {
      "inputs": [
        {
          "internalType": "uint256",
          "name": "tokenId",
          "type": "uint256"
        }
      ],
      "name": "ownerOf",
      "outputs": [
        {
          "internalType": "address",
          "name": "",
          "type": "address"
        }
      ],
      "stateMutability": "view",
      "type": "function",
      "constant": true
    },
    {
      "inputs": [
        {
          "internalType": "address",
          "name": "from",
          "type": "address"
        },
        {
          "internalType": "address",
          "name": "to",
          "type": "address"
        },
        {
          "internalType": "uint256",
          "name": "tokenId",
          "type": "uint256"
        }
      ],
      "name": "safeTransferFrom",
      "outputs": [],
      "stateMutability": "nonpayable",
      "type": "function"
    },
    {
      "inputs": [
        {
          "internalType": "address",
          "name": "from",
          "type": "address"
        },
        {
          "internalType": "address",
          "name": "to",
          "type": "address"
        },
        {
          "internalType": "uint256",
          "name": "tokenId",
          "type": "uint256"
        },
        {
          "internalType": "bytes",
          "name": "data",
          "type": "bytes"
        }
      ],
      "name": "safeTransferFrom",
      "outputs": [],
      "stateMutability": "nonpayable",
      "type": "function"
    },
    {
      "inputs": [],
      "name": "serviceFee",
      "outputs": [
        {
          "internalType": "uint256",
          "name": "",
          "type": "uint256"
        }
      ],
      "stateMutability": "view",
      "type": "function",
      "constant": true
    },
    {
      "inputs": [
        {
          "internalType": "address",
          "name": "operator",
          "type": "address"
        },
        {
          "internalType": "bool",
          "name": "approved",
          "type": "bool"
        }
      ],
      "name": "setApprovalForAll",
      "outputs": [],
      "stateMutability": "nonpayable",
      "type": "function"
    },
    {
      "inputs": [
        {
          "internalType": "bytes4",
          "name": "interfaceId",
          "type": "bytes4"
        }
      ],
      "name": "supportsInterface",
      "outputs": [
        {
          "internalType": "bool",
          "name": "",
          "type": "bool"
        }
      ],
      "stateMutability": "view",
      "type": "function",
      "constant": true
    },
    {
      "inputs": [],
      "name": "symbol",
      "outputs": [
        {
          "internalType": "string",
          "name": "",
          "type": "string"
        }
      ],
      "stateMutability": "view",
      "type": "function",
      "constant": true
    },
    {
      "inputs": [
        {
          "internalType": "uint256",
          "name": "tokenId",
          "type": "uint256"
        }
      ],
      "name": "tokenURI",
      "outputs": [
        {
          "internalType": "string",
          "name": "",
          "type": "string"
        }
      ],
      "stateMutability": "view",
      "type": "function",
      "constant": true
    },
    {
      "inputs": [
        {
          "internalType": "address",
          "name": "from",
          "type": "address"
        },
        {
          "internalType": "address",
          "name": "to",
          "type": "address"
        },
        {
          "internalType": "uint256",
          "name": "tokenId",
          "type": "uint256"
        }
      ],
      "name": "transferFrom",
      "outputs": [],
      "stateMutability": "nonpayable",
      "type": "function"
    },
    {
      "inputs": [],
      "name": "treasury",
      "outputs": [
        {
          "internalType": "address payable",
          "name": "",
          "type": "address"
        }
      ],
      "stateMutability": "view",
      "type": "function",
      "constant": true
    },
    {
      "stateMutability": "payable",
      "type": "receive",
      "payable": true
    },
    {
      "inputs": [],
      "name": "totalSupply",
      "outputs": [
        {
          "internalType": "uint256",
          "name": "",
          "type": "uint256"
        }
      ],
      "stateMutability": "view",
      "type": "function",
      "constant": true
    },
    {
      "inputs": [
        {
          "internalType": "address",
          "name": "to",
          "type": "address"
        },
        {
          "internalType": "bytes",
          "name": "_hashedMetadata",
          "type": "bytes"
        }
      ],
      "name": "mint",
      "outputs": [],
      "stateMutability": "nonpayable",
      "type": "function"
    },
    {
      "inputs": [
        {
          "internalType": "address",
          "name": "to",
          "type": "address"
        },
        {
          "internalType": "bytes",
          "name": "_hashedMetadata",
          "type": "bytes"
        }
      ],
      "name": "mintWithFee",
      "outputs": [],
      "stateMutability": "payable",
      "type": "function",
      "payable": true
    },
    {
      "inputs": [
        {
          "internalType": "string",
          "name": "_tokenBaseURI",
          "type": "string"
        }
      ],
      "name": "setBaseURI",
      "outputs": [],
      "stateMutability": "nonpayable",
      "type": "function"
    },
    {
      "inputs": [
        {
          "internalType": "uint256",
          "name": "_serviceFee",
          "type": "uint256"
        }
      ],
      "name": "setServiceFee",
      "outputs": [],
      "stateMutability": "nonpayable",
      "type": "function"
    },
    {
      "inputs": [
        {
          "internalType": "address",
          "name": "_token",
          "type": "address"
        }
      ],
      "name": "inCaseTokensGetStuck",
      "outputs": [],
      "stateMutability": "nonpayable",
      "type": "function"
    }
  ],
  "bytecode": "0x60c06040523480156200001157600080fd5b50604051620040173803806200401783398181016040528101906200003791906200039d565b6040518060400160405280600581526020017f46784e46540000000000000000000000000000000000000000000000000000008152506040518060400160405280600581526020017f46784e46540000000000000000000000000000000000000000000000000000008152508160009081620000b4919062000663565b508060019081620000c6919062000663565b5050508273ffffffffffffffffffffffffffffffffffffffff1660a08173ffffffffffffffffffffffffffffffffffffffff16815250508173ffffffffffffffffffffffffffffffffffffffff1660808173ffffffffffffffffffffffffffffffffffffffff1681525050806008908162000142919062000663565b505050506200074a565b6000604051905090565b600080fd5b600080fd5b600073ffffffffffffffffffffffffffffffffffffffff82169050919050565b60006200018d8262000160565b9050919050565b6000620001a18262000180565b9050919050565b620001b38162000194565b8114620001bf57600080fd5b50565b600081519050620001d381620001a8565b92915050565b6000620001e68262000160565b9050919050565b620001f881620001d9565b81146200020457600080fd5b50565b6000815190506200021881620001ed565b92915050565b600080fd5b600080fd5b6000601f19601f8301169050919050565b7f4e487b7100000000000000000000000000000000000000000000000000000000600052604160045260246000fd5b620002738262000228565b810181811067ffffffffffffffff8211171562000295576200029462000239565b5b80604052505050565b6000620002aa6200014c565b9050620002b8828262000268565b919050565b600067ffffffffffffffff821115620002db57620002da62000239565b5b620002e68262000228565b9050602081019050919050565b60005b8381101562000313578082015181840152602081019050620002f6565b60008484015250505050565b6000620003366200033084620002bd565b6200029e565b90508281526020810184848401111562000355576200035462000223565b5b62000362848285620002f3565b509392505050565b600082601f8301126200038257620003816200021e565b5b8151620003948482602086016200031f565b91505092915050565b600080600060608486031215620003b957620003b862000156565b5b6000620003c986828701620001c2565b9350506020620003dc8682870162000207565b925050604084015167ffffffffffffffff8111156200040057620003ff6200015b565b5b6200040e868287016200036a565b9150509250925092565b600081519050919050565b7f4e487b7100000000000000000000000000000000000000000000000000000000600052602260045260246000fd5b600060028204905060018216806200046b57607f821691505b60208210810362000481576200048062000423565b5b50919050565b60008190508160005260206000209050919050565b60006020601f8301049050919050565b600082821b905092915050565b600060088302620004eb7fffffffffffffffffffffffffffffffffffffffffffffffffffffffffffffffff82620004ac565b620004f78683620004ac565b95508019841693508086168417925050509392505050565b6000819050919050565b6000819050919050565b6000620005446200053e62000538846200050f565b62000519565b6200050f565b9050919050565b6000819050919050565b620005608362000523565b620005786200056f826200054b565b848454620004b9565b825550505050565b600090565b6200058f62000580565b6200059c81848462000555565b505050565b5b81811015620005c457620005b860008262000585565b600181019050620005a2565b5050565b601f8211156200061357620005dd8162000487565b620005e8846200049c565b81016020851015620005f8578190505b6200061062000607856200049c565b830182620005a1565b50505b505050565b600082821c905092915050565b6000620006386000198460080262000618565b1980831691505092915050565b600062000653838362000625565b9150826002028217905092915050565b6200066e8262000418565b67ffffffffffffffff8111156200068a576200068962000239565b5b62000696825462000452565b620006a3828285620005c8565b600060209050601f831160018114620006db5760008415620006c6578287015190505b620006d2858262000645565b86555062000742565b601f198416620006eb8662000487565b60005b828110156200071557848901518255600182019150602085019450602081019050620006ee565b8683101562000735578489015162000731601f89168262000625565b8355505b6001600288020188555050505b505050505050565b60805160a051613884620007936000396000818161085d01528181610a6e01528181610b9b0152610e7f0152600081816108d701528181610c70015261108301526138846000f3fe6080604052600436106101445760003560e01c80635cdf76f8116100b6578063a22cb4651161006f578063a22cb4651461046c578063b510391f14610495578063b88d4fde146104be578063c87b56dd146104e7578063def68a9c14610524578063e985e9c51461054d5761014b565b80635cdf76f81461034857806361d027b3146103715780636352211e1461039c57806370a08231146103d95780638abdf5aa1461041657806395d89b41146104415761014b565b806318160ddd1161010857806318160ddd14610249578063236d31001461027457806323b872dd146102905780633b166f02146102b957806342842e0e146102f657806355f804b31461031f5761014b565b806301ffc9a71461015057806306fdde031461018d578063081812fc146101b8578063095ea7b3146101f55780630975bb7e1461021e5761014b565b3661014b57005b600080fd5b34801561015c57600080fd5b5061017760048036038101906101729190612219565b61058a565b6040516101849190612261565b60405180910390f35b34801561019957600080fd5b506101a261066c565b6040516101af919061230c565b60405180910390f35b3480156101c457600080fd5b506101df60048036038101906101da9190612364565b6106fe565b6040516101ec91906123d2565b60405180910390f35b34801561020157600080fd5b5061021c60048036038101906102179190612419565b610744565b005b34801561022a57600080fd5b5061023361085b565b60405161024091906124b8565b60405180910390f35b34801561025557600080fd5b5061025e61087f565b60405161026b91906124e2565b60405180910390f35b61028e60048036038101906102899190612562565b610890565b005b34801561029c57600080fd5b506102b760048036038101906102b291906125c2565b61094c565b005b3480156102c557600080fd5b506102e060048036038101906102db9190612364565b6109ac565b6040516102ed919061266a565b60405180910390f35b34801561030257600080fd5b5061031d600480360381019061031891906125c2565b610a4c565b005b34801561032b57600080fd5b50610346600480360381019061034191906126e2565b610a6c565b005b34801561035457600080fd5b5061036f600480360381019061036a9190612364565b610b4e565b005b34801561037d57600080fd5b50610386610c6e565b6040516103939190612750565b60405180910390f35b3480156103a857600080fd5b506103c360048036038101906103be9190612364565b610c92565b6040516103d091906123d2565b60405180910390f35b3480156103e557600080fd5b5061040060048036038101906103fb919061276b565b610d18565b60405161040d91906124e2565b60405180910390f35b34801561042257600080fd5b5061042b610dcf565b60405161043891906124e2565b60405180910390f35b34801561044d57600080fd5b50610456610dd5565b604051610463919061230c565b60405180910390f35b34801561047857600080fd5b50610493600480360381019061048e91906127c4565b610e67565b005b3480156104a157600080fd5b506104bc60048036038101906104b79190612562565b610e7d565b005b3480156104ca57600080fd5b506104e560048036038101906104e09190612934565b610f1d565b005b3480156104f357600080fd5b5061050e60048036038101906105099190612364565b610f7f565b60405161051b919061230c565b60405180910390f35b34801561053057600080fd5b5061054b6004803603810190610546919061276b565b610fe7565b005b34801561055957600080fd5b50610574600480360381019061056f91906129b7565b611141565b6040516105819190612261565b60405180910390f35b60007f80ac58cd000000000000000000000000000000000000000000000000000000007bffffffffffffffffffffffffffffffffffffffffffffffffffffffff1916827bffffffffffffffffffffffffffffffffffffffffffffffffffffffff1916148061065557507f5b5e139f000000000000000000000000000000000000000000000000000000007bffffffffffffffffffffffffffffffffffffffffffffffffffffffff1916827bffffffffffffffffffffffffffffffffffffffffffffffffffffffff1916145b806106655750610664826111d5565b5b9050919050565b60606000805461067b90612a26565b80601f01602080910402602001604051908101604052809291908181526020018280546106a790612a26565b80156106f45780601f106106c9576101008083540402835291602001916106f4565b820191906000526020600020905b8154815290600101906020018083116106d757829003601f168201915b5050505050905090565b60006107098261123f565b6004600083815260200190815260200160002060009054906101000a900473ffffffffffffffffffffffffffffffffffffffff169050919050565b600061074f82610c92565b90508073ffffffffffffffffffffffffffffffffffffffff168373ffffffffffffffffffffffffffffffffffffffff16036107bf576040517f08c379a00000000000000000000000000000000000000000000000000000000081526004016107b690612ac9565b60405180910390fd5b8073ffffffffffffffffffffffffffffffffffffffff166107de61128a565b73ffffffffffffffffffffffffffffffffffffffff16148061080d575061080c8161080761128a565b611141565b5b61084c576040517f08c379a000000000000000000000000000000000000000000000000000000000815260040161084390612b5b565b60405180910390fd5b6108568383611292565b505050565b7f000000000000000000000000000000000000000000000000000000000000000081565b600061088b600761134b565b905090565b6006543410156108d5576040517f08c379a00000000000000000000000000000000000000000000000000000000081526004016108cc90612bc7565b60405180910390fd5b7f000000000000000000000000000000000000000000000000000000000000000073ffffffffffffffffffffffffffffffffffffffff166108fc479081150290604051600060405180830381858888f1935050505015801561093b573d6000803e3d6000fd5b50610947828285611359565b505050565b61095d61095761128a565b826113a4565b61099c576040517f08c379a000000000000000000000000000000000000000000000000000000000815260040161099390612c59565b60405180910390fd5b6109a7838383611439565b505050565b600960205280600052604060002060009150905080546109cb90612a26565b80601f01602080910402602001604051908101604052809291908181526020018280546109f790612a26565b8015610a445780601f10610a1957610100808354040283529160200191610a44565b820191906000526020600020905b815481529060010190602001808311610a2757829003601f168201915b505050505081565b610a6783838360405180602001604052806000815250610f1d565b505050565b7f000000000000000000000000000000000000000000000000000000000000000073ffffffffffffffffffffffffffffffffffffffff166313aeefdc610ab061128a565b6040518263ffffffff1660e01b8152600401610acc91906123d2565b60006040518083038186803b158015610ae457600080fd5b505afa158015610af8573d6000803e3d6000fd5b505050507f3cf3ea78897f8927a760577b96ff294315772f804ad2c11517a0b165dc61a17360088383604051610b3093929190612d3f565b60405180910390a1818160089182610b49929190612f10565b505050565b670de0b6b3a7640000811115610b99576040517f08c379a0000000000000000000000000000000000000000000000000000000008152600401610b909061302c565b60405180910390fd5b7f000000000000000000000000000000000000000000000000000000000000000073ffffffffffffffffffffffffffffffffffffffff16635139caa7610bdd61128a565b6040518263ffffffff1660e01b8152600401610bf991906123d2565b60006040518083038186803b158015610c1157600080fd5b505afa158015610c25573d6000803e3d6000fd5b505050507fe02d0098b85536313e93c624cec52cc541ff1f70259a55100795116f6ddff56360065482604051610c5c92919061304c565b60405180910390a18060068190555050565b7f000000000000000000000000000000000000000000000000000000000000000081565b600080610c9e83611732565b9050600073ffffffffffffffffffffffffffffffffffffffff168173ffffffffffffffffffffffffffffffffffffffff1603610d0f576040517f08c379a0000000000000000000000000000000000000000000000000000000008152600401610d06906130c1565b60405180910390fd5b80915050919050565b60008073ffffffffffffffffffffffffffffffffffffffff168273ffffffffffffffffffffffffffffffffffffffff1603610d88576040517f08c379a0000000000000000000000000000000000000000000000000000000008152600401610d7f90613153565b60405180910390fd5b600360008373ffffffffffffffffffffffffffffffffffffffff1673ffffffffffffffffffffffffffffffffffffffff168152602001908152602001600020549050919050565b60065481565b606060018054610de490612a26565b80601f0160208091040260200160405190810160405280929190818152602001828054610e1090612a26565b8015610e5d5780601f10610e3257610100808354040283529160200191610e5d565b820191906000526020600020905b815481529060010190602001808311610e4057829003601f168201915b5050505050905090565b610e79610e7261128a565b838361176f565b5050565b7f000000000000000000000000000000000000000000000000000000000000000073ffffffffffffffffffffffffffffffffffffffff166313aeefdc610ec161128a565b6040518263ffffffff1660e01b8152600401610edd91906123d2565b60006040518083038186803b158015610ef557600080fd5b505afa158015610f09573d6000803e3d6000fd5b50505050610f18828285611359565b505050565b610f2e610f2861128a565b836113a4565b610f6d576040517f08c379a0000000000000000000000000000000000000000000000000000000008152600401610f6490612c59565b60405180910390fd5b610f79848484846118db565b50505050565b6060610f8a8261123f565b6000610f94611937565b90506000815111610fb45760405180602001604052806000815250610fdf565b80610fbe846119c9565b604051602001610fcf9291906131af565b6040516020818303038152906040525b915050919050565b60008173ffffffffffffffffffffffffffffffffffffffff166370a08231306040518263ffffffff1660e01b815260040161102291906123d2565b602060405180830381865afa15801561103f573d6000803e3d6000fd5b505050506040513d601f19601f8201168201806040525081019061106391906131e8565b90508173ffffffffffffffffffffffffffffffffffffffff1663a9059cbb7f0000000000000000000000000000000000000000000000000000000000000000836040518363ffffffff1660e01b81526004016110c0929190613236565b6020604051808303816000875af11580156110df573d6000803e3d6000fd5b505050506040513d601f19601f820116820180604052508101906111039190613274565b507f89452ef30538a3560e3d4a2e4b57f7c7796bb0f083e15e5632ddb872ff5b313b82826040516111359291906132a1565b60405180910390a15050565b6000600560008473ffffffffffffffffffffffffffffffffffffffff1673ffffffffffffffffffffffffffffffffffffffff16815260200190815260200160002060008373ffffffffffffffffffffffffffffffffffffffff1673ffffffffffffffffffffffffffffffffffffffff16815260200190815260200160002060009054906101000a900460ff16905092915050565b60007f01ffc9a7000000000000000000000000000000000000000000000000000000007bffffffffffffffffffffffffffffffffffffffffffffffffffffffff1916827bffffffffffffffffffffffffffffffffffffffffffffffffffffffff1916149050919050565b61124881611a97565b611287576040517f08c379a000000000000000000000000000000000000000000000000000000000815260040161127e906130c1565b60405180910390fd5b50565b600033905090565b816004600083815260200190815260200160002060006101000a81548173ffffffffffffffffffffffffffffffffffffffff021916908373ffffffffffffffffffffffffffffffffffffffff160217905550808273ffffffffffffffffffffffffffffffffffffffff1661130583610c92565b73ffffffffffffffffffffffffffffffffffffffff167f8c5be1e5ebec7d5bd14f71427d1e84f3dd0314c0f7b2291e5b200ac8c7c3b92560405160405180910390a45050565b600081600001549050919050565b6000611365600761134b565b90508383600960008481526020019081526020016000209182611389929190613330565b506113948282611ad8565b61139e6007611af6565b50505050565b6000806113b083610c92565b90508073ffffffffffffffffffffffffffffffffffffffff168473ffffffffffffffffffffffffffffffffffffffff1614806113f257506113f18185611141565b5b8061143057508373ffffffffffffffffffffffffffffffffffffffff16611418846106fe565b73ffffffffffffffffffffffffffffffffffffffff16145b91505092915050565b8273ffffffffffffffffffffffffffffffffffffffff1661145982610c92565b73ffffffffffffffffffffffffffffffffffffffff16146114af576040517f08c379a00000000000000000000000000000000000000000000000000000000081526004016114a690613472565b60405180910390fd5b600073ffffffffffffffffffffffffffffffffffffffff168273ffffffffffffffffffffffffffffffffffffffff160361151e576040517f08c379a000000000000000000000000000000000000000000000000000000000815260040161151590613504565b60405180910390fd5b61152b8383836001611b0c565b8273ffffffffffffffffffffffffffffffffffffffff1661154b82610c92565b73ffffffffffffffffffffffffffffffffffffffff16146115a1576040517f08c379a000000000000000000000000000000000000000000000000000000000815260040161159890613472565b60405180910390fd5b6004600082815260200190815260200160002060006101000a81549073ffffffffffffffffffffffffffffffffffffffff02191690556001600360008573ffffffffffffffffffffffffffffffffffffffff1673ffffffffffffffffffffffffffffffffffffffff168152602001908152602001600020600082825403925050819055506001600360008473ffffffffffffffffffffffffffffffffffffffff1673ffffffffffffffffffffffffffffffffffffffff16815260200190815260200160002060008282540192505081905550816002600083815260200190815260200160002060006101000a81548173ffffffffffffffffffffffffffffffffffffffff021916908373ffffffffffffffffffffffffffffffffffffffff160217905550808273ffffffffffffffffffffffffffffffffffffffff168473ffffffffffffffffffffffffffffffffffffffff167fddf252ad1be2c89b69c2b068fc378daa952ba7f163c4a11628f55a4df523b3ef60405160405180910390a461172d8383836001611c32565b505050565b60006002600083815260200190815260200160002060009054906101000a900473ffffffffffffffffffffffffffffffffffffffff169050919050565b8173ffffffffffffffffffffffffffffffffffffffff168373ffffffffffffffffffffffffffffffffffffffff16036117dd576040517f08c379a00000000000000000000000000000000000000000000000000000000081526004016117d490613570565b60405180910390fd5b80600560008573ffffffffffffffffffffffffffffffffffffffff1673ffffffffffffffffffffffffffffffffffffffff16815260200190815260200160002060008473ffffffffffffffffffffffffffffffffffffffff1673ffffffffffffffffffffffffffffffffffffffff16815260200190815260200160002060006101000a81548160ff0219169083151502179055508173ffffffffffffffffffffffffffffffffffffffff168373ffffffffffffffffffffffffffffffffffffffff167f17307eab39ab6107e8899845ad3d59bd9653f200f220920489ca2b5937696c31836040516118ce9190612261565b60405180910390a3505050565b6118e6848484611439565b6118f284848484611c38565b611931576040517f08c379a000000000000000000000000000000000000000000000000000000000815260040161192890613602565b60405180910390fd5b50505050565b60606008805461194690612a26565b80601f016020809104026020016040519081016040528092919081815260200182805461197290612a26565b80156119bf5780601f10611994576101008083540402835291602001916119bf565b820191906000526020600020905b8154815290600101906020018083116119a257829003601f168201915b5050505050905090565b6060600060016119d884611dbf565b01905060008167ffffffffffffffff8111156119f7576119f6612809565b5b6040519080825280601f01601f191660200182016040528015611a295781602001600182028036833780820191505090505b509050600082602001820190505b600115611a8c578080600190039150507f3031323334353637383961626364656600000000000000000000000000000000600a86061a8153600a8581611a8057611a7f613622565b5b04945060008503611a37575b819350505050919050565b60008073ffffffffffffffffffffffffffffffffffffffff16611ab983611732565b73ffffffffffffffffffffffffffffffffffffffff1614159050919050565b611af2828260405180602001604052806000815250611f12565b5050565b6001816000016000828254019250508190555050565b6001811115611c2c57600073ffffffffffffffffffffffffffffffffffffffff168473ffffffffffffffffffffffffffffffffffffffff1614611ba05780600360008673ffffffffffffffffffffffffffffffffffffffff1673ffffffffffffffffffffffffffffffffffffffff1681526020019081526020016000206000828254611b989190613680565b925050819055505b600073ffffffffffffffffffffffffffffffffffffffff168373ffffffffffffffffffffffffffffffffffffffff1614611c2b5780600360008573ffffffffffffffffffffffffffffffffffffffff1673ffffffffffffffffffffffffffffffffffffffff1681526020019081526020016000206000828254611c2391906136b4565b925050819055505b5b50505050565b50505050565b6000611c598473ffffffffffffffffffffffffffffffffffffffff16611f6d565b15611db2578373ffffffffffffffffffffffffffffffffffffffff1663150b7a02611c8261128a565b8786866040518563ffffffff1660e01b8152600401611ca494939291906136e8565b6020604051808303816000875af1925050508015611ce057506040513d601f19601f82011682018060405250810190611cdd9190613749565b60015b611d62573d8060008114611d10576040519150601f19603f3d011682016040523d82523d6000602084013e611d15565b606091505b506000815103611d5a576040517f08c379a0000000000000000000000000000000000000000000000000000000008152600401611d5190613602565b60405180910390fd5b805181602001fd5b63150b7a0260e01b7bffffffffffffffffffffffffffffffffffffffffffffffffffffffff1916817bffffffffffffffffffffffffffffffffffffffffffffffffffffffff191614915050611db7565b600190505b949350505050565b600080600090507a184f03e93ff9f4daa797ed6e38ed64bf6a1f0100000000000000008310611e1d577a184f03e93ff9f4daa797ed6e38ed64bf6a1f0100000000000000008381611e1357611e12613622565b5b0492506040810190505b6d04ee2d6d415b85acef81000000008310611e5a576d04ee2d6d415b85acef81000000008381611e5057611e4f613622565b5b0492506020810190505b662386f26fc100008310611e8957662386f26fc100008381611e7f57611e7e613622565b5b0492506010810190505b6305f5e1008310611eb2576305f5e1008381611ea857611ea7613622565b5b0492506008810190505b6127108310611ed7576127108381611ecd57611ecc613622565b5b0492506004810190505b60648310611efa5760648381611ef057611eef613622565b5b0492506002810190505b600a8310611f09576001810190505b80915050919050565b611f1c8383611f90565b611f296000848484611c38565b611f68576040517f08c379a0000000000000000000000000000000000000000000000000000000008152600401611f5f90613602565b60405180910390fd5b505050565b6000808273ffffffffffffffffffffffffffffffffffffffff163b119050919050565b600073ffffffffffffffffffffffffffffffffffffffff168273ffffffffffffffffffffffffffffffffffffffff1603611fff576040517f08c379a0000000000000000000000000000000000000000000000000000000008152600401611ff6906137c2565b60405180910390fd5b61200881611a97565b15612048576040517f08c379a000000000000000000000000000000000000000000000000000000000815260040161203f9061382e565b60405180910390fd5b612056600083836001611b0c565b61205f81611a97565b1561209f576040517f08c379a00000000000000000000000000000000000000000000000000000000081526004016120969061382e565b60405180910390fd5b6001600360008473ffffffffffffffffffffffffffffffffffffffff1673ffffffffffffffffffffffffffffffffffffffff16815260200190815260200160002060008282540192505081905550816002600083815260200190815260200160002060006101000a81548173ffffffffffffffffffffffffffffffffffffffff021916908373ffffffffffffffffffffffffffffffffffffffff160217905550808273ffffffffffffffffffffffffffffffffffffffff16600073ffffffffffffffffffffffffffffffffffffffff167fddf252ad1be2c89b69c2b068fc378daa952ba7f163c4a11628f55a4df523b3ef60405160405180910390a46121a9600083836001611c32565b5050565b6000604051905090565b600080fd5b600080fd5b60007fffffffff0000000000000000000000000000000000000000000000000000000082169050919050565b6121f6816121c1565b811461220157600080fd5b50565b600081359050612213816121ed565b92915050565b60006020828403121561222f5761222e6121b7565b5b600061223d84828501612204565b91505092915050565b60008115159050919050565b61225b81612246565b82525050565b60006020820190506122766000830184612252565b92915050565b600081519050919050565b600082825260208201905092915050565b60005b838110156122b657808201518184015260208101905061229b565b60008484015250505050565b6000601f19601f8301169050919050565b60006122de8261227c565b6122e88185612287565b93506122f8818560208601612298565b612301816122c2565b840191505092915050565b6000602082019050818103600083015261232681846122d3565b905092915050565b6000819050919050565b6123418161232e565b811461234c57600080fd5b50565b60008135905061235e81612338565b92915050565b60006020828403121561237a576123796121b7565b5b60006123888482850161234f565b91505092915050565b600073ffffffffffffffffffffffffffffffffffffffff82169050919050565b60006123bc82612391565b9050919050565b6123cc816123b1565b82525050565b60006020820190506123e760008301846123c3565b92915050565b6123f6816123b1565b811461240157600080fd5b50565b600081359050612413816123ed565b92915050565b600080604083850312156124305761242f6121b7565b5b600061243e85828601612404565b925050602061244f8582860161234f565b9150509250929050565b6000819050919050565b600061247e61247961247484612391565b612459565b612391565b9050919050565b600061249082612463565b9050919050565b60006124a282612485565b9050919050565b6124b281612497565b82525050565b60006020820190506124cd60008301846124a9565b92915050565b6124dc8161232e565b82525050565b60006020820190506124f760008301846124d3565b92915050565b600080fd5b600080fd5b600080fd5b60008083601f840112612522576125216124fd565b5b8235905067ffffffffffffffff81111561253f5761253e612502565b5b60208301915083600182028301111561255b5761255a612507565b5b9250929050565b60008060006040848603121561257b5761257a6121b7565b5b600061258986828701612404565b935050602084013567ffffffffffffffff8111156125aa576125a96121bc565b5b6125b68682870161250c565b92509250509250925092565b6000806000606084860312156125db576125da6121b7565b5b60006125e986828701612404565b93505060206125fa86828701612404565b925050604061260b8682870161234f565b9150509250925092565b600081519050919050565b600082825260208201905092915050565b600061263c82612615565b6126468185612620565b9350612656818560208601612298565b61265f816122c2565b840191505092915050565b600060208201905081810360008301526126848184612631565b905092915050565b60008083601f8401126126a2576126a16124fd565b5b8235905067ffffffffffffffff8111156126bf576126be612502565b5b6020830191508360018202830111156126db576126da612507565b5b9250929050565b600080602083850312156126f9576126f86121b7565b5b600083013567ffffffffffffffff811115612717576127166121bc565b5b6127238582860161268c565b92509250509250929050565b600061273a82612391565b9050919050565b61274a8161272f565b82525050565b60006020820190506127656000830184612741565b92915050565b600060208284031215612781576127806121b7565b5b600061278f84828501612404565b91505092915050565b6127a181612246565b81146127ac57600080fd5b50565b6000813590506127be81612798565b92915050565b600080604083850312156127db576127da6121b7565b5b60006127e985828601612404565b92505060206127fa858286016127af565b9150509250929050565b600080fd5b7f4e487b7100000000000000000000000000000000000000000000000000000000600052604160045260246000fd5b612841826122c2565b810181811067ffffffffffffffff821117156128605761285f612809565b5b80604052505050565b60006128736121ad565b905061287f8282612838565b919050565b600067ffffffffffffffff82111561289f5761289e612809565b5b6128a8826122c2565b9050602081019050919050565b82818337600083830152505050565b60006128d76128d284612884565b612869565b9050828152602081018484840111156128f3576128f2612804565b5b6128fe8482856128b5565b509392505050565b600082601f83011261291b5761291a6124fd565b5b813561292b8482602086016128c4565b91505092915050565b6000806000806080858703121561294e5761294d6121b7565b5b600061295c87828801612404565b945050602061296d87828801612404565b935050604061297e8782880161234f565b925050606085013567ffffffffffffffff81111561299f5761299e6121bc565b5b6129ab87828801612906565b91505092959194509250565b600080604083850312156129ce576129cd6121b7565b5b60006129dc85828601612404565b92505060206129ed85828601612404565b9150509250929050565b7f4e487b7100000000000000000000000000000000000000000000000000000000600052602260045260246000fd5b60006002820490506001821680612a3e57607f821691505b602082108103612a5157612a506129f7565b5b50919050565b7f4552433732313a20617070726f76616c20746f2063757272656e74206f776e6560008201527f7200000000000000000000000000000000000000000000000000000000000000602082015250565b6000612ab3602183612287565b9150612abe82612a57565b604082019050919050565b60006020820190508181036000830152612ae281612aa6565b9050919050565b7f4552433732313a20617070726f76652063616c6c6572206973206e6f7420746f60008201527f6b656e206f776e6572206f7220617070726f76656420666f7220616c6c000000602082015250565b6000612b45603d83612287565b9150612b5082612ae9565b604082019050919050565b60006020820190508181036000830152612b7481612b38565b9050919050565b7f46784e46543a20494e56414c49445f4645450000000000000000000000000000600082015250565b6000612bb1601283612287565b9150612bbc82612b7b565b602082019050919050565b60006020820190508181036000830152612be081612ba4565b9050919050565b7f4552433732313a2063616c6c6572206973206e6f7420746f6b656e206f776e6560008201527f72206f7220617070726f76656400000000000000000000000000000000000000602082015250565b6000612c43602d83612287565b9150612c4e82612be7565b604082019050919050565b60006020820190508181036000830152612c7281612c36565b9050919050565b60008190508160005260206000209050919050565b60008154612c9b81612a26565b612ca58186612287565b94506001821660008114612cc05760018114612cd657612d09565b60ff198316865281151560200286019350612d09565b612cdf85612c79565b60005b83811015612d0157815481890152600182019150602081019050612ce2565b808801955050505b50505092915050565b6000612d1e8385612287565b9350612d2b8385846128b5565b612d34836122c2565b840190509392505050565b60006040820190508181036000830152612d598186612c8e565b90508181036020830152612d6e818486612d12565b9050949350505050565b600082905092915050565b60006020601f8301049050919050565b600082821b905092915050565b600060088302612dd07fffffffffffffffffffffffffffffffffffffffffffffffffffffffffffffffff82612d93565b612dda8683612d93565b95508019841693508086168417925050509392505050565b6000612e0d612e08612e038461232e565b612459565b61232e565b9050919050565b6000819050919050565b612e2783612df2565b612e3b612e3382612e14565b848454612da0565b825550505050565b600090565b612e50612e43565b612e5b818484612e1e565b505050565b5b81811015612e7f57612e74600082612e48565b600181019050612e61565b5050565b601f821115612ec457612e9581612c79565b612e9e84612d83565b81016020851015612ead578190505b612ec1612eb985612d83565b830182612e60565b50505b505050565b600082821c905092915050565b6000612ee760001984600802612ec9565b1980831691505092915050565b6000612f008383612ed6565b9150826002028217905092915050565b612f1a8383612d78565b67ffffffffffffffff811115612f3357612f32612809565b5b612f3d8254612a26565b612f48828285612e83565b6000601f831160018114612f775760008415612f65578287013590505b612f6f8582612ef4565b865550612fd7565b601f198416612f8586612c79565b60005b82811015612fad57848901358255600182019150602085019450602081019050612f88565b86831015612fca5784890135612fc6601f891682612ed6565b8355505b6001600288020188555050505b50505050505050565b7f46784e46543a204645455f544f4f5f4849474800000000000000000000000000600082015250565b6000613016601383612287565b915061302182612fe0565b602082019050919050565b6000602082019050818103600083015261304581613009565b9050919050565b600060408201905061306160008301856124d3565b61306e60208301846124d3565b9392505050565b7f4552433732313a20696e76616c696420746f6b656e2049440000000000000000600082015250565b60006130ab601883612287565b91506130b682613075565b602082019050919050565b600060208201905081810360008301526130da8161309e565b9050919050565b7f4552433732313a2061646472657373207a65726f206973206e6f74206120766160008201527f6c6964206f776e65720000000000000000000000000000000000000000000000602082015250565b600061313d602983612287565b9150613148826130e1565b604082019050919050565b6000602082019050818103600083015261316c81613130565b9050919050565b600081905092915050565b60006131898261227c565b6131938185613173565b93506131a3818560208601612298565b80840191505092915050565b60006131bb828561317e565b91506131c7828461317e565b91508190509392505050565b6000815190506131e281612338565b92915050565b6000602082840312156131fe576131fd6121b7565b5b600061320c848285016131d3565b91505092915050565b600061322082612485565b9050919050565b61323081613215565b82525050565b600060408201905061324b6000830185613227565b61325860208301846124d3565b9392505050565b60008151905061326e81612798565b92915050565b60006020828403121561328a576132896121b7565b5b60006132988482850161325f565b91505092915050565b60006040820190506132b660008301856123c3565b6132c360208301846124d3565b9392505050565b600082905092915050565b60008190508160005260206000209050919050565b601f82111561332b576132fc816132d5565b61330584612d83565b81016020851015613314578190505b61332861332085612d83565b830182612e60565b50505b505050565b61333a83836132ca565b67ffffffffffffffff81111561335357613352612809565b5b61335d8254612a26565b6133688282856132ea565b6000601f8311600181146133975760008415613385578287013590505b61338f8582612ef4565b8655506133f7565b601f1984166133a5866132d5565b60005b828110156133cd578489013582556001820191506020850194506020810190506133a8565b868310156133ea57848901356133e6601f891682612ed6565b8355505b6001600288020188555050505b50505050505050565b7f4552433732313a207472616e736665722066726f6d20696e636f72726563742060008201527f6f776e6572000000000000000000000000000000000000000000000000000000602082015250565b600061345c602583612287565b915061346782613400565b604082019050919050565b6000602082019050818103600083015261348b8161344f565b9050919050565b7f4552433732313a207472616e7366657220746f20746865207a65726f2061646460008201527f7265737300000000000000000000000000000000000000000000000000000000602082015250565b60006134ee602483612287565b91506134f982613492565b604082019050919050565b6000602082019050818103600083015261351d816134e1565b9050919050565b7f4552433732313a20617070726f766520746f2063616c6c657200000000000000600082015250565b600061355a601983612287565b915061356582613524565b602082019050919050565b600060208201905081810360008301526135898161354d565b9050919050565b7f4552433732313a207472616e7366657220746f206e6f6e20455243373231526560008201527f63656976657220696d706c656d656e7465720000000000000000000000000000602082015250565b60006135ec603283612287565b91506135f782613590565b604082019050919050565b6000602082019050818103600083015261361b816135df565b9050919050565b7f4e487b7100000000000000000000000000000000000000000000000000000000600052601260045260246000fd5b7f4e487b7100000000000000000000000000000000000000000000000000000000600052601160045260246000fd5b600061368b8261232e565b91506136968361232e565b92508282039050818111156136ae576136ad613651565b5b92915050565b60006136bf8261232e565b91506136ca8361232e565b92508282019050808211156136e2576136e1613651565b5b92915050565b60006080820190506136fd60008301876123c3565b61370a60208301866123c3565b61371760408301856124d3565b81810360608301526137298184612631565b905095945050505050565b600081519050613743816121ed565b92915050565b60006020828403121561375f5761375e6121b7565b5b600061376d84828501613734565b91505092915050565b7f4552433732313a206d696e7420746f20746865207a65726f2061646472657373600082015250565b60006137ac602083612287565b91506137b782613776565b602082019050919050565b600060208201905081810360008301526137db8161379f565b9050919050565b7f4552433732313a20746f6b656e20616c7265616479206d696e74656400000000600082015250565b6000613818601c83612287565b9150613823826137e2565b602082019050919050565b600060208201905081810360008301526138478161380b565b905091905056fea2646970667358221220c234aa7d31efe6aea7ca01310f95215eb44d36726118f4f79af48ec9d16ddb4864736f6c63430008110033",
  "immutableReferences": {
    "5903": [
      {
        "length": 32,
        "start": 2263
      },
      {
        "length": 32,
        "start": 3184
      },
      {
        "length": 32,
        "start": 4227
      }
    ],
    "5908": [
      {
        "length": 32,
        "start": 2141
      },
      {
        "length": 32,
        "start": 2670
      },
      {
        "length": 32,
        "start": 2971
      },
      {
        "length": 32,
        "start": 3711
      }
    ]
  },
  "source": "// SPDX-License-Identifier: MIT\r\n// FxEthers Contracts (last updated v1.0)\r\n\r\npragma solidity 0.8.17;\r\n\r\nimport \"@openzeppelin/contracts/token/ERC721/ERC721.sol\";\r\nimport \"@openzeppelin/contracts/token/ERC20/ERC20.sol\";\r\nimport \"@openzeppelin/contracts/utils/Counters.sol\";\r\nimport \"../access/ControlTower.sol\";\r\n\r\ncontract FxNFT is ERC721 {\r\n    using Counters for Counters.Counter;\r\n\r\n    address payable public immutable treasury;\r\n    uint public serviceFee;\r\n\r\n    ControlTower public immutable controlTower;\r\n    Counters.Counter private _tokenIdCounter;\r\n\r\n    string private baseURI;\r\n\r\n    // Mapping from token ID to hashed metadata\r\n    mapping(uint => bytes) public hashedMetadata;\r\n\r\n    event BaseURIChange(string oldBaseURI, string newBaseURI);\r\n    event ServiceFeeChange(uint oldServiceFee, uint newServiceFee);\r\n    event RescuesTokenStuck(address token, uint256 amount);\r\n\r\n    constructor(\r\n        ControlTower _controlTower,\r\n        address payable _treasury,\r\n        string memory _tokenBaseURI\r\n    ) ERC721(\"FxNFT\", \"FxNFT\") {\r\n        controlTower = _controlTower;\r\n        treasury = _treasury;\r\n        baseURI = _tokenBaseURI;\r\n    }\r\n\r\n    receive() external payable {}\r\n\r\n    function totalSupply() external view returns (uint) {\r\n        return _tokenIdCounter.current();\r\n    }\r\n\r\n    function mint(address to, bytes calldata _hashedMetadata) external {\r\n        controlTower.onlyModerator(_msgSender());\r\n        _mint(_hashedMetadata, to);\r\n    }\r\n\r\n    function mintWithFee(address to, bytes calldata _hashedMetadata) external payable {\r\n        require(msg.value >= serviceFee, \"FxNFT: INVALID_FEE\");\r\n        treasury.transfer(address(this).balance);\r\n        _mint(_hashedMetadata, to);\r\n    }\r\n\r\n    function setBaseURI(string calldata _tokenBaseURI) external {\r\n        controlTower.onlyModerator(_msgSender());\r\n        emit BaseURIChange(baseURI, _tokenBaseURI);\r\n        baseURI = _tokenBaseURI;\r\n    }\r\n\r\n    function setServiceFee(uint _serviceFee) external {\r\n        require(_serviceFee <= 1 ether, \"FxNFT: FEE_TOO_HIGH\");\r\n        controlTower.onlyTreasurer(_msgSender());\r\n        emit ServiceFeeChange(serviceFee, _serviceFee);\r\n        serviceFee = _serviceFee;\r\n    }\r\n\r\n    /**\r\n     * @dev Rescues random funds stuck that the strat can't handle.\r\n     * @param _token address of the token to rescue.\r\n     */\r\n    function inCaseTokensGetStuck(address _token) external {\r\n        uint amount = IERC20(_token).balanceOf(address(this));\r\n        IERC20(_token).transfer(treasury, amount);\r\n        emit RescuesTokenStuck(_token, amount);\r\n    }\r\n\r\n    function _mint(bytes calldata _hashedMetadata, address to) private {\r\n        uint tokenId = _tokenIdCounter.current();\r\n        hashedMetadata[tokenId] = _hashedMetadata;\r\n        _safeMint(to, tokenId);\r\n        _tokenIdCounter.increment();\r\n    }\r\n\r\n    function _baseURI() internal view override returns (string memory) {\r\n        return baseURI;\r\n    }\r\n}\r\n",
  "sourcePath": "/media/luc/Fdata/fxethers/truffle/contracts/tokens/FxNFT.sol",
  "compiler": {
    "name": "solc",
    "version": "0.8.17+commit.8df45f5f.Emscripten.clang"
  },
  "schemaVersion": "3.4.10",
  "updatedAt": "2023-02-03T17:23:18.569Z",
  "networkType": "ethereum",
  "devdoc": {
    "kind": "dev",
    "methods": {
      "approve(address,uint256)": {
        "details": "See {IERC721-approve}."
      },
      "balanceOf(address)": {
        "details": "See {IERC721-balanceOf}."
      },
      "getApproved(uint256)": {
        "details": "See {IERC721-getApproved}."
      },
      "inCaseTokensGetStuck(address)": {
        "details": "Rescues random funds stuck that the strat can't handle.",
        "params": {
          "_token": "address of the token to rescue."
        }
      },
      "isApprovedForAll(address,address)": {
        "details": "See {IERC721-isApprovedForAll}."
      },
      "name()": {
        "details": "See {IERC721Metadata-name}."
      },
      "ownerOf(uint256)": {
        "details": "See {IERC721-ownerOf}."
      },
      "safeTransferFrom(address,address,uint256)": {
        "details": "See {IERC721-safeTransferFrom}."
      },
      "safeTransferFrom(address,address,uint256,bytes)": {
        "details": "See {IERC721-safeTransferFrom}."
      },
      "setApprovalForAll(address,bool)": {
        "details": "See {IERC721-setApprovalForAll}."
      },
      "supportsInterface(bytes4)": {
        "details": "See {IERC165-supportsInterface}."
      },
      "symbol()": {
        "details": "See {IERC721Metadata-symbol}."
      },
      "tokenURI(uint256)": {
        "details": "See {IERC721Metadata-tokenURI}."
      },
      "transferFrom(address,address,uint256)": {
        "details": "See {IERC721-transferFrom}."
      }
    },
    "version": 1
  },
  "userdoc": {
    "kind": "user",
    "methods": {},
    "version": 1
  }
}