{
  "contractName": "Crowdsale",
  "abi": [
    {
      "inputs": [
        {
          "internalType": "uint256",
          "name": "_rate",
          "type": "uint256"
        },
        {
          "internalType": "address",
          "name": "_wallet",
          "type": "address"
        },
        {
          "internalType": "contract IERC20",
          "name": "_token",
          "type": "address"
        }
      ],
      "stateMutability": "nonpayable",
      "type": "constructor"
    },
    {
      "anonymous": false,
      "inputs": [
        {
          "indexed": true,
          "internalType": "address",
          "name": "purchaser",
          "type": "address"
        },
        {
          "indexed": true,
          "internalType": "address",
          "name": "beneficiary",
          "type": "address"
        },
        {
          "indexed": false,
          "internalType": "uint256",
          "name": "value",
          "type": "uint256"
        },
        {
          "indexed": false,
          "internalType": "uint256",
          "name": "amount",
          "type": "uint256"
        }
      ],
      "name": "TokensPurchased",
      "type": "event"
    },
    {
      "inputs": [],
      "name": "raised",
      "outputs": [
        {
          "internalType": "uint256",
          "name": "",
          "type": "uint256"
        }
      ],
      "stateMutability": "view",
      "type": "function"
    },
    {
      "inputs": [],
      "name": "rate",
      "outputs": [
        {
          "internalType": "uint256",
          "name": "",
          "type": "uint256"
        }
      ],
      "stateMutability": "view",
      "type": "function"
    },
    {
      "inputs": [],
      "name": "token",
      "outputs": [
        {
          "internalType": "contract IERC20",
          "name": "",
          "type": "address"
        }
      ],
      "stateMutability": "view",
      "type": "function"
    },
    {
      "inputs": [],
      "name": "wallet",
      "outputs": [
        {
          "internalType": "address payable",
          "name": "",
          "type": "address"
        }
      ],
      "stateMutability": "view",
      "type": "function"
    },
    {
      "stateMutability": "payable",
      "type": "receive"
    },
    {
      "inputs": [
        {
          "internalType": "address",
          "name": "beneficiary",
          "type": "address"
        }
      ],
      "name": "buyTokens",
      "outputs": [],
      "stateMutability": "payable",
      "type": "function"
    }
  ],
  "bytecode": "0x60806040523480156200001157600080fd5b506040516200133e3803806200133e8339818101604052810190620000379190620002e5565b60016000819055506000831162000085576040517f08c379a00000000000000000000000000000000000000000000000000000000081526004016200007c90620003a2565b60405180910390fd5b600073ffffffffffffffffffffffffffffffffffffffff168273ffffffffffffffffffffffffffffffffffffffff1603620000f7576040517f08c379a0000000000000000000000000000000000000000000000000000000008152600401620000ee9062000414565b60405180910390fd5b600073ffffffffffffffffffffffffffffffffffffffff168173ffffffffffffffffffffffffffffffffffffffff160362000169576040517f08c379a0000000000000000000000000000000000000000000000000000000008152600401620001609062000486565b60405180910390fd5b8260038190555081600260006101000a81548173ffffffffffffffffffffffffffffffffffffffff021916908373ffffffffffffffffffffffffffffffffffffffff16021790555080600160006101000a81548173ffffffffffffffffffffffffffffffffffffffff021916908373ffffffffffffffffffffffffffffffffffffffff160217905550505050620004a8565b600080fd5b6000819050919050565b620002158162000200565b81146200022157600080fd5b50565b60008151905062000235816200020a565b92915050565b600073ffffffffffffffffffffffffffffffffffffffff82169050919050565b600062000268826200023b565b9050919050565b6200027a816200025b565b81146200028657600080fd5b50565b6000815190506200029a816200026f565b92915050565b6000620002ad826200025b565b9050919050565b620002bf81620002a0565b8114620002cb57600080fd5b50565b600081519050620002df81620002b4565b92915050565b600080600060608486031215620003015762000300620001fb565b5b6000620003118682870162000224565b9350506020620003248682870162000289565b92505060406200033786828701620002ce565b9150509250925092565b600082825260208201905092915050565b7f43726f776473616c653a205a45524f5f52415445000000000000000000000000600082015250565b60006200038a60148362000341565b9150620003978262000352565b602082019050919050565b60006020820190508181036000830152620003bd816200037b565b9050919050565b7f43726f776473616c653a2057414c4c45545f414444524553535f5a45524f0000600082015250565b6000620003fc601e8362000341565b91506200040982620003c4565b602082019050919050565b600060208201905081810360008301526200042f81620003ed565b9050919050565b7f43726f776473616c653a20544f4b454e5f414444524553535f5a45524f000000600082015250565b60006200046e601d8362000341565b91506200047b8262000436565b602082019050919050565b60006020820190508181036000830152620004a1816200045f565b9050919050565b610e8680620004b86000396000f3fe60806040526004361061004e5760003560e01c80632c4e722e1461006a578063521eb27314610095578063ec8ac4d8146100c0578063f0ea4bfc146100dc578063fc0c546a1461010757610065565b366100655761006361005e610132565b61013a565b005b600080fd5b34801561007657600080fd5b5061007f6101ff565b60405161008c919061077a565b60405180910390f35b3480156100a157600080fd5b506100aa610205565b6040516100b791906107d6565b60405180910390f35b6100da60048036038101906100d59190610834565b61013a565b005b3480156100e857600080fd5b506100f161022b565b6040516100fe919061077a565b60405180910390f35b34801561011357600080fd5b5061011c610231565b60405161012991906108c0565b60405180910390f35b600033905090565b610142610257565b600034905061015182826102a6565b600061015c8261035c565b90508160045461016c919061090a565b60048190555061017c8382610373565b8273ffffffffffffffffffffffffffffffffffffffff1661019b610132565b73ffffffffffffffffffffffffffffffffffffffff167f6faf93231a456e552dbc9961f58d9713ee4f2e69d15f1975b050ef0911053a7b84846040516101e292919061093e565b60405180910390a36101f2610381565b50506101fc6103ec565b50565b60035481565b600260009054906101000a900473ffffffffffffffffffffffffffffffffffffffff1681565b60045481565b600160009054906101000a900473ffffffffffffffffffffffffffffffffffffffff1681565b60026000540361029c576040517f08c379a0000000000000000000000000000000000000000000000000000000008152600401610293906109c4565b60405180910390fd5b6002600081905550565b600073ffffffffffffffffffffffffffffffffffffffff168273ffffffffffffffffffffffffffffffffffffffff1603610315576040517f08c379a000000000000000000000000000000000000000000000000000000000815260040161030c90610a56565b60405180910390fd5b60008103610358576040517f08c379a000000000000000000000000000000000000000000000000000000000815260040161034f90610ac2565b60405180910390fd5b5050565b60006003548261036c9190610ae2565b9050919050565b61037d82826103f6565b5050565b600260009054906101000a900473ffffffffffffffffffffffffffffffffffffffff1673ffffffffffffffffffffffffffffffffffffffff166108fc349081150290604051600060405180830381858888f193505050501580156103e9573d6000803e3d6000fd5b50565b6001600081905550565b6104438282600160009054906101000a900473ffffffffffffffffffffffffffffffffffffffff1673ffffffffffffffffffffffffffffffffffffffff166104479092919063ffffffff16565b5050565b6104c88363a9059cbb60e01b8484604051602401610466929190610b33565b604051602081830303815290604052907bffffffffffffffffffffffffffffffffffffffffffffffffffffffff19166020820180517bffffffffffffffffffffffffffffffffffffffffffffffffffffffff83818316178352505050506104cd565b505050565b600061052f826040518060400160405280602081526020017f5361666545524332303a206c6f772d6c6576656c2063616c6c206661696c65648152508573ffffffffffffffffffffffffffffffffffffffff166105949092919063ffffffff16565b905060008151111561058f578080602001905181019061054f9190610b94565b61058e576040517f08c379a000000000000000000000000000000000000000000000000000000000815260040161058590610c33565b60405180910390fd5b5b505050565b60606105a384846000856105ac565b90509392505050565b6060824710156105f1576040517f08c379a00000000000000000000000000000000000000000000000000000000081526004016105e890610cc5565b60405180910390fd5b6000808673ffffffffffffffffffffffffffffffffffffffff16858760405161061a9190610d56565b60006040518083038185875af1925050503d8060008114610657576040519150601f19603f3d011682016040523d82523d6000602084013e61065c565b606091505b509150915061066d87838387610679565b92505050949350505050565b606083156106db5760008351036106d357610693856106ee565b6106d2576040517f08c379a00000000000000000000000000000000000000000000000000000000081526004016106c990610db9565b60405180910390fd5b5b8290506106e6565b6106e58383610711565b5b949350505050565b6000808273ffffffffffffffffffffffffffffffffffffffff163b119050919050565b6000825111156107245781518083602001fd5b806040517f08c379a00000000000000000000000000000000000000000000000000000000081526004016107589190610e2e565b60405180910390fd5b6000819050919050565b61077481610761565b82525050565b600060208201905061078f600083018461076b565b92915050565b600073ffffffffffffffffffffffffffffffffffffffff82169050919050565b60006107c082610795565b9050919050565b6107d0816107b5565b82525050565b60006020820190506107eb60008301846107c7565b92915050565b600080fd5b600061080182610795565b9050919050565b610811816107f6565b811461081c57600080fd5b50565b60008135905061082e81610808565b92915050565b60006020828403121561084a576108496107f1565b5b60006108588482850161081f565b91505092915050565b6000819050919050565b600061088661088161087c84610795565b610861565b610795565b9050919050565b60006108988261086b565b9050919050565b60006108aa8261088d565b9050919050565b6108ba8161089f565b82525050565b60006020820190506108d560008301846108b1565b92915050565b7f4e487b7100000000000000000000000000000000000000000000000000000000600052601160045260246000fd5b600061091582610761565b915061092083610761565b9250828201905080821115610938576109376108db565b5b92915050565b6000604082019050610953600083018561076b565b610960602083018461076b565b9392505050565b600082825260208201905092915050565b7f5265656e7472616e637947756172643a207265656e7472616e742063616c6c00600082015250565b60006109ae601f83610967565b91506109b982610978565b602082019050919050565b600060208201905081810360008301526109dd816109a1565b9050919050565b7f43726f776473616c653a2042454e45464943494152595f414444524553535f5a60008201527f45524f0000000000000000000000000000000000000000000000000000000000602082015250565b6000610a40602383610967565b9150610a4b826109e4565b604082019050919050565b60006020820190508181036000830152610a6f81610a33565b9050919050565b7f43726f776473616c653a205a45524f5f414d4f554e5400000000000000000000600082015250565b6000610aac601683610967565b9150610ab782610a76565b602082019050919050565b60006020820190508181036000830152610adb81610a9f565b9050919050565b6000610aed82610761565b9150610af883610761565b9250828202610b0681610761565b91508282048414831517610b1d57610b1c6108db565b5b5092915050565b610b2d816107f6565b82525050565b6000604082019050610b486000830185610b24565b610b55602083018461076b565b9392505050565b60008115159050919050565b610b7181610b5c565b8114610b7c57600080fd5b50565b600081519050610b8e81610b68565b92915050565b600060208284031215610baa57610ba96107f1565b5b6000610bb884828501610b7f565b91505092915050565b7f5361666545524332303a204552433230206f7065726174696f6e20646964206e60008201527f6f74207375636365656400000000000000000000000000000000000000000000602082015250565b6000610c1d602a83610967565b9150610c2882610bc1565b604082019050919050565b60006020820190508181036000830152610c4c81610c10565b9050919050565b7f416464726573733a20696e73756666696369656e742062616c616e636520666f60008201527f722063616c6c0000000000000000000000000000000000000000000000000000602082015250565b6000610caf602683610967565b9150610cba82610c53565b604082019050919050565b60006020820190508181036000830152610cde81610ca2565b9050919050565b600081519050919050565b600081905092915050565b60005b83811015610d19578082015181840152602081019050610cfe565b60008484015250505050565b6000610d3082610ce5565b610d3a8185610cf0565b9350610d4a818560208601610cfb565b80840191505092915050565b6000610d628284610d25565b915081905092915050565b7f416464726573733a2063616c6c20746f206e6f6e2d636f6e7472616374000000600082015250565b6000610da3601d83610967565b9150610dae82610d6d565b602082019050919050565b60006020820190508181036000830152610dd281610d96565b9050919050565b600081519050919050565b6000601f19601f8301169050919050565b6000610e0082610dd9565b610e0a8185610967565b9350610e1a818560208601610cfb565b610e2381610de4565b840191505092915050565b60006020820190508181036000830152610e488184610df5565b90509291505056fea2646970667358221220f38c5adb2a4a08be8de9854287f229e379839c03932b7ec70ee5ead0b76fc6bc64736f6c63430008110033",
  "immutableReferences": {},
  "source": "// SPDX-License-Identifier: MIT\r\npragma solidity 0.8.17;\r\n\r\nimport \"@openzeppelin/contracts/utils/Context.sol\";\r\nimport \"@openzeppelin/contracts/token/ERC20/IERC20.sol\";\r\nimport \"@openzeppelin/contracts/token/ERC20/utils/SafeERC20.sol\";\r\nimport \"@openzeppelin/contracts/security/ReentrancyGuard.sol\";\r\n\r\n/**\r\n * @title Crowdsale\r\n * @dev Crowdsale is a base contract for managing a token crowdsale,\r\n * allowing investors to purchase tokens with ether. This contract implements\r\n * such functionality in its most fundamental form and can be extended to provide additional\r\n * functionality and/or custom behavior.\r\n * The external interface represents the basic interface for purchasing tokens, and conforms\r\n * the base architecture for crowdsales. It is *not* intended to be modified / overridden.\r\n * The internal interface conforms the extensible and modifiable surface of crowdsales. Override\r\n * the methods to add functionality. Consider using 'super' where appropriate to concatenate\r\n * behavior.\r\n */\r\ncontract Crowdsale is Context, ReentrancyGuard {\r\n    using SafeERC20 for IERC20;\r\n\r\n    // The token being sold\r\n    IERC20 public token;\r\n\r\n    // Address where funds are collected\r\n    address payable public wallet;\r\n\r\n    // How many token units a buyer gets per wei.\r\n    // The rate is the conversion between wei and the smallest and indivisible token unit.\r\n    // So, if you are using a rate of 1 with a ERC20Detailed token with 3 decimals called TOK\r\n    // 1 wei will give you 1 unit, or 0.001 TOK.\r\n    uint256 public rate;\r\n\r\n    // Amount of raised in wei\r\n    uint256 public raised;\r\n\r\n    /**\r\n     * Event for token purchase logging\r\n     * @param purchaser who paid for the tokens\r\n     * @param beneficiary who got the tokens\r\n     * @param value weis paid for purchase\r\n     * @param amount amount of tokens purchased\r\n     */\r\n    event TokensPurchased(\r\n        address indexed purchaser,\r\n        address indexed beneficiary,\r\n        uint256 value,\r\n        uint256 amount\r\n    );\r\n\r\n    /**\r\n     * @param _rate Number of token units a buyer gets per wei\r\n     * @dev The rate is the conversion between wei and the smallest and indivisible\r\n     * token unit. So, if you are using a rate of 1 with a ERC20Detailed token\r\n     * with 3 decimals called TOK, 1 wei will give you 1 unit, or 0.001 TOK.\r\n     * @param _wallet Address where collected funds will be forwarded to\r\n     * @param _token Address of the token being sold\r\n     */\r\n    constructor(uint256 _rate, address _wallet, IERC20 _token) {\r\n        require(_rate > 0, \"Crowdsale: ZERO_RATE\");\r\n        require(_wallet != address(0), \"Crowdsale: WALLET_ADDRESS_ZERO\");\r\n        require(address(_token) != address(0), \"Crowdsale: TOKEN_ADDRESS_ZERO\");\r\n\r\n        rate = _rate;\r\n        wallet = payable(_wallet);\r\n        token = _token;\r\n    }\r\n\r\n    /**\r\n     * @dev fallback function ***DO NOT OVERRIDE***\r\n     * Note that other contracts will transfer funds with a base gas stipend\r\n     * of 2300, which is not enough to call buyTokens. Consider calling\r\n     * buyTokens directly when purchasing tokens from a contract.\r\n     */\r\n    receive() external payable {\r\n        buyTokens(_msgSender());\r\n    }\r\n\r\n    /**\r\n     * @dev low level token purchase ***DO NOT OVERRIDE***\r\n     * This function has a non-reentrancy guard, so it shouldn't be called by\r\n     * another `nonReentrant` function.\r\n     * @param beneficiary Recipient of the token purchase\r\n     */\r\n    function buyTokens(address beneficiary) public payable nonReentrant {\r\n        uint256 amount = msg.value;\r\n        _preValidatePurchase(beneficiary, amount);\r\n\r\n        // calculate token amount to be created\r\n        uint256 tokens = _getTokenAmount(amount);\r\n\r\n        // update state\r\n        raised = raised + amount;\r\n\r\n        _processPurchase(beneficiary, tokens);\r\n        emit TokensPurchased(_msgSender(), beneficiary, amount, tokens);\r\n\r\n        // _updatePurchasingState(beneficiary, amount);\r\n\r\n        _forwardFunds();\r\n        // _postValidatePurchase(beneficiary, amount);\r\n    }\r\n\r\n    /**\r\n     * @dev Validation of an incoming purchase. Use require statements to revert state when conditions are not met.\r\n     * Use `super` in contracts that inherit from Crowdsale to extend their validations.\r\n     * Example from CappedCrowdsale.sol's _preValidatePurchase method:\r\n     *     super._preValidatePurchase(beneficiary, amount);\r\n     *     require(weiRaised().add(amount) <= cap);\r\n     * @param beneficiary Address performing the token purchase\r\n     * @param amount Value in wei involved in the purchase\r\n     */\r\n    function _preValidatePurchase(\r\n        address beneficiary,\r\n        uint256 amount\r\n    ) internal view virtual {\r\n        require(\r\n            beneficiary != address(0),\r\n            \"Crowdsale: BENEFICIARY_ADDRESS_ZERO\"\r\n        );\r\n        require(amount != 0, \"Crowdsale: ZERO_AMOUNT\");\r\n        this; // silence state mutability warning without generating bytecode - see https://github.com/ethereum/solidity/issues/2691\r\n    }\r\n\r\n    /**\r\n     * @dev Validation of an executed purchase. Observe state and use revert statements to\r\n     * undo rollback when valid conditions are not met.\r\n     * @param beneficiary Address performing the token purchase\r\n     * @param amount Value in wei involved in the purchase\r\n     */\r\n    function _postValidatePurchase(\r\n        address beneficiary,\r\n        uint256 amount\r\n    ) internal view virtual {\r\n        // solhint-disable-previous-line no-empty-blocks\r\n    }\r\n\r\n    /**\r\n     * @dev Source of tokens. Override this method to modify the way in which\r\n     * the crowdsale ultimately gets and sends its tokens.\r\n     * @param beneficiary Address performing the token purchase\r\n     * @param amount Number of tokens to be emitted\r\n     */\r\n    function _deliverTokens(\r\n        address beneficiary,\r\n        uint256 amount\r\n    ) internal virtual {\r\n        token.safeTransfer(beneficiary, amount);\r\n    }\r\n\r\n    /**\r\n     * @dev Executed when a purchase has been validated and is ready to be executed.\r\n     * Doesn't necessarily emit/send tokens.\r\n     * @param beneficiary Address receiving the tokens\r\n     * @param amount Number of tokens to be purchased\r\n     */\r\n    function _processPurchase(\r\n        address beneficiary,\r\n        uint256 amount\r\n    ) internal virtual {\r\n        _deliverTokens(beneficiary, amount);\r\n    }\r\n\r\n    /**\r\n     * @dev Override for extensions that require an internal state to\r\n     * check for validity (current user contributions, etc).\r\n     * @param beneficiary Address receiving the tokens\r\n     * @param amount Value in wei involved in the purchase\r\n     */\r\n    function _updatePurchasingState(\r\n        address beneficiary,\r\n        uint256 amount\r\n    ) internal virtual {\r\n        // solhint-disable-previous-line no-empty-blocks\r\n    }\r\n\r\n    /**\r\n     * @dev Override to extend the way in which ether is converted to tokens.\r\n     * @param amount Value in wei to be converted into tokens\r\n     * @return Number of tokens that can be purchased with the specified _amount\r\n     */\r\n    function _getTokenAmount(uint256 amount) internal view returns (uint256) {\r\n        return amount * rate;\r\n    }\r\n\r\n    /**F\r\n     * @dev Determines how ETH is stored/forwarded on purchases.\r\n     */\r\n    function _forwardFunds() internal virtual {\r\n        wallet.transfer(msg.value);\r\n    }\r\n}\r\n",
  "sourcePath": "D:\\Office\\DAPP\\DoAnBlockchain\\Project\\truffle\\contracts\\Crowdsale.sol",
  "compiler": {
    "name": "solc",
    "version": "0.8.17+commit.8df45f5f.Emscripten.clang"
  },
  "schemaVersion": "3.4.10",
  "updatedAt": "2022-11-29T12:34:40.125Z",
  "devdoc": {
    "details": "Crowdsale is a base contract for managing a token crowdsale, allowing investors to purchase tokens with ether. This contract implements such functionality in its most fundamental form and can be extended to provide additional functionality and/or custom behavior. The external interface represents the basic interface for purchasing tokens, and conforms the base architecture for crowdsales. It is *not* intended to be modified / overridden. The internal interface conforms the extensible and modifiable surface of crowdsales. Override the methods to add functionality. Consider using 'super' where appropriate to concatenate behavior.",
    "events": {
      "TokensPurchased(address,address,uint256,uint256)": {
        "params": {
          "amount": "amount of tokens purchased",
          "beneficiary": "who got the tokens",
          "purchaser": "who paid for the tokens",
          "value": "weis paid for purchase"
        }
      }
    },
    "kind": "dev",
    "methods": {
      "buyTokens(address)": {
        "details": "low level token purchase ***DO NOT OVERRIDE*** This function has a non-reentrancy guard, so it shouldn't be called by another `nonReentrant` function.",
        "params": {
          "beneficiary": "Recipient of the token purchase"
        }
      },
      "constructor": {
        "details": "The rate is the conversion between wei and the smallest and indivisible token unit. So, if you are using a rate of 1 with a ERC20Detailed token with 3 decimals called TOK, 1 wei will give you 1 unit, or 0.001 TOK.",
        "params": {
          "_rate": "Number of token units a buyer gets per wei",
          "_token": "Address of the token being sold",
          "_wallet": "Address where collected funds will be forwarded to"
        }
      }
    },
    "title": "Crowdsale",
    "version": 1
  },
  "userdoc": {
    "events": {
      "TokensPurchased(address,address,uint256,uint256)": {
        "notice": "Event for token purchase logging"
      }
    },
    "kind": "user",
    "methods": {},
    "version": 1
  }
}