{
  "contractName": "FxEthersToken",
  "abi": [
    {
      "inputs": [
        {
          "internalType": "uint256",
          "name": "initialSupply",
          "type": "uint256"
        },
        {
          "internalType": "address",
          "name": "_treasury",
          "type": "address"
        },
        {
          "internalType": "contract ControlTower",
          "name": "_controlTower",
          "type": "address"
        }
      ],
      "stateMutability": "nonpayable",
      "type": "constructor"
    },
    {
      "anonymous": false,
      "inputs": [
        {
          "indexed": true,
          "internalType": "address",
          "name": "owner",
          "type": "address"
        },
        {
          "indexed": true,
          "internalType": "address",
          "name": "spender",
          "type": "address"
        },
        {
          "indexed": false,
          "internalType": "uint256",
          "name": "value",
          "type": "uint256"
        }
      ],
      "name": "Approval",
      "type": "event"
    },
    {
      "anonymous": false,
      "inputs": [
        {
          "indexed": true,
          "internalType": "address",
          "name": "from",
          "type": "address"
        },
        {
          "indexed": true,
          "internalType": "address",
          "name": "to",
          "type": "address"
        },
        {
          "indexed": false,
          "internalType": "uint256",
          "name": "value",
          "type": "uint256"
        }
      ],
      "name": "Transfer",
      "type": "event"
    },
    {
      "inputs": [
        {
          "internalType": "address",
          "name": "owner",
          "type": "address"
        },
        {
          "internalType": "address",
          "name": "spender",
          "type": "address"
        }
      ],
      "name": "allowance",
      "outputs": [
        {
          "internalType": "uint256",
          "name": "",
          "type": "uint256"
        }
      ],
      "stateMutability": "view",
      "type": "function",
      "constant": true
    },
    {
      "inputs": [
        {
          "internalType": "address",
          "name": "spender",
          "type": "address"
        },
        {
          "internalType": "uint256",
          "name": "amount",
          "type": "uint256"
        }
      ],
      "name": "approve",
      "outputs": [
        {
          "internalType": "bool",
          "name": "",
          "type": "bool"
        }
      ],
      "stateMutability": "nonpayable",
      "type": "function"
    },
    {
      "inputs": [
        {
          "internalType": "address",
          "name": "account",
          "type": "address"
        }
      ],
      "name": "balanceOf",
      "outputs": [
        {
          "internalType": "uint256",
          "name": "",
          "type": "uint256"
        }
      ],
      "stateMutability": "view",
      "type": "function",
      "constant": true
    },
    {
      "inputs": [],
      "name": "controlTower",
      "outputs": [
        {
          "internalType": "contract ControlTower",
          "name": "",
          "type": "address"
        }
      ],
      "stateMutability": "view",
      "type": "function",
      "constant": true
    },
    {
      "inputs": [],
      "name": "decimals",
      "outputs": [
        {
          "internalType": "uint8",
          "name": "",
          "type": "uint8"
        }
      ],
      "stateMutability": "view",
      "type": "function",
      "constant": true
    },
    {
      "inputs": [
        {
          "internalType": "address",
          "name": "spender",
          "type": "address"
        },
        {
          "internalType": "uint256",
          "name": "subtractedValue",
          "type": "uint256"
        }
      ],
      "name": "decreaseAllowance",
      "outputs": [
        {
          "internalType": "bool",
          "name": "",
          "type": "bool"
        }
      ],
      "stateMutability": "nonpayable",
      "type": "function"
    },
    {
      "inputs": [
        {
          "internalType": "address",
          "name": "spender",
          "type": "address"
        },
        {
          "internalType": "uint256",
          "name": "addedValue",
          "type": "uint256"
        }
      ],
      "name": "increaseAllowance",
      "outputs": [
        {
          "internalType": "bool",
          "name": "",
          "type": "bool"
        }
      ],
      "stateMutability": "nonpayable",
      "type": "function"
    },
    {
      "inputs": [],
      "name": "name",
      "outputs": [
        {
          "internalType": "string",
          "name": "",
          "type": "string"
        }
      ],
      "stateMutability": "view",
      "type": "function",
      "constant": true
    },
    {
      "inputs": [],
      "name": "symbol",
      "outputs": [
        {
          "internalType": "string",
          "name": "",
          "type": "string"
        }
      ],
      "stateMutability": "view",
      "type": "function",
      "constant": true
    },
    {
      "inputs": [],
      "name": "totalSupply",
      "outputs": [
        {
          "internalType": "uint256",
          "name": "",
          "type": "uint256"
        }
      ],
      "stateMutability": "view",
      "type": "function",
      "constant": true
    },
    {
      "inputs": [
        {
          "internalType": "address",
          "name": "to",
          "type": "address"
        },
        {
          "internalType": "uint256",
          "name": "amount",
          "type": "uint256"
        }
      ],
      "name": "transfer",
      "outputs": [
        {
          "internalType": "bool",
          "name": "",
          "type": "bool"
        }
      ],
      "stateMutability": "nonpayable",
      "type": "function"
    },
    {
      "inputs": [
        {
          "internalType": "address",
          "name": "from",
          "type": "address"
        },
        {
          "internalType": "address",
          "name": "to",
          "type": "address"
        },
        {
          "internalType": "uint256",
          "name": "amount",
          "type": "uint256"
        }
      ],
      "name": "transferFrom",
      "outputs": [
        {
          "internalType": "bool",
          "name": "",
          "type": "bool"
        }
      ],
      "stateMutability": "nonpayable",
      "type": "function"
    },
    {
      "inputs": [],
      "name": "treasury",
      "outputs": [
        {
          "internalType": "address",
          "name": "",
          "type": "address"
        }
      ],
      "stateMutability": "view",
      "type": "function",
      "constant": true
    },
    {
      "inputs": [
        {
          "internalType": "uint256",
          "name": "amount",
          "type": "uint256"
        }
      ],
      "name": "mint",
      "outputs": [],
      "stateMutability": "nonpayable",
      "type": "function"
    }
  ],
  "bytecode": "0x60c06040523480156200001157600080fd5b5060405162001f0838038062001f088339818101604052810190620000379190620003ad565b6040518060400160405280600e81526020017f467845746865727320546f6b656e0000000000000000000000000000000000008152506040518060400160405280600581526020017f46784554480000000000000000000000000000000000000000000000000000008152508160039081620000b4919062000679565b508060049081620000c6919062000679565b5050508073ffffffffffffffffffffffffffffffffffffffff1660808173ffffffffffffffffffffffffffffffffffffffff16815250508173ffffffffffffffffffffffffffffffffffffffff1660a08173ffffffffffffffffffffffffffffffffffffffff16815250506200014382846200014c60201b60201c565b5050506200087b565b600073ffffffffffffffffffffffffffffffffffffffff168273ffffffffffffffffffffffffffffffffffffffff1603620001be576040517f08c379a0000000000000000000000000000000000000000000000000000000008152600401620001b590620007c1565b60405180910390fd5b620001d260008383620002b960201b60201c565b8060026000828254620001e6919062000812565b92505081905550806000808473ffffffffffffffffffffffffffffffffffffffff1673ffffffffffffffffffffffffffffffffffffffff168152602001908152602001600020600082825401925050819055508173ffffffffffffffffffffffffffffffffffffffff16600073ffffffffffffffffffffffffffffffffffffffff167fddf252ad1be2c89b69c2b068fc378daa952ba7f163c4a11628f55a4df523b3ef836040516200029991906200085e565b60405180910390a3620002b560008383620002be60201b60201c565b5050565b505050565b505050565b600080fd5b6000819050919050565b620002dd81620002c8565b8114620002e957600080fd5b50565b600081519050620002fd81620002d2565b92915050565b600073ffffffffffffffffffffffffffffffffffffffff82169050919050565b6000620003308262000303565b9050919050565b620003428162000323565b81146200034e57600080fd5b50565b600081519050620003628162000337565b92915050565b6000620003758262000323565b9050919050565b620003878162000368565b81146200039357600080fd5b50565b600081519050620003a7816200037c565b92915050565b600080600060608486031215620003c957620003c8620002c3565b5b6000620003d986828701620002ec565b9350506020620003ec8682870162000351565b9250506040620003ff8682870162000396565b9150509250925092565b600081519050919050565b7f4e487b7100000000000000000000000000000000000000000000000000000000600052604160045260246000fd5b7f4e487b7100000000000000000000000000000000000000000000000000000000600052602260045260246000fd5b600060028204905060018216806200048b57607f821691505b602082108103620004a157620004a062000443565b5b50919050565b60008190508160005260206000209050919050565b60006020601f8301049050919050565b600082821b905092915050565b6000600883026200050b7fffffffffffffffffffffffffffffffffffffffffffffffffffffffffffffffff82620004cc565b620005178683620004cc565b95508019841693508086168417925050509392505050565b6000819050919050565b60006200055a620005546200054e84620002c8565b6200052f565b620002c8565b9050919050565b6000819050919050565b620005768362000539565b6200058e620005858262000561565b848454620004d9565b825550505050565b600090565b620005a562000596565b620005b28184846200056b565b505050565b5b81811015620005da57620005ce6000826200059b565b600181019050620005b8565b5050565b601f8211156200062957620005f381620004a7565b620005fe84620004bc565b810160208510156200060e578190505b620006266200061d85620004bc565b830182620005b7565b50505b505050565b600082821c905092915050565b60006200064e600019846008026200062e565b1980831691505092915050565b60006200066983836200063b565b9150826002028217905092915050565b620006848262000409565b67ffffffffffffffff811115620006a0576200069f62000414565b5b620006ac825462000472565b620006b9828285620005de565b600060209050601f831160018114620006f15760008415620006dc578287015190505b620006e885826200065b565b86555062000758565b601f1984166200070186620004a7565b60005b828110156200072b5784890151825560018201915060208501945060208101905062000704565b868310156200074b578489015162000747601f8916826200063b565b8355505b6001600288020188555050505b505050505050565b600082825260208201905092915050565b7f45524332303a206d696e7420746f20746865207a65726f206164647265737300600082015250565b6000620007a9601f8362000760565b9150620007b68262000771565b602082019050919050565b60006020820190508181036000830152620007dc816200079a565b9050919050565b7f4e487b7100000000000000000000000000000000000000000000000000000000600052601160045260246000fd5b60006200081f82620002c8565b91506200082c83620002c8565b9250828201905080821115620008475762000846620007e3565b5b92915050565b6200085881620002c8565b82525050565b60006020820190506200087560008301846200084d565b92915050565b60805160a051611659620008af6000396000818161046301526105ed0152600081816103c6015261056101526116596000f3fe608060405234801561001057600080fd5b50600436106100ea5760003560e01c806361d027b31161008c578063a0712d6811610066578063a0712d6814610263578063a457c2d71461027f578063a9059cbb146102af578063dd62ed3e146102df576100ea565b806361d027b3146101f757806370a082311461021557806395d89b4114610245576100ea565b806318160ddd116100c857806318160ddd1461015b57806323b872dd14610179578063313ce567146101a957806339509351146101c7576100ea565b806306fdde03146100ef578063095ea7b31461010d5780630975bb7e1461013d575b600080fd5b6100f761030f565b6040516101049190610df9565b60405180910390f35b61012760048036038101906101229190610eb4565b6103a1565b6040516101349190610f0f565b60405180910390f35b6101456103c4565b6040516101529190610f89565b60405180910390f35b6101636103e8565b6040516101709190610fb3565b60405180910390f35b610193600480360381019061018e9190610fce565b6103f2565b6040516101a09190610f0f565b60405180910390f35b6101b1610421565b6040516101be919061103d565b60405180910390f35b6101e160048036038101906101dc9190610eb4565b61042a565b6040516101ee9190610f0f565b60405180910390f35b6101ff610461565b60405161020c9190611067565b60405180910390f35b61022f600480360381019061022a9190611082565b610485565b60405161023c9190610fb3565b60405180910390f35b61024d6104cd565b60405161025a9190610df9565b60405180910390f35b61027d600480360381019061027891906110af565b61055f565b005b61029960048036038101906102949190610eb4565b610615565b6040516102a69190610f0f565b60405180910390f35b6102c960048036038101906102c49190610eb4565b61068c565b6040516102d69190610f0f565b60405180910390f35b6102f960048036038101906102f491906110dc565b6106af565b6040516103069190610fb3565b60405180910390f35b60606003805461031e9061114b565b80601f016020809104026020016040519081016040528092919081815260200182805461034a9061114b565b80156103975780601f1061036c57610100808354040283529160200191610397565b820191906000526020600020905b81548152906001019060200180831161037a57829003601f168201915b5050505050905090565b6000806103ac610736565b90506103b981858561073e565b600191505092915050565b7f000000000000000000000000000000000000000000000000000000000000000081565b6000600254905090565b6000806103fd610736565b905061040a858285610907565b610415858585610993565b60019150509392505050565b60006012905090565b600080610435610736565b905061045681858561044785896106af565b61045191906111ab565b61073e565b600191505092915050565b7f000000000000000000000000000000000000000000000000000000000000000081565b60008060008373ffffffffffffffffffffffffffffffffffffffff1673ffffffffffffffffffffffffffffffffffffffff168152602001908152602001600020549050919050565b6060600480546104dc9061114b565b80601f01602080910402602001604051908101604052809291908181526020018280546105089061114b565b80156105555780601f1061052a57610100808354040283529160200191610555565b820191906000526020600020905b81548152906001019060200180831161053857829003601f168201915b5050505050905090565b7f000000000000000000000000000000000000000000000000000000000000000073ffffffffffffffffffffffffffffffffffffffff16635139caa7336040518263ffffffff1660e01b81526004016105b89190611067565b60006040518083038186803b1580156105d057600080fd5b505afa1580156105e4573d6000803e3d6000fd5b505050506106127f000000000000000000000000000000000000000000000000000000000000000082610c09565b50565b600080610620610736565b9050600061062e82866106af565b905083811015610673576040517f08c379a000000000000000000000000000000000000000000000000000000000815260040161066a90611251565b60405180910390fd5b610680828686840361073e565b60019250505092915050565b600080610697610736565b90506106a4818585610993565b600191505092915050565b6000600160008473ffffffffffffffffffffffffffffffffffffffff1673ffffffffffffffffffffffffffffffffffffffff16815260200190815260200160002060008373ffffffffffffffffffffffffffffffffffffffff1673ffffffffffffffffffffffffffffffffffffffff16815260200190815260200160002054905092915050565b600033905090565b600073ffffffffffffffffffffffffffffffffffffffff168373ffffffffffffffffffffffffffffffffffffffff16036107ad576040517f08c379a00000000000000000000000000000000000000000000000000000000081526004016107a4906112e3565b60405180910390fd5b600073ffffffffffffffffffffffffffffffffffffffff168273ffffffffffffffffffffffffffffffffffffffff160361081c576040517f08c379a000000000000000000000000000000000000000000000000000000000815260040161081390611375565b60405180910390fd5b80600160008573ffffffffffffffffffffffffffffffffffffffff1673ffffffffffffffffffffffffffffffffffffffff16815260200190815260200160002060008473ffffffffffffffffffffffffffffffffffffffff1673ffffffffffffffffffffffffffffffffffffffff168152602001908152602001600020819055508173ffffffffffffffffffffffffffffffffffffffff168373ffffffffffffffffffffffffffffffffffffffff167f8c5be1e5ebec7d5bd14f71427d1e84f3dd0314c0f7b2291e5b200ac8c7c3b925836040516108fa9190610fb3565b60405180910390a3505050565b600061091384846106af565b90507fffffffffffffffffffffffffffffffffffffffffffffffffffffffffffffffff811461098d578181101561097f576040517f08c379a0000000000000000000000000000000000000000000000000000000008152600401610976906113e1565b60405180910390fd5b61098c848484840361073e565b5b50505050565b600073ffffffffffffffffffffffffffffffffffffffff168373ffffffffffffffffffffffffffffffffffffffff1603610a02576040517f08c379a00000000000000000000000000000000000000000000000000000000081526004016109f990611473565b60405180910390fd5b600073ffffffffffffffffffffffffffffffffffffffff168273ffffffffffffffffffffffffffffffffffffffff1603610a71576040517f08c379a0000000000000000000000000000000000000000000000000000000008152600401610a6890611505565b60405180910390fd5b610a7c838383610d5f565b60008060008573ffffffffffffffffffffffffffffffffffffffff1673ffffffffffffffffffffffffffffffffffffffff16815260200190815260200160002054905081811015610b02576040517f08c379a0000000000000000000000000000000000000000000000000000000008152600401610af990611597565b60405180910390fd5b8181036000808673ffffffffffffffffffffffffffffffffffffffff1673ffffffffffffffffffffffffffffffffffffffff16815260200190815260200160002081905550816000808573ffffffffffffffffffffffffffffffffffffffff1673ffffffffffffffffffffffffffffffffffffffff168152602001908152602001600020600082825401925050819055508273ffffffffffffffffffffffffffffffffffffffff168473ffffffffffffffffffffffffffffffffffffffff167fddf252ad1be2c89b69c2b068fc378daa952ba7f163c4a11628f55a4df523b3ef84604051610bf09190610fb3565b60405180910390a3610c03848484610d64565b50505050565b600073ffffffffffffffffffffffffffffffffffffffff168273ffffffffffffffffffffffffffffffffffffffff1603610c78576040517f08c379a0000000000000000000000000000000000000000000000000000000008152600401610c6f90611603565b60405180910390fd5b610c8460008383610d5f565b8060026000828254610c9691906111ab565b92505081905550806000808473ffffffffffffffffffffffffffffffffffffffff1673ffffffffffffffffffffffffffffffffffffffff168152602001908152602001600020600082825401925050819055508173ffffffffffffffffffffffffffffffffffffffff16600073ffffffffffffffffffffffffffffffffffffffff167fddf252ad1be2c89b69c2b068fc378daa952ba7f163c4a11628f55a4df523b3ef83604051610d479190610fb3565b60405180910390a3610d5b60008383610d64565b5050565b505050565b505050565b600081519050919050565b600082825260208201905092915050565b60005b83811015610da3578082015181840152602081019050610d88565b60008484015250505050565b6000601f19601f8301169050919050565b6000610dcb82610d69565b610dd58185610d74565b9350610de5818560208601610d85565b610dee81610daf565b840191505092915050565b60006020820190508181036000830152610e138184610dc0565b905092915050565b600080fd5b600073ffffffffffffffffffffffffffffffffffffffff82169050919050565b6000610e4b82610e20565b9050919050565b610e5b81610e40565b8114610e6657600080fd5b50565b600081359050610e7881610e52565b92915050565b6000819050919050565b610e9181610e7e565b8114610e9c57600080fd5b50565b600081359050610eae81610e88565b92915050565b60008060408385031215610ecb57610eca610e1b565b5b6000610ed985828601610e69565b9250506020610eea85828601610e9f565b9150509250929050565b60008115159050919050565b610f0981610ef4565b82525050565b6000602082019050610f246000830184610f00565b92915050565b6000819050919050565b6000610f4f610f4a610f4584610e20565b610f2a565b610e20565b9050919050565b6000610f6182610f34565b9050919050565b6000610f7382610f56565b9050919050565b610f8381610f68565b82525050565b6000602082019050610f9e6000830184610f7a565b92915050565b610fad81610e7e565b82525050565b6000602082019050610fc86000830184610fa4565b92915050565b600080600060608486031215610fe757610fe6610e1b565b5b6000610ff586828701610e69565b935050602061100686828701610e69565b925050604061101786828701610e9f565b9150509250925092565b600060ff82169050919050565b61103781611021565b82525050565b6000602082019050611052600083018461102e565b92915050565b61106181610e40565b82525050565b600060208201905061107c6000830184611058565b92915050565b60006020828403121561109857611097610e1b565b5b60006110a684828501610e69565b91505092915050565b6000602082840312156110c5576110c4610e1b565b5b60006110d384828501610e9f565b91505092915050565b600080604083850312156110f3576110f2610e1b565b5b600061110185828601610e69565b925050602061111285828601610e69565b9150509250929050565b7f4e487b7100000000000000000000000000000000000000000000000000000000600052602260045260246000fd5b6000600282049050600182168061116357607f821691505b6020821081036111765761117561111c565b5b50919050565b7f4e487b7100000000000000000000000000000000000000000000000000000000600052601160045260246000fd5b60006111b682610e7e565b91506111c183610e7e565b92508282019050808211156111d9576111d861117c565b5b92915050565b7f45524332303a2064656372656173656420616c6c6f77616e63652062656c6f7760008201527f207a65726f000000000000000000000000000000000000000000000000000000602082015250565b600061123b602583610d74565b9150611246826111df565b604082019050919050565b6000602082019050818103600083015261126a8161122e565b9050919050565b7f45524332303a20617070726f76652066726f6d20746865207a65726f2061646460008201527f7265737300000000000000000000000000000000000000000000000000000000602082015250565b60006112cd602483610d74565b91506112d882611271565b604082019050919050565b600060208201905081810360008301526112fc816112c0565b9050919050565b7f45524332303a20617070726f766520746f20746865207a65726f20616464726560008201527f7373000000000000000000000000000000000000000000000000000000000000602082015250565b600061135f602283610d74565b915061136a82611303565b604082019050919050565b6000602082019050818103600083015261138e81611352565b9050919050565b7f45524332303a20696e73756666696369656e7420616c6c6f77616e6365000000600082015250565b60006113cb601d83610d74565b91506113d682611395565b602082019050919050565b600060208201905081810360008301526113fa816113be565b9050919050565b7f45524332303a207472616e736665722066726f6d20746865207a65726f20616460008201527f6472657373000000000000000000000000000000000000000000000000000000602082015250565b600061145d602583610d74565b915061146882611401565b604082019050919050565b6000602082019050818103600083015261148c81611450565b9050919050565b7f45524332303a207472616e7366657220746f20746865207a65726f206164647260008201527f6573730000000000000000000000000000000000000000000000000000000000602082015250565b60006114ef602383610d74565b91506114fa82611493565b604082019050919050565b6000602082019050818103600083015261151e816114e2565b9050919050565b7f45524332303a207472616e7366657220616d6f756e742065786365656473206260008201527f616c616e63650000000000000000000000000000000000000000000000000000602082015250565b6000611581602683610d74565b915061158c82611525565b604082019050919050565b600060208201905081810360008301526115b081611574565b9050919050565b7f45524332303a206d696e7420746f20746865207a65726f206164647265737300600082015250565b60006115ed601f83610d74565b91506115f8826115b7565b602082019050919050565b6000602082019050818103600083015261161c816115e0565b905091905056fea264697066735822122041417f8e7de0f072eadb33de0c59933b621a20671f9ce00a7fe900af0f5057a164736f6c63430008110033",
  "immutableReferences": {
    "5840": [
      {
        "length": 32,
        "start": 966
      },
      {
        "length": 32,
        "start": 1377
      }
    ],
    "5842": [
      {
        "length": 32,
        "start": 1123
      },
      {
        "length": 32,
        "start": 1517
      }
    ]
  },
  "source": "// SPDX-License-Identifier: MIT\n// FxEthers Contracts (last updated v1.0)\n\npragma solidity 0.8.17;\n\nimport \"@openzeppelin/contracts/token/ERC20/ERC20.sol\";\nimport \"../access/ControlTower.sol\";\n\ncontract FxEthersToken is ERC20 {\n    ControlTower public immutable controlTower;\n\n    address public immutable treasury;\n\n    constructor(\n        uint initialSupply,\n        address _treasury,\n        ControlTower _controlTower\n    ) ERC20(\"FxEthers Token\", \"FxETH\") {\n        controlTower = _controlTower;\n        treasury = _treasury;\n        _mint(_treasury, initialSupply);\n    }\n\n    function mint(uint amount) external {\n        controlTower.onlyTreasurer(msg.sender);\n        _mint(treasury, amount);\n    }\n}\n",
  "sourcePath": "/media/luc/Fdata/fxethers/truffle/contracts/tokens/FxEthersToken.sol",
  "compiler": {
    "name": "solc",
    "version": "0.8.17+commit.8df45f5f.Emscripten.clang"
  },
  "schemaVersion": "3.4.10",
  "updatedAt": "2023-02-03T17:23:18.504Z",
  "networkType": "ethereum",
  "devdoc": {
    "kind": "dev",
    "methods": {
      "allowance(address,address)": {
        "details": "See {IERC20-allowance}."
      },
      "approve(address,uint256)": {
        "details": "See {IERC20-approve}. NOTE: If `amount` is the maximum `uint256`, the allowance is not updated on `transferFrom`. This is semantically equivalent to an infinite approval. Requirements: - `spender` cannot be the zero address."
      },
      "balanceOf(address)": {
        "details": "See {IERC20-balanceOf}."
      },
      "decimals()": {
        "details": "Returns the number of decimals used to get its user representation. For example, if `decimals` equals `2`, a balance of `505` tokens should be displayed to a user as `5.05` (`505 / 10 ** 2`). Tokens usually opt for a value of 18, imitating the relationship between Ether and Wei. This is the value {ERC20} uses, unless this function is overridden; NOTE: This information is only used for _display_ purposes: it in no way affects any of the arithmetic of the contract, including {IERC20-balanceOf} and {IERC20-transfer}."
      },
      "decreaseAllowance(address,uint256)": {
        "details": "Atomically decreases the allowance granted to `spender` by the caller. This is an alternative to {approve} that can be used as a mitigation for problems described in {IERC20-approve}. Emits an {Approval} event indicating the updated allowance. Requirements: - `spender` cannot be the zero address. - `spender` must have allowance for the caller of at least `subtractedValue`."
      },
      "increaseAllowance(address,uint256)": {
        "details": "Atomically increases the allowance granted to `spender` by the caller. This is an alternative to {approve} that can be used as a mitigation for problems described in {IERC20-approve}. Emits an {Approval} event indicating the updated allowance. Requirements: - `spender` cannot be the zero address."
      },
      "name()": {
        "details": "Returns the name of the token."
      },
      "symbol()": {
        "details": "Returns the symbol of the token, usually a shorter version of the name."
      },
      "totalSupply()": {
        "details": "See {IERC20-totalSupply}."
      },
      "transfer(address,uint256)": {
        "details": "See {IERC20-transfer}. Requirements: - `to` cannot be the zero address. - the caller must have a balance of at least `amount`."
      },
      "transferFrom(address,address,uint256)": {
        "details": "See {IERC20-transferFrom}. Emits an {Approval} event indicating the updated allowance. This is not required by the EIP. See the note at the beginning of {ERC20}. NOTE: Does not update the allowance if the current allowance is the maximum `uint256`. Requirements: - `from` and `to` cannot be the zero address. - `from` must have a balance of at least `amount`. - the caller must have allowance for ``from``'s tokens of at least `amount`."
      }
    },
    "version": 1
  },
  "userdoc": {
    "kind": "user",
    "methods": {},
    "version": 1
  }
}