{
  "contractName": "FxTokenSale",
  "abi": [
    {
      "inputs": [
        {
          "internalType": "address",
          "name": "_treasury",
          "type": "address"
        },
        {
          "internalType": "uint256",
          "name": "_rate",
          "type": "uint256"
        },
        {
          "internalType": "contract IERC20",
          "name": "_token",
          "type": "address"
        },
        {
          "internalType": "contract ControlTower",
          "name": "_controlTower",
          "type": "address"
        }
      ],
      "stateMutability": "nonpayable",
      "type": "constructor"
    },
    {
      "anonymous": false,
      "inputs": [
        {
          "indexed": false,
          "internalType": "address",
          "name": "account",
          "type": "address"
        }
      ],
      "name": "Paused",
      "type": "event"
    },
    {
      "anonymous": false,
      "inputs": [
        {
          "indexed": true,
          "internalType": "address",
          "name": "purchaser",
          "type": "address"
        },
        {
          "indexed": true,
          "internalType": "address",
          "name": "beneficiary",
          "type": "address"
        },
        {
          "indexed": false,
          "internalType": "uint256",
          "name": "amountIn",
          "type": "uint256"
        },
        {
          "indexed": false,
          "internalType": "uint256",
          "name": "tokenOut",
          "type": "uint256"
        }
      ],
      "name": "TokensPurchased",
      "type": "event"
    },
    {
      "anonymous": false,
      "inputs": [
        {
          "indexed": false,
          "internalType": "address",
          "name": "account",
          "type": "address"
        }
      ],
      "name": "Unpaused",
      "type": "event"
    },
    {
      "inputs": [],
      "name": "controlTower",
      "outputs": [
        {
          "internalType": "contract ControlTower",
          "name": "",
          "type": "address"
        }
      ],
      "stateMutability": "view",
      "type": "function",
      "constant": true
    },
    {
      "inputs": [],
      "name": "paused",
      "outputs": [
        {
          "internalType": "bool",
          "name": "",
          "type": "bool"
        }
      ],
      "stateMutability": "view",
      "type": "function",
      "constant": true
    },
    {
      "inputs": [],
      "name": "raised",
      "outputs": [
        {
          "internalType": "uint256",
          "name": "",
          "type": "uint256"
        }
      ],
      "stateMutability": "view",
      "type": "function",
      "constant": true
    },
    {
      "inputs": [],
      "name": "rate",
      "outputs": [
        {
          "internalType": "uint256",
          "name": "",
          "type": "uint256"
        }
      ],
      "stateMutability": "view",
      "type": "function",
      "constant": true
    },
    {
      "inputs": [],
      "name": "token",
      "outputs": [
        {
          "internalType": "contract IERC20",
          "name": "",
          "type": "address"
        }
      ],
      "stateMutability": "view",
      "type": "function",
      "constant": true
    },
    {
      "inputs": [],
      "name": "treasury",
      "outputs": [
        {
          "internalType": "address",
          "name": "",
          "type": "address"
        }
      ],
      "stateMutability": "view",
      "type": "function",
      "constant": true
    },
    {
      "stateMutability": "payable",
      "type": "receive",
      "payable": true
    },
    {
      "inputs": [
        {
          "internalType": "uint256",
          "name": "_rate",
          "type": "uint256"
        }
      ],
      "name": "setRate",
      "outputs": [],
      "stateMutability": "nonpayable",
      "type": "function"
    },
    {
      "inputs": [
        {
          "internalType": "address",
          "name": "beneficiary",
          "type": "address"
        }
      ],
      "name": "buyTokens",
      "outputs": [],
      "stateMutability": "payable",
      "type": "function",
      "payable": true
    },
    {
      "inputs": [
        {
          "internalType": "uint256",
          "name": "amountIn",
          "type": "uint256"
        }
      ],
      "name": "getEstimateToken",
      "outputs": [
        {
          "internalType": "uint256",
          "name": "",
          "type": "uint256"
        }
      ],
      "stateMutability": "view",
      "type": "function",
      "constant": true
    },
    {
      "inputs": [],
      "name": "available",
      "outputs": [
        {
          "internalType": "uint256",
          "name": "",
          "type": "uint256"
        }
      ],
      "stateMutability": "view",
      "type": "function",
      "constant": true
    }
  ],
  "bytecode": "0x60e06040523480156200001157600080fd5b50604051620015c6380380620015c68339818101604052810190620000379190620003cf565b60008060006101000a81548160ff0219169083151502179055506001808190555060008084116200009f576040517f08c379a00000000000000000000000000000000000000000000000000000000081526004016200009690620004a2565b60405180910390fd5b8073ffffffffffffffffffffffffffffffffffffffff168573ffffffffffffffffffffffffffffffffffffffff160362000110576040517f08c379a0000000000000000000000000000000000000000000000000000000008152600401620001079062000514565b60405180910390fd5b8073ffffffffffffffffffffffffffffffffffffffff168373ffffffffffffffffffffffffffffffffffffffff160362000181576040517f08c379a0000000000000000000000000000000000000000000000000000000008152600401620001789062000514565b60405180910390fd5b8073ffffffffffffffffffffffffffffffffffffffff168273ffffffffffffffffffffffffffffffffffffffff1603620001f2576040517f08c379a0000000000000000000000000000000000000000000000000000000008152600401620001e99062000514565b60405180910390fd5b836002819055508473ffffffffffffffffffffffffffffffffffffffff1660c08173ffffffffffffffffffffffffffffffffffffffff16815250508273ffffffffffffffffffffffffffffffffffffffff1660a08173ffffffffffffffffffffffffffffffffffffffff16815250508173ffffffffffffffffffffffffffffffffffffffff1660808173ffffffffffffffffffffffffffffffffffffffff1681525050505050505062000536565b600080fd5b600073ffffffffffffffffffffffffffffffffffffffff82169050919050565b6000620002d282620002a5565b9050919050565b620002e481620002c5565b8114620002f057600080fd5b50565b6000815190506200030481620002d9565b92915050565b6000819050919050565b6200031f816200030a565b81146200032b57600080fd5b50565b6000815190506200033f8162000314565b92915050565b60006200035282620002c5565b9050919050565b620003648162000345565b81146200037057600080fd5b50565b600081519050620003848162000359565b92915050565b60006200039782620002c5565b9050919050565b620003a9816200038a565b8114620003b557600080fd5b50565b600081519050620003c9816200039e565b92915050565b60008060008060808587031215620003ec57620003eb620002a0565b5b6000620003fc87828801620002f3565b94505060206200040f878288016200032e565b9350506040620004228782880162000373565b92505060606200043587828801620003b8565b91505092959194509250565b600082825260208201905092915050565b7f546f6b656e53616c653a205a45524f5f52415445000000000000000000000000600082015250565b60006200048a60148362000441565b9150620004978262000452565b602082019050919050565b60006020820190508181036000830152620004bd816200047b565b9050919050565b7f546f6b656e53616c653a20414444524553535f5a45524f000000000000000000600082015250565b6000620004fc60178362000441565b91506200050982620004c4565b602082019050919050565b600060208201905081810360008301526200052f81620004ed565b9050919050565b60805160a05160c051611021620005a5600039600081816103e70152818161048a015281816106bf0152818161077d015261082b01526000818161044e0152818161068301528181610741015261085501526000818161033e0152818161058a01526105e601526110216000f3fe6080604052600436106100955760003560e01c80635c975abb116100595780635c975abb1461019857806361d027b3146101c3578063ec8ac4d8146101ee578063f0ea4bfc1461020a578063fc0c546a14610235576100ac565b80630975bb7e146100b157806309eec58c146100dc5780632c4e722e1461011957806334fcf4371461014457806348a0d7541461016d576100ac565b366100ac576100aa6100a5610260565b610268565b005b600080fd5b3480156100bd57600080fd5b506100c6610588565b6040516100d391906109e1565b60405180910390f35b3480156100e857600080fd5b5061010360048036038101906100fe9190610a37565b6105ac565b6040516101109190610a73565b60405180910390f35b34801561012557600080fd5b5061012e6105d6565b60405161013b9190610a73565b60405180910390f35b34801561015057600080fd5b5061016b60048036038101906101669190610a37565b6105dc565b005b34801561017957600080fd5b5061018261067e565b60405161018f9190610a73565b60405180910390f35b3480156101a457600080fd5b506101ad610813565b6040516101ba9190610aa9565b60405180910390f35b3480156101cf57600080fd5b506101d8610829565b6040516101e59190610ae5565b60405180910390f35b61020860048036038101906102039190610b2c565b610268565b005b34801561021657600080fd5b5061021f61084d565b60405161022c9190610a73565b60405180910390f35b34801561024157600080fd5b5061024a610853565b6040516102579190610b7a565b60405180910390f35b600033905090565b610270610877565b6102786108c6565b60003490506000610288826105ac565b9050600081116102cd576040517f08c379a00000000000000000000000000000000000000000000000000000000081526004016102c490610bf2565b60405180910390fd5b600073ffffffffffffffffffffffffffffffffffffffff168373ffffffffffffffffffffffffffffffffffffffff160361033c576040517f08c379a000000000000000000000000000000000000000000000000000000000815260040161033390610c5e565b60405180910390fd5b7f000000000000000000000000000000000000000000000000000000000000000073ffffffffffffffffffffffffffffffffffffffff166352ddf316610380610260565b6040518263ffffffff1660e01b815260040161039c9190610ae5565b60006040518083038186803b1580156103b457600080fd5b505afa1580156103c8573d6000803e3d6000fd5b5050505081600360008282546103de9190610cad565b925050819055507f000000000000000000000000000000000000000000000000000000000000000073ffffffffffffffffffffffffffffffffffffffff166108fc479081150290604051600060405180830381858888f1935050505015801561044b573d6000803e3d6000fd5b507f000000000000000000000000000000000000000000000000000000000000000073ffffffffffffffffffffffffffffffffffffffff166323b872dd7f000000000000000000000000000000000000000000000000000000000000000085846040518463ffffffff1660e01b81526004016104c993929190610ce1565b6020604051808303816000875af11580156104e8573d6000803e3d6000fd5b505050506040513d601f19601f8201168201806040525081019061050c9190610d44565b508273ffffffffffffffffffffffffffffffffffffffff1661052c610260565b73ffffffffffffffffffffffffffffffffffffffff167f6faf93231a456e552dbc9961f58d9713ee4f2e69d15f1975b050ef0911053a7b8484604051610573929190610d71565b60405180910390a35050610585610910565b50565b7f000000000000000000000000000000000000000000000000000000000000000081565b6000670de0b6b3a7640000600254836105c59190610d9a565b6105cf9190610e0b565b9050919050565b60025481565b6105e4610919565b7f000000000000000000000000000000000000000000000000000000000000000073ffffffffffffffffffffffffffffffffffffffff16635139caa7610628610260565b6040518263ffffffff1660e01b81526004016106449190610ae5565b60006040518083038186803b15801561065c57600080fd5b505afa158015610670573d6000803e3d6000fd5b505050508060028190555050565b6000807f000000000000000000000000000000000000000000000000000000000000000073ffffffffffffffffffffffffffffffffffffffff166370a082317f00000000000000000000000000000000000000000000000000000000000000006040518263ffffffff1660e01b81526004016106fa9190610ae5565b602060405180830381865afa158015610717573d6000803e3d6000fd5b505050506040513d601f19601f8201168201806040525081019061073b9190610e51565b905060007f000000000000000000000000000000000000000000000000000000000000000073ffffffffffffffffffffffffffffffffffffffff1663dd62ed3e7f0000000000000000000000000000000000000000000000000000000000000000306040518363ffffffff1660e01b81526004016107ba929190610e7e565b602060405180830381865afa1580156107d7573d6000803e3d6000fd5b505050506040513d601f19601f820116820180604052508101906107fb9190610e51565b905081811161080a578061080c565b815b9250505090565b60008060009054906101000a900460ff16905090565b7f000000000000000000000000000000000000000000000000000000000000000081565b60035481565b7f000000000000000000000000000000000000000000000000000000000000000081565b6002600154036108bc576040517f08c379a00000000000000000000000000000000000000000000000000000000081526004016108b390610ef3565b60405180910390fd5b6002600181905550565b6108ce610813565b1561090e576040517f08c379a000000000000000000000000000000000000000000000000000000000815260040161090590610f5f565b60405180910390fd5b565b60018081905550565b610921610813565b610960576040517f08c379a000000000000000000000000000000000000000000000000000000000815260040161095790610fcb565b60405180910390fd5b565b600073ffffffffffffffffffffffffffffffffffffffff82169050919050565b6000819050919050565b60006109a76109a261099d84610962565b610982565b610962565b9050919050565b60006109b98261098c565b9050919050565b60006109cb826109ae565b9050919050565b6109db816109c0565b82525050565b60006020820190506109f660008301846109d2565b92915050565b600080fd5b6000819050919050565b610a1481610a01565b8114610a1f57600080fd5b50565b600081359050610a3181610a0b565b92915050565b600060208284031215610a4d57610a4c6109fc565b5b6000610a5b84828501610a22565b91505092915050565b610a6d81610a01565b82525050565b6000602082019050610a886000830184610a64565b92915050565b60008115159050919050565b610aa381610a8e565b82525050565b6000602082019050610abe6000830184610a9a565b92915050565b6000610acf82610962565b9050919050565b610adf81610ac4565b82525050565b6000602082019050610afa6000830184610ad6565b92915050565b610b0981610ac4565b8114610b1457600080fd5b50565b600081359050610b2681610b00565b92915050565b600060208284031215610b4257610b416109fc565b5b6000610b5084828501610b17565b91505092915050565b6000610b64826109ae565b9050919050565b610b7481610b59565b82525050565b6000602082019050610b8f6000830184610b6b565b92915050565b600082825260208201905092915050565b7f546f6b656e53616c653a205a45524f5f414d4f554e5400000000000000000000600082015250565b6000610bdc601683610b95565b9150610be782610ba6565b602082019050919050565b60006020820190508181036000830152610c0b81610bcf565b9050919050565b7f546f6b656e53616c653a20414444524553535f5a45524f000000000000000000600082015250565b6000610c48601783610b95565b9150610c5382610c12565b602082019050919050565b60006020820190508181036000830152610c7781610c3b565b9050919050565b7f4e487b7100000000000000000000000000000000000000000000000000000000600052601160045260246000fd5b6000610cb882610a01565b9150610cc383610a01565b9250828201905080821115610cdb57610cda610c7e565b5b92915050565b6000606082019050610cf66000830186610ad6565b610d036020830185610ad6565b610d106040830184610a64565b949350505050565b610d2181610a8e565b8114610d2c57600080fd5b50565b600081519050610d3e81610d18565b92915050565b600060208284031215610d5a57610d596109fc565b5b6000610d6884828501610d2f565b91505092915050565b6000604082019050610d866000830185610a64565b610d936020830184610a64565b9392505050565b6000610da582610a01565b9150610db083610a01565b9250828202610dbe81610a01565b91508282048414831517610dd557610dd4610c7e565b5b5092915050565b7f4e487b7100000000000000000000000000000000000000000000000000000000600052601260045260246000fd5b6000610e1682610a01565b9150610e2183610a01565b925082610e3157610e30610ddc565b5b828204905092915050565b600081519050610e4b81610a0b565b92915050565b600060208284031215610e6757610e666109fc565b5b6000610e7584828501610e3c565b91505092915050565b6000604082019050610e936000830185610ad6565b610ea06020830184610ad6565b9392505050565b7f5265656e7472616e637947756172643a207265656e7472616e742063616c6c00600082015250565b6000610edd601f83610b95565b9150610ee882610ea7565b602082019050919050565b60006020820190508181036000830152610f0c81610ed0565b9050919050565b7f5061757361626c653a2070617573656400000000000000000000000000000000600082015250565b6000610f49601083610b95565b9150610f5482610f13565b602082019050919050565b60006020820190508181036000830152610f7881610f3c565b9050919050565b7f5061757361626c653a206e6f7420706175736564000000000000000000000000600082015250565b6000610fb5601483610b95565b9150610fc082610f7f565b602082019050919050565b60006020820190508181036000830152610fe481610fa8565b905091905056fea2646970667358221220b31980383c9ffa037583256b0fd55bd84f3a183cef7496e5f5716de24ad427b964736f6c63430008110033",
  "immutableReferences": {
    "4628": [
      {
        "length": 32,
        "start": 830
      },
      {
        "length": 32,
        "start": 1418
      },
      {
        "length": 32,
        "start": 1510
      }
    ],
    "4631": [
      {
        "length": 32,
        "start": 1102
      },
      {
        "length": 32,
        "start": 1667
      },
      {
        "length": 32,
        "start": 1857
      },
      {
        "length": 32,
        "start": 2133
      }
    ],
    "4633": [
      {
        "length": 32,
        "start": 999
      },
      {
        "length": 32,
        "start": 1162
      },
      {
        "length": 32,
        "start": 1727
      },
      {
        "length": 32,
        "start": 1917
      },
      {
        "length": 32,
        "start": 2091
      }
    ]
  },
  "source": "// SPDX-License-Identifier: MIT\n// FxEthers Contracts (last updated v1.0)\n\npragma solidity 0.8.17;\n\nimport \"@openzeppelin/contracts/utils/Context.sol\";\nimport \"@openzeppelin/contracts/token/ERC20/IERC20.sol\";\nimport \"@openzeppelin/contracts/security/ReentrancyGuard.sol\";\nimport \"@openzeppelin/contracts/security/Pausable.sol\";\nimport \"../access/ControlTower.sol\";\n\n/**\n * @title FxTokenSale\n * @dev FxTokenSale is a base contract for managing a token crowdsale, allowing investors to purchase tokens with ether. \n */\ncontract FxTokenSale is Pausable, ReentrancyGuard {\n    ControlTower public immutable controlTower;\n    IERC20 public immutable token;\n    address public immutable treasury;\n    uint public rate;\n    uint public raised;\n    uint private constant MULTIPLIER = 1e18;\n\n    /**\n     * Event for token purchase logging\n     * @param purchaser who paid for the tokens\n     * @param beneficiary who got the tokens\n     * @param amountIn weis paid for purchase\n     * @param tokenOut amount of tokens purchased\n     */\n    event TokensPurchased(\n        address indexed purchaser,\n        address indexed beneficiary,\n        uint amountIn,\n        uint tokenOut\n    );\n\n    /**\n     * @dev The rate is the conversion between wei and the smallest and indivisible\n     * token unit. So, if you are using a rate of 1e18 with a ERC20Detailed token\n     * with 18 decimals called TOK, 1 wei will give you 1 unit, or 1e-18 TOK.\n     * @param _treasury Address where collected funds will be forwarded to\n     * @param _rate Number of token units a buyer gets per MULTIPLIER\n     * @param _token Address of the token being sold\n     * @param _controlTower Address of the access control\n     */\n    constructor(\n        address _treasury,\n        uint _rate,\n        IERC20 _token,\n        ControlTower _controlTower\n    ) {\n        address addressZero = address(0);\n        require(_rate > 0, \"TokenSale: ZERO_RATE\");\n        require(_treasury != addressZero, \"TokenSale: ADDRESS_ZERO\");\n        require(address(_token) != addressZero, \"TokenSale: ADDRESS_ZERO\");\n        require(\n            address(_controlTower) != addressZero,\n            \"TokenSale: ADDRESS_ZERO\"\n        );\n        rate = _rate;\n        treasury = _treasury;\n        token = _token;\n        controlTower = _controlTower;\n    }\n\n    /**\n     * @dev fallback function ***DO NOT OVERRIDE***\n     * Note that other contracts will transfer funds with a base gas stipend\n     * of 2300, which is not enough to call buyTokens. Consider calling\n     * buyTokens directly when purchasing tokens from a contract.\n     */\n    receive() external payable {\n        buyTokens(_msgSender());\n    }\n\n    /**\n     * @dev The rate is the conversion between wei and the smallest and indivisible\n     * token unit. So, if you are using a rate of 1e18 with a ERC20Detailed token\n     * with 18 decimals called TOK, 1 wei will give you 1 unit, or 1e-18 TOK.\n     * @param _rate Number of token units a buyer gets per MULTIPLIER\n     */\n    function setRate(uint _rate) external whenPaused {\n        controlTower.onlyTreasurer(_msgSender());\n        rate = _rate;\n    }\n\n    /**\n     * @dev low level token purchase ***DO NOT OVERRIDE***\n     * This function has a non-reentrancy guard, so it shouldn't be called by\n     * another `nonReentrant` function.\n     * @param beneficiary Recipient of the token purchase\n     */\n    function buyTokens(\n        address beneficiary\n    ) public payable nonReentrant whenNotPaused {\n        uint amountIn = msg.value;\n        uint tokenOut = getEstimateToken(amountIn);\n\n        require(tokenOut > 0, \"TokenSale: ZERO_AMOUNT\");\n        require(beneficiary != address(0), \"TokenSale: ADDRESS_ZERO\");\n        controlTower.onlyWhitelist(_msgSender());\n\n        raised += amountIn;\n        payable(treasury).transfer(address(this).balance);\n        token.transferFrom(treasury, beneficiary, tokenOut);\n        emit TokensPurchased(_msgSender(), beneficiary, amountIn, tokenOut);\n    }\n\n    /**\n     * @dev Override to extend the way in which ether is converted to tokens.\n     * @param amountIn Value in wei to be converted into tokens\n     * @return Number of tokens that can be purchased with the specified _amount\n     */\n    function getEstimateToken(uint amountIn) public view returns (uint) {\n        return (amountIn * rate) / MULTIPLIER;\n    }\n\n    function available() public view returns (uint) {\n        uint balanceOfTreasury = token.balanceOf(treasury);\n        uint allowanceFromTreasury = token.allowance(treasury, address(this));\n        return\n            allowanceFromTreasury > balanceOfTreasury\n                ? balanceOfTreasury\n                : allowanceFromTreasury;\n    }\n}\n",
  "sourcePath": "/media/luc/Fdata/fxethers/truffle/contracts/defi/FxTokenSale.sol",
  "compiler": {
    "name": "solc",
    "version": "0.8.17+commit.8df45f5f.Emscripten.clang"
  },
  "schemaVersion": "3.4.10",
  "updatedAt": "2023-02-03T17:23:18.535Z",
  "networkType": "ethereum",
  "devdoc": {
    "details": "FxTokenSale is a base contract for managing a token crowdsale, allowing investors to purchase tokens with ether. ",
    "events": {
      "TokensPurchased(address,address,uint256,uint256)": {
        "params": {
          "amountIn": "weis paid for purchase",
          "beneficiary": "who got the tokens",
          "purchaser": "who paid for the tokens",
          "tokenOut": "amount of tokens purchased"
        }
      }
    },
    "kind": "dev",
    "methods": {
      "buyTokens(address)": {
        "details": "low level token purchase ***DO NOT OVERRIDE*** This function has a non-reentrancy guard, so it shouldn't be called by another `nonReentrant` function.",
        "params": {
          "beneficiary": "Recipient of the token purchase"
        }
      },
      "constructor": {
        "details": "The rate is the conversion between wei and the smallest and indivisible token unit. So, if you are using a rate of 1e18 with a ERC20Detailed token with 18 decimals called TOK, 1 wei will give you 1 unit, or 1e-18 TOK.",
        "params": {
          "_controlTower": "Address of the access control",
          "_rate": "Number of token units a buyer gets per MULTIPLIER",
          "_token": "Address of the token being sold",
          "_treasury": "Address where collected funds will be forwarded to"
        }
      },
      "getEstimateToken(uint256)": {
        "details": "Override to extend the way in which ether is converted to tokens.",
        "params": {
          "amountIn": "Value in wei to be converted into tokens"
        },
        "returns": {
          "_0": "Number of tokens that can be purchased with the specified _amount"
        }
      },
      "paused()": {
        "details": "Returns true if the contract is paused, and false otherwise."
      },
      "setRate(uint256)": {
        "details": "The rate is the conversion between wei and the smallest and indivisible token unit. So, if you are using a rate of 1e18 with a ERC20Detailed token with 18 decimals called TOK, 1 wei will give you 1 unit, or 1e-18 TOK.",
        "params": {
          "_rate": "Number of token units a buyer gets per MULTIPLIER"
        }
      }
    },
    "title": "FxTokenSale",
    "version": 1
  },
  "userdoc": {
    "events": {
      "TokensPurchased(address,address,uint256,uint256)": {
        "notice": "Event for token purchase logging"
      }
    },
    "kind": "user",
    "methods": {},
    "version": 1
  }
}