{
  "contractName": "TokenSale",
  "abi": [
    {
      "inputs": [
        {
          "internalType": "uint256",
          "name": "_rate",
          "type": "uint256"
        },
        {
          "internalType": "address",
          "name": "_wallet",
          "type": "address"
        },
        {
          "internalType": "contract IERC20",
          "name": "_token",
          "type": "address"
        },
        {
          "internalType": "contract KYC",
          "name": "_kyc",
          "type": "address"
        }
      ],
      "stateMutability": "nonpayable",
      "type": "constructor"
    },
    {
      "anonymous": false,
      "inputs": [
        {
          "indexed": true,
          "internalType": "address",
          "name": "purchaser",
          "type": "address"
        },
        {
          "indexed": true,
          "internalType": "address",
          "name": "beneficiary",
          "type": "address"
        },
        {
          "indexed": false,
          "internalType": "uint256",
          "name": "value",
          "type": "uint256"
        },
        {
          "indexed": false,
          "internalType": "uint256",
          "name": "amount",
          "type": "uint256"
        }
      ],
      "name": "TokensPurchased",
      "type": "event"
    },
    {
      "inputs": [
        {
          "internalType": "address",
          "name": "beneficiary",
          "type": "address"
        }
      ],
      "name": "buyTokens",
      "outputs": [],
      "stateMutability": "payable",
      "type": "function",
      "payable": true
    },
    {
      "inputs": [],
      "name": "raised",
      "outputs": [
        {
          "internalType": "uint256",
          "name": "",
          "type": "uint256"
        }
      ],
      "stateMutability": "view",
      "type": "function",
      "constant": true
    },
    {
      "inputs": [],
      "name": "rate",
      "outputs": [
        {
          "internalType": "uint256",
          "name": "",
          "type": "uint256"
        }
      ],
      "stateMutability": "view",
      "type": "function",
      "constant": true
    },
    {
      "inputs": [],
      "name": "token",
      "outputs": [
        {
          "internalType": "contract IERC20",
          "name": "",
          "type": "address"
        }
      ],
      "stateMutability": "view",
      "type": "function",
      "constant": true
    },
    {
      "inputs": [],
      "name": "wallet",
      "outputs": [
        {
          "internalType": "address payable",
          "name": "",
          "type": "address"
        }
      ],
      "stateMutability": "view",
      "type": "function",
      "constant": true
    },
    {
      "stateMutability": "payable",
      "type": "receive",
      "payable": true
    }
  ],
  "bytecode": "0x60806040523480156200001157600080fd5b506040516200155138038062001551833981810160405281019062000037919062000372565b83838360016000819055506000831162000088576040517f08c379a00000000000000000000000000000000000000000000000000000000081526004016200007f9062000445565b60405180910390fd5b600073ffffffffffffffffffffffffffffffffffffffff168273ffffffffffffffffffffffffffffffffffffffff1603620000fa576040517f08c379a0000000000000000000000000000000000000000000000000000000008152600401620000f190620004b7565b60405180910390fd5b600073ffffffffffffffffffffffffffffffffffffffff168173ffffffffffffffffffffffffffffffffffffffff16036200016c576040517f08c379a0000000000000000000000000000000000000000000000000000000008152600401620001639062000529565b60405180910390fd5b8260038190555081600260006101000a81548173ffffffffffffffffffffffffffffffffffffffff021916908373ffffffffffffffffffffffffffffffffffffffff16021790555080600160006101000a81548173ffffffffffffffffffffffffffffffffffffffff021916908373ffffffffffffffffffffffffffffffffffffffff16021790555050505080600560006101000a81548173ffffffffffffffffffffffffffffffffffffffff021916908373ffffffffffffffffffffffffffffffffffffffff160217905550505050506200054b565b600080fd5b6000819050919050565b6200025d8162000248565b81146200026957600080fd5b50565b6000815190506200027d8162000252565b92915050565b600073ffffffffffffffffffffffffffffffffffffffff82169050919050565b6000620002b08262000283565b9050919050565b620002c281620002a3565b8114620002ce57600080fd5b50565b600081519050620002e281620002b7565b92915050565b6000620002f582620002a3565b9050919050565b6200030781620002e8565b81146200031357600080fd5b50565b6000815190506200032781620002fc565b92915050565b60006200033a82620002a3565b9050919050565b6200034c816200032d565b81146200035857600080fd5b50565b6000815190506200036c8162000341565b92915050565b600080600080608085870312156200038f576200038e62000243565b5b60006200039f878288016200026c565b9450506020620003b287828801620002d1565b9350506040620003c58782880162000316565b9250506060620003d8878288016200035b565b91505092959194509250565b600082825260208201905092915050565b7f43726f776473616c653a205a45524f5f52415445000000000000000000000000600082015250565b60006200042d601483620003e4565b91506200043a82620003f5565b602082019050919050565b6000602082019050818103600083015262000460816200041e565b9050919050565b7f43726f776473616c653a2057414c4c45545f414444524553535f5a45524f0000600082015250565b60006200049f601e83620003e4565b9150620004ac8262000467565b602082019050919050565b60006020820190508181036000830152620004d28162000490565b9050919050565b7f43726f776473616c653a20544f4b454e5f414444524553535f5a45524f000000600082015250565b600062000511601d83620003e4565b91506200051e82620004d9565b602082019050919050565b60006020820190508181036000830152620005448162000502565b9050919050565b610ff6806200055b6000396000f3fe60806040526004361061004e5760003560e01c80632c4e722e1461006a578063521eb27314610095578063ec8ac4d8146100c0578063f0ea4bfc146100dc578063fc0c546a1461010757610065565b366100655761006361005e610132565b61013a565b005b600080fd5b34801561007657600080fd5b5061007f6101ff565b60405161008c9190610863565b60405180910390f35b3480156100a157600080fd5b506100aa610205565b6040516100b791906108bf565b60405180910390f35b6100da60048036038101906100d5919061091d565b61013a565b005b3480156100e857600080fd5b506100f161022b565b6040516100fe9190610863565b60405180910390f35b34801561011357600080fd5b5061011c610231565b60405161012991906109a9565b60405180910390f35b600033905090565b610142610257565b600034905061015182826102a6565b600061015c8261038f565b90508160045461016c91906109f3565b60048190555061017c83826103a6565b8273ffffffffffffffffffffffffffffffffffffffff1661019b610132565b73ffffffffffffffffffffffffffffffffffffffff167f6faf93231a456e552dbc9961f58d9713ee4f2e69d15f1975b050ef0911053a7b84846040516101e2929190610a27565b60405180910390a36101f26103b4565b50506101fc61041f565b50565b60035481565b600260009054906101000a900473ffffffffffffffffffffffffffffffffffffffff1681565b60045481565b600160009054906101000a900473ffffffffffffffffffffffffffffffffffffffff1681565b60026000540361029c576040517f08c379a000000000000000000000000000000000000000000000000000000000815260040161029390610aad565b60405180910390fd5b6002600081905550565b6102b08282610429565b600560009054906101000a900473ffffffffffffffffffffffffffffffffffffffff1673ffffffffffffffffffffffffffffffffffffffff166322fdef94336040518263ffffffff1660e01b815260040161030b9190610adc565b602060405180830381865afa158015610328573d6000803e3d6000fd5b505050506040513d601f19601f8201168201806040525081019061034c9190610b2f565b61038b576040517f08c379a000000000000000000000000000000000000000000000000000000000815260040161038290610ba8565b60405180910390fd5b5050565b60006003548261039f9190610bc8565b9050919050565b6103b082826104df565b5050565b600260009054906101000a900473ffffffffffffffffffffffffffffffffffffffff1673ffffffffffffffffffffffffffffffffffffffff166108fc349081150290604051600060405180830381858888f1935050505015801561041c573d6000803e3d6000fd5b50565b6001600081905550565b600073ffffffffffffffffffffffffffffffffffffffff168273ffffffffffffffffffffffffffffffffffffffff1603610498576040517f08c379a000000000000000000000000000000000000000000000000000000000815260040161048f90610c7c565b60405180910390fd5b600081036104db576040517f08c379a00000000000000000000000000000000000000000000000000000000081526004016104d290610ce8565b60405180910390fd5b5050565b61052c8282600160009054906101000a900473ffffffffffffffffffffffffffffffffffffffff1673ffffffffffffffffffffffffffffffffffffffff166105309092919063ffffffff16565b5050565b6105b18363a9059cbb60e01b848460405160240161054f929190610d08565b604051602081830303815290604052907bffffffffffffffffffffffffffffffffffffffffffffffffffffffff19166020820180517bffffffffffffffffffffffffffffffffffffffffffffffffffffffff83818316178352505050506105b6565b505050565b6000610618826040518060400160405280602081526020017f5361666545524332303a206c6f772d6c6576656c2063616c6c206661696c65648152508573ffffffffffffffffffffffffffffffffffffffff1661067d9092919063ffffffff16565b905060008151111561067857808060200190518101906106389190610b2f565b610677576040517f08c379a000000000000000000000000000000000000000000000000000000000815260040161066e90610da3565b60405180910390fd5b5b505050565b606061068c8484600085610695565b90509392505050565b6060824710156106da576040517f08c379a00000000000000000000000000000000000000000000000000000000081526004016106d190610e35565b60405180910390fd5b6000808673ffffffffffffffffffffffffffffffffffffffff1685876040516107039190610ec6565b60006040518083038185875af1925050503d8060008114610740576040519150601f19603f3d011682016040523d82523d6000602084013e610745565b606091505b509150915061075687838387610762565b92505050949350505050565b606083156107c45760008351036107bc5761077c856107d7565b6107bb576040517f08c379a00000000000000000000000000000000000000000000000000000000081526004016107b290610f29565b60405180910390fd5b5b8290506107cf565b6107ce83836107fa565b5b949350505050565b6000808273ffffffffffffffffffffffffffffffffffffffff163b119050919050565b60008251111561080d5781518083602001fd5b806040517f08c379a00000000000000000000000000000000000000000000000000000000081526004016108419190610f9e565b60405180910390fd5b6000819050919050565b61085d8161084a565b82525050565b60006020820190506108786000830184610854565b92915050565b600073ffffffffffffffffffffffffffffffffffffffff82169050919050565b60006108a98261087e565b9050919050565b6108b98161089e565b82525050565b60006020820190506108d460008301846108b0565b92915050565b600080fd5b60006108ea8261087e565b9050919050565b6108fa816108df565b811461090557600080fd5b50565b600081359050610917816108f1565b92915050565b600060208284031215610933576109326108da565b5b600061094184828501610908565b91505092915050565b6000819050919050565b600061096f61096a6109658461087e565b61094a565b61087e565b9050919050565b600061098182610954565b9050919050565b600061099382610976565b9050919050565b6109a381610988565b82525050565b60006020820190506109be600083018461099a565b92915050565b7f4e487b7100000000000000000000000000000000000000000000000000000000600052601160045260246000fd5b60006109fe8261084a565b9150610a098361084a565b9250828201905080821115610a2157610a206109c4565b5b92915050565b6000604082019050610a3c6000830185610854565b610a496020830184610854565b9392505050565b600082825260208201905092915050565b7f5265656e7472616e637947756172643a207265656e7472616e742063616c6c00600082015250565b6000610a97601f83610a50565b9150610aa282610a61565b602082019050919050565b60006020820190508181036000830152610ac681610a8a565b9050919050565b610ad6816108df565b82525050565b6000602082019050610af16000830184610acd565b92915050565b60008115159050919050565b610b0c81610af7565b8114610b1757600080fd5b50565b600081519050610b2981610b03565b92915050565b600060208284031215610b4557610b446108da565b5b6000610b5384828501610b1a565b91505092915050565b7f4d79546f6b656e53616c653a204e4f545f414c4c4f5745440000000000000000600082015250565b6000610b92601883610a50565b9150610b9d82610b5c565b602082019050919050565b60006020820190508181036000830152610bc181610b85565b9050919050565b6000610bd38261084a565b9150610bde8361084a565b9250828202610bec8161084a565b91508282048414831517610c0357610c026109c4565b5b5092915050565b7f43726f776473616c653a2042454e45464943494152595f414444524553535f5a60008201527f45524f0000000000000000000000000000000000000000000000000000000000602082015250565b6000610c66602383610a50565b9150610c7182610c0a565b604082019050919050565b60006020820190508181036000830152610c9581610c59565b9050919050565b7f43726f776473616c653a205a45524f5f414d4f554e5400000000000000000000600082015250565b6000610cd2601683610a50565b9150610cdd82610c9c565b602082019050919050565b60006020820190508181036000830152610d0181610cc5565b9050919050565b6000604082019050610d1d6000830185610acd565b610d2a6020830184610854565b9392505050565b7f5361666545524332303a204552433230206f7065726174696f6e20646964206e60008201527f6f74207375636365656400000000000000000000000000000000000000000000602082015250565b6000610d8d602a83610a50565b9150610d9882610d31565b604082019050919050565b60006020820190508181036000830152610dbc81610d80565b9050919050565b7f416464726573733a20696e73756666696369656e742062616c616e636520666f60008201527f722063616c6c0000000000000000000000000000000000000000000000000000602082015250565b6000610e1f602683610a50565b9150610e2a82610dc3565b604082019050919050565b60006020820190508181036000830152610e4e81610e12565b9050919050565b600081519050919050565b600081905092915050565b60005b83811015610e89578082015181840152602081019050610e6e565b60008484015250505050565b6000610ea082610e55565b610eaa8185610e60565b9350610eba818560208601610e6b565b80840191505092915050565b6000610ed28284610e95565b915081905092915050565b7f416464726573733a2063616c6c20746f206e6f6e2d636f6e7472616374000000600082015250565b6000610f13601d83610a50565b9150610f1e82610edd565b602082019050919050565b60006020820190508181036000830152610f4281610f06565b9050919050565b600081519050919050565b6000601f19601f8301169050919050565b6000610f7082610f49565b610f7a8185610a50565b9350610f8a818560208601610e6b565b610f9381610f54565b840191505092915050565b60006020820190508181036000830152610fb88184610f65565b90509291505056fea2646970667358221220fcce92893a6cd6cda8bc5fe36559b2a3875820844494862f9fec4675c656d85764736f6c63430008110033",
  "immutableReferences": {},
  "source": "// SPDX-License-Identifier: MIT\r\npragma solidity 0.8.17;\r\n\r\nimport \"./Crowdsale.sol\";\r\nimport \"./KYC.sol\";\r\n\r\ncontract TokenSale is Crowdsale {\r\n    KYC kyc;\r\n\r\n    constructor(\r\n        uint256 _rate,\r\n        address _wallet,\r\n        IERC20 _token,\r\n        KYC _kyc\r\n    ) Crowdsale(_rate, _wallet, _token) {\r\n        kyc = _kyc;\r\n    }\r\n\r\n    function _preValidatePurchase(address beneficiary, uint256 weiAmount) internal view override {\r\n        super._preValidatePurchase(beneficiary, weiAmount);\r\n        require(kyc.isRegister(msg.sender), \"MyTokenSale: NOT_ALLOWED\");\r\n    }\r\n}\r\n",
  "sourcePath": "D:\\Office\\DAPP\\DoAnBlockchain\\Project\\truffle\\contracts\\TokenSale.sol",
  "compiler": {
    "name": "solc",
    "version": "0.8.17+commit.8df45f5f.Emscripten.clang"
  },
  "schemaVersion": "3.4.10",
  "updatedAt": "2022-11-29T12:37:37.080Z",
  "networkType": "ethereum",
  "devdoc": {
    "kind": "dev",
    "methods": {
      "buyTokens(address)": {
        "details": "low level token purchase ***DO NOT OVERRIDE*** This function has a non-reentrancy guard, so it shouldn't be called by another `nonReentrant` function.",
        "params": {
          "beneficiary": "Recipient of the token purchase"
        }
      }
    },
    "version": 1
  },
  "userdoc": {
    "events": {
      "TokensPurchased(address,address,uint256,uint256)": {
        "notice": "Event for token purchase logging"
      }
    },
    "kind": "user",
    "methods": {},
    "version": 1
  }
}