{
  "contractName": "Treasury",
  "abi": [
    {
      "inputs": [
        {
          "internalType": "contract ControlTower",
          "name": "_controlTower",
          "type": "address"
        }
      ],
      "stateMutability": "nonpayable",
      "type": "constructor"
    },
    {
      "inputs": [],
      "name": "controlTower",
      "outputs": [
        {
          "internalType": "contract ControlTower",
          "name": "",
          "type": "address"
        }
      ],
      "stateMutability": "view",
      "type": "function",
      "constant": true
    },
    {
      "stateMutability": "payable",
      "type": "receive",
      "payable": true
    },
    {
      "inputs": [
        {
          "internalType": "address payable",
          "name": "to",
          "type": "address"
        },
        {
          "internalType": "uint256",
          "name": "amount",
          "type": "uint256"
        }
      ],
      "name": "transfer",
      "outputs": [],
      "stateMutability": "nonpayable",
      "type": "function"
    },
    {
      "inputs": [
        {
          "internalType": "contract IERC20",
          "name": "token",
          "type": "address"
        },
        {
          "internalType": "address",
          "name": "to",
          "type": "address"
        },
        {
          "internalType": "uint256",
          "name": "amount",
          "type": "uint256"
        }
      ],
      "name": "transfer",
      "outputs": [],
      "stateMutability": "nonpayable",
      "type": "function"
    },
    {
      "inputs": [
        {
          "internalType": "contract IERC721",
          "name": "token",
          "type": "address"
        },
        {
          "internalType": "address",
          "name": "to",
          "type": "address"
        },
        {
          "internalType": "uint256",
          "name": "tokenId",
          "type": "uint256"
        }
      ],
      "name": "transferNFT",
      "outputs": [],
      "stateMutability": "nonpayable",
      "type": "function"
    },
    {
      "inputs": [
        {
          "internalType": "contract IERC20",
          "name": "token",
          "type": "address"
        },
        {
          "internalType": "address",
          "name": "spender",
          "type": "address"
        },
        {
          "internalType": "uint256",
          "name": "amount",
          "type": "uint256"
        }
      ],
      "name": "approve",
      "outputs": [],
      "stateMutability": "nonpayable",
      "type": "function"
    },
    {
      "inputs": [
        {
          "internalType": "contract IERC721",
          "name": "token",
          "type": "address"
        },
        {
          "internalType": "address",
          "name": "spender",
          "type": "address"
        },
        {
          "internalType": "uint256",
          "name": "tokenId",
          "type": "uint256"
        }
      ],
      "name": "approveNFT",
      "outputs": [],
      "stateMutability": "nonpayable",
      "type": "function"
    },
    {
      "inputs": [
        {
          "internalType": "address",
          "name": "",
          "type": "address"
        },
        {
          "internalType": "address",
          "name": "",
          "type": "address"
        },
        {
          "internalType": "uint256",
          "name": "",
          "type": "uint256"
        },
        {
          "internalType": "bytes",
          "name": "",
          "type": "bytes"
        }
      ],
      "name": "onERC721Received",
      "outputs": [
        {
          "internalType": "bytes4",
          "name": "",
          "type": "bytes4"
        }
      ],
      "stateMutability": "pure",
      "type": "function",
      "constant": true
    }
  ],
  "bytecode": "0x60a060405234801561001057600080fd5b50604051610d7a380380610d7a833981810160405281019061003291906100e1565b8073ffffffffffffffffffffffffffffffffffffffff1660808173ffffffffffffffffffffffffffffffffffffffff16815250505061010e565b600080fd5b600073ffffffffffffffffffffffffffffffffffffffff82169050919050565b600061009c82610071565b9050919050565b60006100ae82610091565b9050919050565b6100be816100a3565b81146100c957600080fd5b50565b6000815190506100db816100b5565b92915050565b6000602082840312156100f7576100f661006c565b5b6000610105848285016100cc565b91505092915050565b608051610c2e61014c600039600081816101b7015281816101f0015281816102f4015281816103f6015281816104d101526105e50152610c2e6000f3fe6080604052600436106100745760003560e01c80637336aaf01161004e5780637336aaf014610111578063a9059cbb1461013a578063beabacc814610163578063e1f21c671461018c5761007b565b80630975bb7e14610080578063150b7a02146100ab57806369e9cae1146100e85761007b565b3661007b57005b600080fd5b34801561008c57600080fd5b506100956101b5565b6040516100a2919061077e565b60405180910390f35b3480156100b757600080fd5b506100d260048036038101906100cd919061087c565b6101d9565b6040516100df919061093f565b60405180910390f35b3480156100f457600080fd5b5061010f600480360381019061010a9190610998565b6101ee565b005b34801561011d57600080fd5b5061013860048036038101906101339190610998565b6102f2565b005b34801561014657600080fd5b50610161600480360381019061015c9190610a29565b6103f4565b005b34801561016f57600080fd5b5061018a60048036038101906101859190610aa7565b6104cf565b005b34801561019857600080fd5b506101b360048036038101906101ae9190610aa7565b6105e3565b005b7f000000000000000000000000000000000000000000000000000000000000000081565b600063150b7a0260e01b905095945050505050565b7f000000000000000000000000000000000000000000000000000000000000000073ffffffffffffffffffffffffffffffffffffffff16635139caa76102326106f7565b6040518263ffffffff1660e01b815260040161024e9190610b09565b60006040518083038186803b15801561026657600080fd5b505afa15801561027a573d6000803e3d6000fd5b505050508273ffffffffffffffffffffffffffffffffffffffff166342842e0e3084846040518463ffffffff1660e01b81526004016102bb93929190610b33565b600060405180830381600087803b1580156102d557600080fd5b505af11580156102e9573d6000803e3d6000fd5b50505050505050565b7f000000000000000000000000000000000000000000000000000000000000000073ffffffffffffffffffffffffffffffffffffffff16635139caa76103366106f7565b6040518263ffffffff1660e01b81526004016103529190610b09565b60006040518083038186803b15801561036a57600080fd5b505afa15801561037e573d6000803e3d6000fd5b505050508273ffffffffffffffffffffffffffffffffffffffff1663095ea7b383836040518363ffffffff1660e01b81526004016103bd929190610b6a565b600060405180830381600087803b1580156103d757600080fd5b505af11580156103eb573d6000803e3d6000fd5b50505050505050565b7f000000000000000000000000000000000000000000000000000000000000000073ffffffffffffffffffffffffffffffffffffffff16635139caa76104386106f7565b6040518263ffffffff1660e01b81526004016104549190610b09565b60006040518083038186803b15801561046c57600080fd5b505afa158015610480573d6000803e3d6000fd5b505050508173ffffffffffffffffffffffffffffffffffffffff166108fc829081150290604051600060405180830381858888f193505050501580156104ca573d6000803e3d6000fd5b505050565b7f000000000000000000000000000000000000000000000000000000000000000073ffffffffffffffffffffffffffffffffffffffff16635139caa76105136106f7565b6040518263ffffffff1660e01b815260040161052f9190610b09565b60006040518083038186803b15801561054757600080fd5b505afa15801561055b573d6000803e3d6000fd5b505050508273ffffffffffffffffffffffffffffffffffffffff1663a9059cbb83836040518363ffffffff1660e01b815260040161059a929190610b6a565b6020604051808303816000875af11580156105b9573d6000803e3d6000fd5b505050506040513d601f19601f820116820180604052508101906105dd9190610bcb565b50505050565b7f000000000000000000000000000000000000000000000000000000000000000073ffffffffffffffffffffffffffffffffffffffff16635139caa76106276106f7565b6040518263ffffffff1660e01b81526004016106439190610b09565b60006040518083038186803b15801561065b57600080fd5b505afa15801561066f573d6000803e3d6000fd5b505050508273ffffffffffffffffffffffffffffffffffffffff1663095ea7b383836040518363ffffffff1660e01b81526004016106ae929190610b6a565b6020604051808303816000875af11580156106cd573d6000803e3d6000fd5b505050506040513d601f19601f820116820180604052508101906106f19190610bcb565b50505050565b600033905090565b600073ffffffffffffffffffffffffffffffffffffffff82169050919050565b6000819050919050565b600061074461073f61073a846106ff565b61071f565b6106ff565b9050919050565b600061075682610729565b9050919050565b60006107688261074b565b9050919050565b6107788161075d565b82525050565b6000602082019050610793600083018461076f565b92915050565b600080fd5b600080fd5b60006107ae826106ff565b9050919050565b6107be816107a3565b81146107c957600080fd5b50565b6000813590506107db816107b5565b92915050565b6000819050919050565b6107f4816107e1565b81146107ff57600080fd5b50565b600081359050610811816107eb565b92915050565b600080fd5b600080fd5b600080fd5b60008083601f84011261083c5761083b610817565b5b8235905067ffffffffffffffff8111156108595761085861081c565b5b60208301915083600182028301111561087557610874610821565b5b9250929050565b60008060008060006080868803121561089857610897610799565b5b60006108a6888289016107cc565b95505060206108b7888289016107cc565b94505060406108c888828901610802565b935050606086013567ffffffffffffffff8111156108e9576108e861079e565b5b6108f588828901610826565b92509250509295509295909350565b60007fffffffff0000000000000000000000000000000000000000000000000000000082169050919050565b61093981610904565b82525050565b60006020820190506109546000830184610930565b92915050565b6000610965826107a3565b9050919050565b6109758161095a565b811461098057600080fd5b50565b6000813590506109928161096c565b92915050565b6000806000606084860312156109b1576109b0610799565b5b60006109bf86828701610983565b93505060206109d0868287016107cc565b92505060406109e186828701610802565b9150509250925092565b60006109f6826106ff565b9050919050565b610a06816109eb565b8114610a1157600080fd5b50565b600081359050610a23816109fd565b92915050565b60008060408385031215610a4057610a3f610799565b5b6000610a4e85828601610a14565b9250506020610a5f85828601610802565b9150509250929050565b6000610a74826107a3565b9050919050565b610a8481610a69565b8114610a8f57600080fd5b50565b600081359050610aa181610a7b565b92915050565b600080600060608486031215610ac057610abf610799565b5b6000610ace86828701610a92565b9350506020610adf868287016107cc565b9250506040610af086828701610802565b9150509250925092565b610b03816107a3565b82525050565b6000602082019050610b1e6000830184610afa565b92915050565b610b2d816107e1565b82525050565b6000606082019050610b486000830186610afa565b610b556020830185610afa565b610b626040830184610b24565b949350505050565b6000604082019050610b7f6000830185610afa565b610b8c6020830184610b24565b9392505050565b60008115159050919050565b610ba881610b93565b8114610bb357600080fd5b50565b600081519050610bc581610b9f565b92915050565b600060208284031215610be157610be0610799565b5b6000610bef84828501610bb6565b9150509291505056fea264697066735822122087ba376d67e8f50054c38b0b307ac78a38515a22e140baa2f935c6fb95684a8864736f6c63430008110033",
  "immutableReferences": {
    "4891": [
      {
        "length": 32,
        "start": 439
      },
      {
        "length": 32,
        "start": 496
      },
      {
        "length": 32,
        "start": 756
      },
      {
        "length": 32,
        "start": 1014
      },
      {
        "length": 32,
        "start": 1233
      },
      {
        "length": 32,
        "start": 1509
      }
    ]
  },
  "source": "// SPDX-License-Identifier: MIT\n// FxEthers Contracts (last updated v1.0)\n\npragma solidity 0.8.17;\n\nimport \"@openzeppelin/contracts/token/ERC721/IERC721.sol\";\nimport \"@openzeppelin/contracts/token/ERC721/IERC721Receiver.sol\";\nimport \"@openzeppelin/contracts/token/ERC20/IERC20.sol\";\nimport \"@openzeppelin/contracts/utils/Context.sol\";\nimport \"../access/ControlTower.sol\";\n\ncontract Treasury is Context {\n    ControlTower public immutable controlTower;\n\n    constructor(ControlTower _controlTower) {\n        controlTower = _controlTower;\n    }\n\n    receive() external payable {}\n\n    function transfer(address payable to, uint amount) external {\n        controlTower.onlyTreasurer(_msgSender());\n        to.transfer(amount);\n    }\n\n    function transfer(IERC20 token, address to, uint amount) external {\n        controlTower.onlyTreasurer(_msgSender());\n        token.transfer(to, amount);\n    }\n\n    function transferNFT(IERC721 token, address to, uint tokenId) external {\n        controlTower.onlyTreasurer(_msgSender());\n        token.safeTransferFrom(address(this), to, tokenId);\n    }\n\n    function approve(IERC20 token, address spender, uint amount) external {\n        controlTower.onlyTreasurer(_msgSender());\n        token.approve(spender, amount);\n    }\n\n    function approveNFT(IERC721 token, address spender, uint tokenId) external {\n        controlTower.onlyTreasurer(_msgSender());\n        token.approve(spender, tokenId);\n    }\n\n    // Confirmation required for receiving ERC721 to smart contract\n    function onERC721Received(\n        address,\n        address,\n        uint256,\n        bytes calldata\n    ) external pure returns (bytes4) {\n        return IERC721Receiver.onERC721Received.selector;\n    }\n}\n",
  "sourcePath": "/media/luc/Fdata/fxethers/truffle/contracts/defi/Treasury.sol",
  "compiler": {
    "name": "solc",
    "version": "0.8.17+commit.8df45f5f.Emscripten.clang"
  },
  "schemaVersion": "3.4.10",
  "updatedAt": "2023-02-03T17:23:18.485Z",
  "networkType": "ethereum",
  "devdoc": {
    "kind": "dev",
    "methods": {},
    "version": 1
  },
  "userdoc": {
    "kind": "user",
    "methods": {},
    "version": 1
  }
}